{
    "contractName": "SupplyChainLogic_3",
    "abi": [
        {
            "anonymous": false,
            "inputs": [
                {
                    "indexed": false,
                    "internalType": "uint32",
                    "name": "productId",
                    "type": "uint32"
                }
            ],
            "name": "Transfer",
            "type": "event"
        },
        {
            "inputs": [
                {
                    "internalType": "address",
                    "name": "_uAddress",
                    "type": "address"
                },
                {
                    "internalType": "string",
                    "name": "_uname",
                    "type": "string"
                },
                {
                    "internalType": "string",
                    "name": "_pass",
                    "type": "string"
                },
                {
                    "internalType": "string",
                    "name": "_utype",
                    "type": "string"
                }
            ],
            "name": "authenticateParticipant",
            "outputs": [
                {
                    "internalType": "bool",
                    "name": "",
                    "type": "bool"
                }
            ],
            "stateMutability": "view",
            "type": "function"
        },
        {
            "inputs": [
                {
                    "internalType": "string",
                    "name": "_partNumber",
                    "type": "string"
                },
                {
                    "internalType": "string",
                    "name": "_serialNumber",
                    "type": "string"
                },
                {
                    "internalType": "uint32",
                    "name": "_productCost",
                    "type": "uint32"
                }
            ],
            "name": "createPart",
            "outputs": [
                {
                    "internalType": "uint32",
                    "name": "",
                    "type": "uint32"
                }
            ],
            "stateMutability": "nonpayable",
            "type": "function"
        },
        {
            "inputs": [
                {
                    "internalType": "string",
                    "name": "_name",
                    "type": "string"
                },
                {
                    "internalType": "string",
                    "name": "_pass",
                    "type": "string"
                },
                {
                    "internalType": "address",
                    "name": "_pAdd",
                    "type": "address"
                },
                {
                    "internalType": "string",
                    "name": "_pType",
                    "type": "string"
                }
            ],
            "name": "createParticipant",
            "outputs": [
                {
                    "internalType": "address",
                    "name": "",
                    "type": "address"
                }
            ],
            "stateMutability": "nonpayable",
            "type": "function"
        },
        {
            "inputs": [
                {
                    "internalType": "string",
                    "name": "_modelNumber",
                    "type": "string"
                },
                {
                    "internalType": "string",
                    "name": "_partNumber",
                    "type": "string"
                },
                {
                    "internalType": "string",
                    "name": "_serialNumber",
                    "type": "string"
                },
                {
                    "internalType": "uint32",
                    "name": "_productCost",
                    "type": "uint32"
                },
                {
                    "internalType": "uint32[]",
                    "name": "_parts",
                    "type": "uint32[]"
                }
            ],
            "name": "createProduct",
            "outputs": [
                {
                    "internalType": "uint32",
                    "name": "",
                    "type": "uint32"
                }
            ],
            "stateMutability": "nonpayable",
            "type": "function"
        },
        {
            "inputs": [
                {
                    "internalType": "uint32",
                    "name": "_partId",
                    "type": "uint32"
                }
            ],
            "name": "getPartDetails",
            "outputs": [
                {
                    "internalType": "string",
                    "name": "",
                    "type": "string"
                },
                {
                    "internalType": "string",
                    "name": "",
                    "type": "string"
                },
                {
                    "internalType": "uint32",
                    "name": "",
                    "type": "uint32"
                },
                {
                    "internalType": "uint32",
                    "name": "",
                    "type": "uint32"
                },
                {
                    "internalType": "int32",
                    "name": "",
                    "type": "int32"
                }
            ],
            "stateMutability": "view",
            "type": "function"
        },
        {
            "inputs": [
                {
                    "internalType": "address",
                    "name": "_p_address",
                    "type": "address"
                }
            ],
            "name": "getParticipantDetails",
            "outputs": [
                {
                    "internalType": "string",
                    "name": "",
                    "type": "string"
                },
                {
                    "internalType": "address",
                    "name": "",
                    "type": "address"
                },
                {
                    "internalType": "string",
                    "name": "",
                    "type": "string"
                },
                {
                    "internalType": "uint256[]",
                    "name": "",
                    "type": "uint256[]"
                }
            ],
            "stateMutability": "view",
            "type": "function"
        },
        {
            "inputs": [
                {
                    "internalType": "uint32",
                    "name": "_productId",
                    "type": "uint32"
                }
            ],
            "name": "getProductDetails",
            "outputs": [
                {
                    "internalType": "string",
                    "name": "",
                    "type": "string"
                },
                {
                    "internalType": "string",
                    "name": "",
                    "type": "string"
                },
                {
                    "internalType": "string",
                    "name": "",
                    "type": "string"
                },
                {
                    "internalType": "uint32",
                    "name": "",
                    "type": "uint32"
                },
                {
                    "internalType": "address",
                    "name": "",
                    "type": "address"
                },
                {
                    "internalType": "uint32",
                    "name": "",
                    "type": "uint32"
                },
                {
                    "internalType": "uint256[]",
                    "name": "",
                    "type": "uint256[]"
                }
            ],
            "stateMutability": "view",
            "type": "function"
        },
        {
            "inputs": [
                {
                    "internalType": "uint32",
                    "name": "_prodId",
                    "type": "uint32"
                }
            ],
            "name": "getProductTrack",
            "outputs": [
                {
                    "internalType": "uint32[]",
                    "name": "",
                    "type": "uint32[]"
                }
            ],
            "stateMutability": "view",
            "type": "function"
        },
        {
            "inputs": [
                {
                    "internalType": "uint32",
                    "name": "_regId",
                    "type": "uint32"
                }
            ],
            "name": "getRegistrationDetails",
            "outputs": [
                {
                    "internalType": "uint32",
                    "name": "",
                    "type": "uint32"
                },
                {
                    "internalType": "address",
                    "name": "",
                    "type": "address"
                },
                {
                    "internalType": "address",
                    "name": "",
                    "type": "address"
                },
                {
                    "internalType": "uint32",
                    "name": "",
                    "type": "uint32"
                }
            ],
            "stateMutability": "view",
            "type": "function"
        },
        {
            "inputs": [],
            "name": "part_counter",
            "outputs": [
                {
                    "internalType": "uint32",
                    "name": "",
                    "type": "uint32"
                }
            ],
            "stateMutability": "view",
            "type": "function"
        },
        {
            "inputs": [],
            "name": "participant_counter",
            "outputs": [
                {
                    "internalType": "uint32",
                    "name": "",
                    "type": "uint32"
                }
            ],
            "stateMutability": "view",
            "type": "function"
        },
        {
            "inputs": [
                {
                    "internalType": "address",
                    "name": "",
                    "type": "address"
                }
            ],
            "name": "participants",
            "outputs": [
                {
                    "internalType": "string",
                    "name": "userName",
                    "type": "string"
                },
                {
                    "internalType": "string",
                    "name": "password",
                    "type": "string"
                },
                {
                    "internalType": "string",
                    "name": "participantType",
                    "type": "string"
                },
                {
                    "internalType": "address",
                    "name": "participantAddress",
                    "type": "address"
                }
            ],
            "stateMutability": "view",
            "type": "function"
        },
        {
            "inputs": [
                {
                    "internalType": "uint32",
                    "name": "",
                    "type": "uint32"
                }
            ],
            "name": "parts",
            "outputs": [
                {
                    "internalType": "string",
                    "name": "partNumber",
                    "type": "string"
                },
                {
                    "internalType": "string",
                    "name": "serialNumber",
                    "type": "string"
                },
                {
                    "internalType": "uint32",
                    "name": "cost",
                    "type": "uint32"
                },
                {
                    "internalType": "uint32",
                    "name": "mfgTimeStamp",
                    "type": "uint32"
                },
                {
                    "internalType": "int32",
                    "name": "productId",
                    "type": "int32"
                }
            ],
            "stateMutability": "view",
            "type": "function"
        },
        {
            "inputs": [
                {
                    "internalType": "uint32",
                    "name": "",
                    "type": "uint32"
                },
                {
                    "internalType": "uint256",
                    "name": "",
                    "type": "uint256"
                }
            ],
            "name": "productTrack",
            "outputs": [
                {
                    "internalType": "uint32",
                    "name": "",
                    "type": "uint32"
                }
            ],
            "stateMutability": "view",
            "type": "function"
        },
        {
            "inputs": [],
            "name": "product_counter",
            "outputs": [
                {
                    "internalType": "uint32",
                    "name": "",
                    "type": "uint32"
                }
            ],
            "stateMutability": "view",
            "type": "function"
        },
        {
            "inputs": [
                {
                    "internalType": "uint32",
                    "name": "",
                    "type": "uint32"
                }
            ],
            "name": "products",
            "outputs": [
                {
                    "internalType": "string",
                    "name": "modelNumber",
                    "type": "string"
                },
                {
                    "internalType": "string",
                    "name": "partNumber",
                    "type": "string"
                },
                {
                    "internalType": "string",
                    "name": "serialNumber",
                    "type": "string"
                },
                {
                    "internalType": "address",
                    "name": "productOwner",
                    "type": "address"
                },
                {
                    "internalType": "uint32",
                    "name": "cost",
                    "type": "uint32"
                },
                {
                    "internalType": "uint32",
                    "name": "mfgTimeStamp",
                    "type": "uint32"
                }
            ],
            "stateMutability": "view",
            "type": "function"
        },
        {
            "inputs": [],
            "name": "registration_counter",
            "outputs": [
                {
                    "internalType": "uint32",
                    "name": "",
                    "type": "uint32"
                }
            ],
            "stateMutability": "view",
            "type": "function"
        },
        {
            "inputs": [
                {
                    "internalType": "uint32",
                    "name": "",
                    "type": "uint32"
                }
            ],
            "name": "registrations",
            "outputs": [
                {
                    "internalType": "uint32",
                    "name": "productId",
                    "type": "uint32"
                },
                {
                    "internalType": "address",
                    "name": "ownerAddress",
                    "type": "address"
                },
                {
                    "internalType": "uint32",
                    "name": "trxTimeStamp",
                    "type": "uint32"
                },
                {
                    "internalType": "address",
                    "name": "productOwner",
                    "type": "address"
                }
            ],
            "stateMutability": "view",
            "type": "function"
        },
        {
            "inputs": [
                {
                    "internalType": "address",
                    "name": "_user1Address",
                    "type": "address"
                },
                {
                    "internalType": "address",
                    "name": "_user2Address",
                    "type": "address"
                },
                {
                    "internalType": "uint32",
                    "name": "_prodId",
                    "type": "uint32"
                }
            ],
            "name": "transferToOwner",
            "outputs": [
                {
                    "internalType": "bool",
                    "name": "",
                    "type": "bool"
                }
            ],
            "stateMutability": "nonpayable",
            "type": "function"
        }
    ],
    "bytecode": "60806040526001805463ffffffff1916905533600055613760806100246000396000f3fe608060405234801561001057600080fd5b50600436106101215760003560e01c806383a32c55116100ad578063bf712fd611610071578063bf712fd614610e7f578063cc0f95ad1461100b578063e114a17b1461113c578063e5ed9f9214611144578063ff7bb0df1461114c57610121565b806383a32c5514610b5557806389138c0014610bb2578063a8997d2e14610d8d578063b4c333ed14610e00578063b9d93d5f14610e2357610121565b8063297df1cd116100f4578063297df1cd146106ef5780633067227e146106f757806338fdd268146108c957806344e0b8c1146109065780637cb346d014610a6457610121565b8063062c93eb1461012657806309e69ede1461037d5780631a074802146104f657806328d5b69a1461051f575b600080fd5b610364600480360360a081101561013c57600080fd5b810190602081018135600160201b81111561015657600080fd5b82018360208201111561016857600080fd5b803590602001918460018302840111600160201b8311171561018957600080fd5b91908080601f0160208091040260200160405190810160405280939291908181526020018383808284376000920191909152509295949360208101935035915050600160201b8111156101db57600080fd5b8201836020820111156101ed57600080fd5b803590602001918460018302840111600160201b8311171561020e57600080fd5b91908080601f0160208091040260200160405190810160405280939291908181526020018383808284376000920191909152509295949360208101935035915050600160201b81111561026057600080fd5b82018360208201111561027257600080fd5b803590602001918460018302840111600160201b8311171561029357600080fd5b91908080601f016020809104026020016040519081016040528093929190818152602001838380828437600092019190915250929563ffffffff853516959094909350604081019250602001359050600160201b8111156102f357600080fd5b82018360208201111561030557600080fd5b803590602001918460208302840111600160201b8311171561032657600080fd5b919080806020026020016040519081016040528093929190818152602001838360200280828437600092019190915250929550611154945050505050565b6040805163ffffffff9092168252519081900360200190f35b6103a36004803603602081101561039357600080fd5b50356001600160a01b0316611495565b604080516001600160a01b0383166060820152608080825286519082015285519091829160208084019284019160a08501918a019080838360005b838110156103f65781810151838201526020016103de565b50505050905090810190601f1680156104235780820380516001836020036101000a031916815260200191505b50848103835287518152875160209182019189019080838360005b8381101561045657818101518382015260200161043e565b50505050905090810190601f1680156104835780820380516001836020036101000a031916815260200191505b50848103825286518152865160209182019188019080838360005b838110156104b657818101518382015260200161049e565b50505050905090810190601f1680156104e35780820380516001836020036101000a031916815260200191505b5097505050505050505060405180910390f35b6103646004803603604081101561050c57600080fd5b5063ffffffff8135169060200135611675565b6105426004803603602081101561053557600080fd5b503563ffffffff166116bb565b6040805163ffffffff80871660608301526001600160a01b0386166080830152841660a082015260e080825289519082015288519091829160208084019284019160c0850191610100860191908e019080838360005b838110156105b0578181015183820152602001610598565b50505050905090810190601f1680156105dd5780820380516001836020036101000a031916815260200191505b5085810384528b5181528b516020918201918d019080838360005b838110156106105781810151838201526020016105f8565b50505050905090810190601f16801561063d5780820380516001836020036101000a031916815260200191505b5085810383528a5181528a516020918201918c019080838360005b83811015610670578181015183820152602001610658565b50505050905090810190601f16801561069d5780820380516001836020036101000a031916815260200191505b508581038252865181528651602091820191808901910280838360005b838110156106d25781810151838201526020016106ba565b505050509050019b50505050505050505050505060405180910390f35b610364611928565b6108b56004803603608081101561070d57600080fd5b6001600160a01b038235169190810190604081016020820135600160201b81111561073757600080fd5b82018360208201111561074957600080fd5b803590602001918460018302840111600160201b8311171561076a57600080fd5b91908080601f0160208091040260200160405190810160405280939291908181526020018383808284376000920191909152509295949360208101935035915050600160201b8111156107bc57600080fd5b8201836020820111156107ce57600080fd5b803590602001918460018302840111600160201b831117156107ef57600080fd5b91908080601f0160208091040260200160405190810160405280939291908181526020018383808284376000920191909152509295949360208101935035915050600160201b81111561084157600080fd5b82018360208201111561085357600080fd5b803590602001918460018302840111600160201b8311171561087457600080fd5b91908080601f01602080910402602001604051908101604052809392919081815260200183838082843760009201919091525092955061193b945050505050565b604080519115158252519081900360200190f35b6108b5600480360360608110156108df57600080fd5b5080356001600160a01b03908116916020810135909116906040013563ffffffff16611c90565b61092c6004803603602081101561091c57600080fd5b50356001600160a01b0316612b72565b6040518080602001856001600160a01b03166001600160a01b031681526020018060200180602001848103845288818151815260200191508051906020019080838360005b83811015610989578181015183820152602001610971565b50505050905090810190601f1680156109b65780820380516001836020036101000a031916815260200191505b50848103835286518152865160209182019188019080838360005b838110156109e95781810151838201526020016109d1565b50505050905090810190601f168015610a165780820380516001836020036101000a031916815260200191505b508481038252855181528551602091820191808801910280838360005b83811015610a4b578181015183820152602001610a33565b5050505090500197505050505050505060405180910390f35b610a8760048036036020811015610a7a57600080fd5b503563ffffffff16612d1f565b6040518080602001806020018663ffffffff1663ffffffff1681526020018563ffffffff1663ffffffff1681526020018460030b60030b8152602001838103835288818151815260200191508051906020019080838360005b83811015610af8578181015183820152602001610ae0565b50505050905090810190601f168015610b255780820380516001836020036101000a031916815260200191505b508381038252875181528751602091820191890190808383600083156104b657818101518382015260200161049e565b610b7860048036036020811015610b6b57600080fd5b503563ffffffff16612e90565b6040805163ffffffff95861681526001600160a01b0394851660208201529290941682850152909116606082015290519081900360800190f35b610d7160048036036080811015610bc857600080fd5b810190602081018135600160201b811115610be257600080fd5b820183602082011115610bf457600080fd5b803590602001918460018302840111600160201b83111715610c1557600080fd5b91908080601f0160208091040260200160405190810160405280939291908181526020018383808284376000920191909152509295949360208101935035915050600160201b811115610c6757600080fd5b820183602082011115610c7957600080fd5b803590602001918460018302840111600160201b83111715610c9a57600080fd5b91908080601f01602080910402602001604051908101604052809392919081815260200183838082843760009201919091525092956001600160a01b03853516959094909350604081019250602001359050600160201b811115610cfd57600080fd5b820183602082011115610d0f57600080fd5b803590602001918460018302840111600160201b83111715610d3057600080fd5b91908080601f016020809104026020016040519081016040528093929190818152602001838380828437600092019190915250929550612ed1945050505050565b604080516001600160a01b039092168252519081900360200190f35b610db060048036036020811015610da357600080fd5b503563ffffffff16612f8d565b60408051602080825283518183015283519192839290830191858101910280838360005b83811015610dec578181015183820152602001610dd4565b505050509050019250505060405180910390f35b610a8760048036036020811015610e1657600080fd5b503563ffffffff16613022565b610e4660048036036020811015610e3957600080fd5b503563ffffffff1661317f565b6040805163ffffffff95861681526001600160a01b03948516602082015292909316828401529092166060830152519081900360800190f35b610ea260048036036020811015610e9557600080fd5b503563ffffffff166131fc565b604080516001600160a01b038516606082015263ffffffff8085166080830152831660a082015260c080825288519082015287519091829160208084019284019160e08501918c019080838360005b83811015610f09578181015183820152602001610ef1565b50505050905090810190601f168015610f365780820380516001836020036101000a031916815260200191505b5084810383528951815289516020918201918b019080838360005b83811015610f69578181015183820152602001610f51565b50505050905090810190601f168015610f965780820380516001836020036101000a031916815260200191505b5084810382528851815288516020918201918a019080838360005b83811015610fc9578181015183820152602001610fb1565b50505050905090810190601f168015610ff65780820380516001836020036101000a031916815260200191505b50995050505050505050505060405180910390f35b6103646004803603606081101561102157600080fd5b810190602081018135600160201b81111561103b57600080fd5b82018360208201111561104d57600080fd5b803590602001918460018302840111600160201b8311171561106e57600080fd5b91908080601f0160208091040260200160405190810160405280939291908181526020018383808284376000920191909152509295949360208101935035915050600160201b8111156110c057600080fd5b8201836020820111156110d257600080fd5b803590602001918460018302840111600160201b831117156110f357600080fd5b91908080601f0160208091040260200160405190810160405280939291908181526020018383808284376000920191909152509295505050903563ffffffff1691506133f59050565b6103646135bb565b6103646135ce565b6103646135e1565b604080516b26b0b73ab330b1ba3ab932b960a11b8152815190819003600c018120336000908152600460209081529381206002908101805492959394909301918291849160001961010060018316150201160480156111ea5780601f106111c85761010080835404028352918201916111ea565b820191906000526020600020905b8154815290600101906020018083116111d6575b5050915050604051602081830303815290604052805190602001201415611488576000805463ffffffff60c01b198116600160c01b9182900463ffffffff90811660018181018316909402929092178455825463ffffffff198116908216808501909216179092558083526003602090815260409093208951919361127292908b01906135ed565b5063ffffffff82166000908152600360209081526040909120885161129f926001909201918a01906135ed565b5063ffffffff8216600090815260036020908152604090912087516112cc926002909201918901906135ed565b5063ffffffff8281166000818152600360208181526040808420808401805463ffffffff60a01b1916600160a01b8e8a1602178082553387526004808652938720860154979096529383526001600160a01b039095166001600160a01b03199094169390931763ffffffff60c01b1916600160c01b429096169590950294909417905586516113639391909201919087019061366b565b5060005b84518163ffffffff1610156113db576000858263ffffffff168151811061138a57fe5b60209081029190910181015163ffffffff9081166000908152600292839052604090209091018054600387900b909216600160401b0263ffffffff60401b1990921691909117905550600101611367565b5063ffffffff90811660008181526005602090815260408083208054600180830180546001600160a01b03191633908117909155428916600160c01b0263ffffffff60c01b19600160201b909202640100000000600160c01b03198b8d1663ffffffff1990961686171617919091161790925584526006835290832080549182018155835291206008820401805460079092166004026101000a928302929093021916179055905061148c565b5060005b95945050505050565b60046020908152600091825260409182902080548351601f6002600019610100600186161502019093169290920491820184900484028101840190945280845290929183919083018282801561152c5780601f106115015761010080835404028352916020019161152c565b820191906000526020600020905b81548152906001019060200180831161150f57829003601f168201915b505050505090806001018054600181600116156101000203166002900480601f0160208091040260200160405190810160405280929190818152602001828054600181600116156101000203166002900480156115ca5780601f1061159f576101008083540402835291602001916115ca565b820191906000526020600020905b8154815290600101906020018083116115ad57829003601f168201915b50505060028085018054604080516020601f600019610100600187161502019094169590950492830185900485028101850190915281815295969594509092509083018282801561165c5780601f106116315761010080835404028352916020019161165c565b820191906000526020600020905b81548152906001019060200180831161163f57829003601f168201915b505050600390930154919250506001600160a01b031684565b6006602052816000526040600020818154811061168e57fe5b9060005260206000209060089182820401919006600402915091509054906101000a900463ffffffff1681565b63ffffffff8181166000908152600360208181526040808420928301548354825160026101006001808516159190910260001901909316819004601f8101879004870283018701909552848252606098899889989097889788978b97939693870195870194600160a01b82048116946001600160a01b03831694600160c01b90930490911692600489019289919083018282801561179a5780601f1061176f5761010080835404028352916020019161179a565b820191906000526020600020905b81548152906001019060200180831161177d57829003601f168201915b5050895460408051602060026001851615610100026000190190941693909304601f8101849004840282018401909252818152959c508b9450925084019050828280156118285780601f106117fd57610100808354040283529160200191611828565b820191906000526020600020905b81548152906001019060200180831161180b57829003601f168201915b5050885460408051602060026001851615610100026000190190941693909304601f8101849004840282018401909252818152959b508a9450925084019050828280156118b65780601f1061188b576101008083540402835291602001916118b6565b820191906000526020600020905b81548152906001019060200180831161189957829003601f168201915b505050505094508080548060200260200160405190810160405280929190818152602001828054801561190857602002820191906000526020600020905b8154815260200190600101908083116118f4575b505050505090509650965096509650965096509650919395979092949650565b600054600160c01b900463ffffffff1681565b6000816040516020018082805190602001908083835b602083106119705780518252601f199092019160209182019101611951565b6001836020036101000a0380198251168184511680821785525050505050509050019150506040516020818303038152906040528051906020012060046000876001600160a01b03166001600160a01b031681526020019081526020016000206002016040516020018082805460018160011615610100020316600290048015611a315780601f10611a0f576101008083540402835291820191611a31565b820191906000526020600020905b815481529060010190602001808311611a1d575b5050915050604051602081830303815290604052805190602001201415611c8457836040516020018082805190602001908083835b60208310611a855780518252601f199092019160209182019101611a66565b6001836020036101000a0380198251168184511680821785525050505050509050019150506040516020818303038152906040528051906020012060046000876001600160a01b03166001600160a01b031681526020019081526020016000206000016040516020018082805460018160011615610100020316600290048015611b465780601f10611b24576101008083540402835291820191611b46565b820191906000526020600020905b815481529060010190602001808311611b32575b5050915050604051602081830303815290604052805190602001201415611c8457826040516020018082805190602001908083835b60208310611b9a5780518252601f199092019160209182019101611b7b565b6001836020036101000a0380198251168184511680821785525050505050509050019150506040516020818303038152906040528051906020012060046000876001600160a01b03166001600160a01b031681526020019081526020016000206001016040516020018082805460018160011615610100020316600290048015611c5b5780601f10611c39576101008083540402835291820191611c5b565b820191906000526020600020905b815481529060010190602001808311611c47575b5050915050604051602081830303815290604052805190602001201415611c8457506001611c88565b5060005b949350505050565b63ffffffff811660009081526003602081905260408220015482906001600160a01b03163314611cbf57600080fd5b611cc76136ae565b6001600160a01b0386166000908152600460209081526040918290208251815460026001821615610100026000190190911604601f8101849004909302810160c090810190945260a08101838152909391928492849190840182828015611d6f5780601f10611d4457610100808354040283529160200191611d6f565b820191906000526020600020905b815481529060010190602001808311611d5257829003601f168201915b50505050508152602001600182018054600181600116156101000203166002900480601f016020809104026020016040519081016040528092919081815260200182805460018160011615610100020316600290048015611e115780601f10611de657610100808354040283529160200191611e11565b820191906000526020600020905b815481529060010190602001808311611df457829003601f168201915b5050509183525050600282810180546040805160206001841615610100026000190190931694909404601f81018390048302850183019091528084529381019390830182828015611ea35780601f10611e7857610100808354040283529160200191611ea3565b820191906000526020600020905b815481529060010190602001808311611e8657829003601f168201915b505050918352505060038201546001600160a01b03166020808301919091526004830180546040805182850281018501825282815294019392830182828015611f0b57602002820191906000526020600020905b815481526020019060010190808311611ef7575b5050505050815250509050611f1e6136ae565b6001600160a01b0386166000908152600460209081526040918290208251815460026001821615610100026000190190911604601f8101849004909302810160c090810190945260a08101838152909391928492849190840182828015611fc65780601f10611f9b57610100808354040283529160200191611fc6565b820191906000526020600020905b815481529060010190602001808311611fa957829003601f168201915b50505050508152602001600182018054600181600116156101000203166002900480601f0160208091040260200160405190810160405280929190818152602001828054600181600116156101000203166002900480156120685780601f1061203d57610100808354040283529160200191612068565b820191906000526020600020905b81548152906001019060200180831161204b57829003601f168201915b5050509183525050600282810180546040805160206001841615610100026000190190931694909404601f810183900483028501830190915280845293810193908301828280156120fa5780601f106120cf576101008083540402835291602001916120fa565b820191906000526020600020905b8154815290600101906020018083116120dd57829003601f168201915b505050918352505060038201546001600160a01b0316602080830191909152600483018054604080518285028101850182528281529401939283018282801561216257602002820191906000526020600020905b81548152602001906001019080831161214e575b5050509190925250506001805463ffffffff19811663ffffffff91821680840190921617909155604080516b26b0b73ab330b1ba3ab932b960a11b81528151600c91819003919091018120918701518051959650929491935060209081019182918401908083835b602083106121e95780518252601f1990920191602091820191016121ca565b6001836020036101000a038019825116818451168082178552505050505050905001915050604051602081830303815290604052805190602001201480156122bc5750604080516729bab8383634b2b960c11b81528151908190036008018120918401518051909160209081019182918401908083835b6020831061227f5780518252601f199092019160209182019101612260565b6001836020036101000a03801982511681845116808217855250505050505090500191505060405160208183030381529060405280519060200120145b156124da5785600560008363ffffffff1663ffffffff16815260200190815260200160002060000160006101000a81548163ffffffff021916908363ffffffff1602179055508160600151600560008363ffffffff1663ffffffff16815260200190815260200160002060010160006101000a8154816001600160a01b0302191690836001600160a01b0316021790555086600560008363ffffffff1663ffffffff16815260200190815260200160002060000160046101000a8154816001600160a01b0302191690836001600160a01b0316021790555042600560008363ffffffff1663ffffffff16815260200190815260200160002060000160186101000a81548163ffffffff021916908363ffffffff1602179055508160600151600360008863ffffffff1663ffffffff16815260200190815260200160002060030160006101000a8154816001600160a01b0302191690836001600160a01b03160217905550600660008763ffffffff1663ffffffff1681526020019081526020016000208190806001815401808255809150506001900390600052602060002090600891828204019190066004029091909190916101000a81548163ffffffff021916908363ffffffff1602179055507f4a7c2ed8675655246e11580786ba8a73e92e426d177368a8697ead49925146c286604051808263ffffffff1663ffffffff16815260200191505060405180910390a160019450505050612b6a565b604080516729bab8383634b2b960c11b81528151908190036008018120918501518051909160209081019182918401908083835b6020831061252d5780518252601f19909201916020918201910161250e565b6001836020036101000a038019825116818451168082178552505050505050905001915050604051602081830303815290604052805190602001201480156126005750604080516729bab8383634b2b960c11b81528151908190036008018120918401518051909160209081019182918401908083835b602083106125c35780518252601f1990920191602091820191016125a4565b6001836020036101000a03801982511681845116808217855250505050505090500191505060405160208183030381529060405280519060200120145b1561281e5785600560008363ffffffff1663ffffffff16815260200190815260200160002060000160006101000a81548163ffffffff021916908363ffffffff1602179055508160600151600560008363ffffffff1663ffffffff16815260200190815260200160002060010160006101000a8154816001600160a01b0302191690836001600160a01b0316021790555086600560008363ffffffff1663ffffffff16815260200190815260200160002060000160046101000a8154816001600160a01b0302191690836001600160a01b0316021790555042600560008363ffffffff1663ffffffff16815260200190815260200160002060000160186101000a81548163ffffffff021916908363ffffffff1602179055508160600151600360008863ffffffff1663ffffffff16815260200190815260200160002060030160006101000a8154816001600160a01b0302191690836001600160a01b03160217905550600660008763ffffffff1663ffffffff1681526020019081526020016000208190806001815401808255809150506001900390600052602060002090600891828204019190066004029091909190916101000a81548163ffffffff021916908363ffffffff1602179055507f4a7c2ed8675655246e11580786ba8a73e92e426d177368a8697ead49925146c286604051808263ffffffff1663ffffffff16815260200191505060405180910390a160019450505050612b6a565b604080516729bab8383634b2b960c11b81528151908190036008018120918501518051909160209081019182918401908083835b602083106128715780518252601f199092019160209182019101612852565b6001836020036101000a038019825116818451168082178552505050505050905001915050604051602081830303815290604052805190602001201480156129445750604080516721b7b739bab6b2b960c11b81528151908190036008018120918401518051909160209081019182918401908083835b602083106129075780518252601f1990920191602091820191016128e8565b6001836020036101000a03801982511681845116808217855250505050505090500191505060405160208183030381529060405280519060200120145b15612b625785600560008363ffffffff1663ffffffff16815260200190815260200160002060000160006101000a81548163ffffffff021916908363ffffffff1602179055508160600151600560008363ffffffff1663ffffffff16815260200190815260200160002060010160006101000a8154816001600160a01b0302191690836001600160a01b0316021790555086600560008363ffffffff1663ffffffff16815260200190815260200160002060000160046101000a8154816001600160a01b0302191690836001600160a01b0316021790555042600560008363ffffffff1663ffffffff16815260200190815260200160002060000160186101000a81548163ffffffff021916908363ffffffff1602179055508160600151600360008863ffffffff1663ffffffff16815260200190815260200160002060030160006101000a8154816001600160a01b0302191690836001600160a01b03160217905550600660008763ffffffff1663ffffffff1681526020019081526020016000208190806001815401808255809150506001900390600052602060002090600891828204019190066004029091909190916101000a81548163ffffffff021916908363ffffffff1602179055507f4a7c2ed8675655246e11580786ba8a73e92e426d177368a8697ead49925146c286604051808263ffffffff1663ffffffff16815260200191505060405180910390a160019450505050612b6a565b600094505050505b509392505050565b6001600160a01b038181166000908152600460208181526040808420600381015481548351600261010060018416150260001901909216829004601f810187900487028201870190955284815260609889978897959694909116949286019390860192869190830182828015612c295780601f10612bfe57610100808354040283529160200191612c29565b820191906000526020600020905b815481529060010190602001808311612c0c57829003601f168201915b5050855460408051602060026001851615610100026000190190941693909304601f810184900484028201840190925281815295995087945092508401905082828015612cb75780601f10612c8c57610100808354040283529160200191612cb7565b820191906000526020600020905b815481529060010190602001808311612c9a57829003601f168201915b5050505050915080805480602002602001604051908101604052809291908181526020018280548015612d0957602002820191906000526020600020905b815481526020019060010190808311612cf5575b5050505050905093509350935093509193509193565b63ffffffff81811660009081526002602081815260408084208084015481548351610100600180841615919091026000190190921696909604601f8101869004860287018601909452838652606097889796879687969386019480841694600160201b820490941693600160401b90910460030b9291879190830182828015612de95780601f10612dbe57610100808354040283529160200191612de9565b820191906000526020600020905b815481529060010190602001808311612dcc57829003601f168201915b5050875460408051602060026001851615610100026000190190941693909304601f8101849004840282018401909252818152959a5089945092508401905082828015612e775780601f10612e4c57610100808354040283529160200191612e77565b820191906000526020600020905b815481529060010190602001808311612e5a57829003601f168201915b50989f939e50959c50939a509198509650505050505050565b6005602052600090815260409020805460019091015463ffffffff808316926001600160a01b03600160201b8204811693600160c01b909204909216911684565b33600090815260046020908152604082208651612ef0928801906135ed565b503360009081526004602090815260409091208551612f17926001909201918701906135ed565b503360009081526004602090815260409091206003810180546001600160a01b0319166001600160a01b0387161790558351612f5b926002909201918501906135ed565b5050600080546001600160e01b038116600160e01b9182900463ffffffff908116600101169091021790555092915050565b63ffffffff811660009081526006602090815260409182902080548351818402810184019094528084526060939283018282801561301657602002820191906000526020600020906000905b82829054906101000a900463ffffffff1663ffffffff1681526020019060040190602082600301049283019260010382029150808411612fd95790505b50505050509050919050565b600260208181526000928352604092839020805484516001821615610100026000190190911693909304601f81018390048302840183019094528383529283918301828280156130b35780601f10613088576101008083540402835291602001916130b3565b820191906000526020600020905b81548152906001019060200180831161309657829003601f168201915b505050505090806001018054600181600116156101000203166002900480601f0160208091040260200160405190810160405280929190818152602001828054600181600116156101000203166002900480156131515780601f1061312657610100808354040283529160200191613151565b820191906000526020600020905b81548152906001019060200180831161313457829003601f168201915b5050506002909301549192505063ffffffff80821691600160201b810490911690600160401b900460030b85565b60008060008061318d6136e6565b5050505063ffffffff918216600090815260056020908152604091829020825160808101845281548087168083526001600160a01b03600160201b83048116958401869052600160c01b9092049097169482018590526001909201549091166060909101819052939490939250565b60036020908152600091825260409182902080548351601f600260001961010060018616150201909316929092049182018490048402810184019094528084529092918391908301828280156132935780601f1061326857610100808354040283529160200191613293565b820191906000526020600020905b81548152906001019060200180831161327657829003601f168201915b505050505090806001018054600181600116156101000203166002900480601f0160208091040260200160405190810160405280929190818152602001828054600181600116156101000203166002900480156133315780601f1061330657610100808354040283529160200191613331565b820191906000526020600020905b81548152906001019060200180831161331457829003601f168201915b50505060028085018054604080516020601f60001961010060018716150201909416959095049283018590048502810185019091528181529596959450909250908301828280156133c35780601f10613398576101008083540402835291602001916133c3565b820191906000526020600020905b8154815290600101906020018083116133a657829003601f168201915b505050600390930154919250506001600160a01b0381169063ffffffff600160a01b8204811691600160c01b90041686565b604080516b26b0b73ab330b1ba3ab932b960a11b8152815190819003600c0181203360009081526004602090815293812060029081018054929593949093019182918491600019610100600183161502011604801561348b5780601f1061346957610100808354040283529182019161348b565b820191906000526020600020905b815481529060010190602001808311613477575b50509150506040516020818303038152906040528051906020012014156135b0576000805463ffffffff60a01b198116600160a01b9182900463ffffffff90811660018101909116909202178255808252600260209081526040909220865191926134f992908801906135ed565b5063ffffffff811660009081526002602090815260409091208551613526926001909201918701906135ed565b5063ffffffff8082166000818152600260208181526040808420909201805463ffffffff60401b19428816600160201b0267ffffffff0000000019988c1663ffffffff19909316929092179790971617959095166bffffffff00000000000000001790945533825260048085529082200180546001810182559082529290209091015590506135b4565b5060005b9392505050565b600054600160e01b900463ffffffff1681565b600054600160a01b900463ffffffff1681565b60015463ffffffff1681565b828054600181600116156101000203166002900490600052602060002090601f016020900481019282601f1061362e57805160ff191683800117855561365b565b8280016001018555821561365b579182015b8281111561365b578251825591602001919060010190613640565b5061366792915061370d565b5090565b82805482825590600052602060002090810192821561365b579160200282015b8281111561365b578251829063ffffffff1690559160200191906001019061368b565b6040518060a0016040528060608152602001606081526020016060815260200160006001600160a01b03168152602001606081525090565b60408051608081018252600080825260208201819052918101829052606081019190915290565b61372791905b808211156136675760008155600101613713565b9056fea264697066735822122041afe36e384d260f8663d8bc72af580cfddd0c382ad7c9f47ae29562d6b17ec064736f6c63430006040033",
    "sourcePath": "c:/Users/Laptop001/vue-chain/truffle/contracts/SupplyChainLogic_3.sol",
    "compiler": {
        "name": "solc",
        "version": "0.6.4+commit.1dca32f3"
    },
    "functionHashes": {
        "authenticateParticipant(address,string,string,string)": "3067227e",
        "createPart(string,string,uint32)": "cc0f95ad",
        "createParticipant(string,string,address,string)": "89138c00",
        "createProduct(string,string,string,uint32,uint32[])": "062c93eb",
        "getPartDetails(uint32)": "7cb346d0",
        "getParticipantDetails(address)": "44e0b8c1",
        "getProductDetails(uint32)": "28d5b69a",
        "getProductTrack(uint32)": "a8997d2e",
        "getRegistrationDetails(uint32)": "b9d93d5f",
        "part_counter()": "e5ed9f92",
        "participant_counter()": "e114a17b",
        "participants(address)": "09e69ede",
        "parts(uint32)": "b4c333ed",
        "productTrack(uint32,uint256)": "1a074802",
        "product_counter()": "297df1cd",
        "products(uint32)": "bf712fd6",
        "registration_counter()": "ff7bb0df",
        "registrations(uint32)": "83a32c55",
        "transferToOwner(address,address,uint32)": "38fdd268"
    },
    "gasEstimates": {
        "creation": {
            "codeDepositCost": "2835200",
            "executionCost": "43891",
            "totalCost": "2879091"
        },
        "external": {
            "authenticateParticipant(address,string,string,string)": "infinite",
            "createPart(string,string,uint32)": "infinite",
            "createParticipant(string,string,address,string)": "infinite",
            "createProduct(string,string,string,uint32,uint32[])": "infinite",
            "getPartDetails(uint32)": "infinite",
            "getParticipantDetails(address)": "infinite",
            "getProductDetails(uint32)": "infinite",
            "getProductTrack(uint32)": "infinite",
            "getRegistrationDetails(uint32)": "2511",
            "part_counter()": "1118",
            "participant_counter()": "1096",
            "participants(address)": "infinite",
            "parts(uint32)": "infinite",
            "productTrack(uint32,uint256)": "3763",
            "product_counter()": "1053",
            "products(uint32)": "infinite",
            "registration_counter()": "1123",
            "registrations(uint32)": "2143",
            "transferToOwner(address,address,uint32)": "infinite"
        }
    }
}