{
  "contractName": "ModifiedSupplyChain",
  "abi": [
    {
      "inputs": [],
      "stateMutability": "nonpayable",
      "type": "constructor"
    },
    {
      "anonymous": false,
      "inputs": [
        {
          "indexed": false,
          "internalType": "uint32",
          "name": "productId",
          "type": "uint32"
        }
      ],
      "name": "Transfer",
      "type": "event"
    },
    {
      "inputs": [],
      "name": "participant_counter",
      "outputs": [
        {
          "internalType": "uint32",
          "name": "",
          "type": "uint32"
        }
      ],
      "stateMutability": "view",
      "type": "function",
      "constant": true
    },
    {
      "inputs": [
        {
          "internalType": "address",
          "name": "",
          "type": "address"
        }
      ],
      "name": "participants",
      "outputs": [
        {
          "internalType": "string",
          "name": "userName",
          "type": "string"
        },
        {
          "internalType": "string",
          "name": "password",
          "type": "string"
        },
        {
          "internalType": "string",
          "name": "participantType",
          "type": "string"
        },
        {
          "internalType": "address",
          "name": "participantAddress",
          "type": "address"
        }
      ],
      "stateMutability": "view",
      "type": "function",
      "constant": true
    },
    {
      "inputs": [
        {
          "internalType": "uint32",
          "name": "",
          "type": "uint32"
        },
        {
          "internalType": "uint256",
          "name": "",
          "type": "uint256"
        }
      ],
      "name": "productTrack",
      "outputs": [
        {
          "internalType": "uint32",
          "name": "",
          "type": "uint32"
        }
      ],
      "stateMutability": "view",
      "type": "function",
      "constant": true
    },
    {
      "inputs": [],
      "name": "product_counter",
      "outputs": [
        {
          "internalType": "uint32",
          "name": "",
          "type": "uint32"
        }
      ],
      "stateMutability": "view",
      "type": "function",
      "constant": true
    },
    {
      "inputs": [
        {
          "internalType": "uint32",
          "name": "",
          "type": "uint32"
        }
      ],
      "name": "products",
      "outputs": [
        {
          "internalType": "string",
          "name": "modelNumber",
          "type": "string"
        },
        {
          "internalType": "string",
          "name": "partNumber",
          "type": "string"
        },
        {
          "internalType": "string",
          "name": "serialNumber",
          "type": "string"
        },
        {
          "internalType": "address",
          "name": "productOwner",
          "type": "address"
        },
        {
          "internalType": "uint32",
          "name": "cost",
          "type": "uint32"
        },
        {
          "internalType": "uint32",
          "name": "mfgTimeStamp",
          "type": "uint32"
        }
      ],
      "stateMutability": "view",
      "type": "function",
      "constant": true
    },
    {
      "inputs": [],
      "name": "registration_counter",
      "outputs": [
        {
          "internalType": "uint32",
          "name": "",
          "type": "uint32"
        }
      ],
      "stateMutability": "view",
      "type": "function",
      "constant": true
    },
    {
      "inputs": [
        {
          "internalType": "uint32",
          "name": "",
          "type": "uint32"
        }
      ],
      "name": "registrations",
      "outputs": [
        {
          "internalType": "uint32",
          "name": "productId",
          "type": "uint32"
        },
        {
          "internalType": "address",
          "name": "ownerAddress",
          "type": "address"
        },
        {
          "internalType": "uint32",
          "name": "trxTimeStamp",
          "type": "uint32"
        },
        {
          "internalType": "address",
          "name": "productOwner",
          "type": "address"
        }
      ],
      "stateMutability": "view",
      "type": "function",
      "constant": true
    },
    {
      "inputs": [
        {
          "internalType": "string",
          "name": "_name",
          "type": "string"
        },
        {
          "internalType": "string",
          "name": "_pass",
          "type": "string"
        },
        {
          "internalType": "address",
          "name": "_pAdd",
          "type": "address"
        },
        {
          "internalType": "string",
          "name": "_pType",
          "type": "string"
        }
      ],
      "name": "createParticipant",
      "outputs": [
        {
          "internalType": "address",
          "name": "",
          "type": "address"
        }
      ],
      "stateMutability": "nonpayable",
      "type": "function"
    },
    {
      "inputs": [
        {
          "internalType": "address",
          "name": "_p_address",
          "type": "address"
        }
      ],
      "name": "getParticipantDetails",
      "outputs": [
        {
          "internalType": "string",
          "name": "",
          "type": "string"
        },
        {
          "internalType": "address",
          "name": "",
          "type": "address"
        },
        {
          "internalType": "string",
          "name": "",
          "type": "string"
        }
      ],
      "stateMutability": "view",
      "type": "function",
      "constant": true
    },
    {
      "inputs": [
        {
          "internalType": "string",
          "name": "_modelNumber",
          "type": "string"
        },
        {
          "internalType": "string",
          "name": "_partNumber",
          "type": "string"
        },
        {
          "internalType": "string",
          "name": "_serialNumber",
          "type": "string"
        },
        {
          "internalType": "uint32",
          "name": "_productCost",
          "type": "uint32"
        }
      ],
      "name": "createProduct",
      "outputs": [
        {
          "internalType": "uint32",
          "name": "",
          "type": "uint32"
        }
      ],
      "stateMutability": "nonpayable",
      "type": "function"
    },
    {
      "inputs": [
        {
          "internalType": "uint32",
          "name": "_productId",
          "type": "uint32"
        }
      ],
      "name": "getProductDetails",
      "outputs": [
        {
          "internalType": "string",
          "name": "",
          "type": "string"
        },
        {
          "internalType": "string",
          "name": "",
          "type": "string"
        },
        {
          "internalType": "string",
          "name": "",
          "type": "string"
        },
        {
          "internalType": "uint32",
          "name": "",
          "type": "uint32"
        },
        {
          "internalType": "address",
          "name": "",
          "type": "address"
        },
        {
          "internalType": "uint32",
          "name": "",
          "type": "uint32"
        }
      ],
      "stateMutability": "view",
      "type": "function",
      "constant": true
    },
    {
      "inputs": [
        {
          "internalType": "address",
          "name": "_user1Address",
          "type": "address"
        },
        {
          "internalType": "address",
          "name": "_user2Address",
          "type": "address"
        },
        {
          "internalType": "uint32",
          "name": "_prodId",
          "type": "uint32"
        }
      ],
      "name": "transferToOwner",
      "outputs": [
        {
          "internalType": "bool",
          "name": "",
          "type": "bool"
        }
      ],
      "stateMutability": "nonpayable",
      "type": "function"
    },
    {
      "inputs": [
        {
          "internalType": "uint32",
          "name": "_prodId",
          "type": "uint32"
        }
      ],
      "name": "getProductTrack",
      "outputs": [
        {
          "internalType": "uint32[]",
          "name": "",
          "type": "uint32[]"
        }
      ],
      "stateMutability": "view",
      "type": "function",
      "constant": true
    },
    {
      "inputs": [
        {
          "internalType": "uint32",
          "name": "_regId",
          "type": "uint32"
        }
      ],
      "name": "getRegistrationDetails",
      "outputs": [
        {
          "internalType": "uint32",
          "name": "",
          "type": "uint32"
        },
        {
          "internalType": "address",
          "name": "",
          "type": "address"
        },
        {
          "internalType": "address",
          "name": "",
          "type": "address"
        },
        {
          "internalType": "uint32",
          "name": "",
          "type": "uint32"
        }
      ],
      "stateMutability": "view",
      "type": "function",
      "constant": true
    },
    {
      "inputs": [
        {
          "internalType": "address",
          "name": "_uAddress",
          "type": "address"
        },
        {
          "internalType": "string",
          "name": "_uname",
          "type": "string"
        },
        {
          "internalType": "string",
          "name": "_pass",
          "type": "string"
        },
        {
          "internalType": "string",
          "name": "_utype",
          "type": "string"
        }
      ],
      "name": "authenticateParticipant",
      "outputs": [
        {
          "internalType": "bool",
          "name": "",
          "type": "bool"
        }
      ],
      "stateMutability": "view",
      "type": "function",
      "constant": true
    }
  ],
  "bytecode": "0x608060405260008060006101000a81548163ffffffff021916908363ffffffff16021790555060008060046101000a81548163ffffffff021916908363ffffffff16021790555060008060086101000a81548163ffffffff021916908363ffffffff16021790555034801561007357600080fd5b50613bdb806100836000396000f3fe608060405234801561001057600080fd5b5060043610610112576000357c01000000000000000000000000000000000000000000000000000000009004806344e0b8c1116100b4578063b9d93d5f11610083578063b9d93d5f14610f06578063bf712fd614610fd3578063e114a17b146111b1578063ff7bb0df146111db57610112565b806344e0b8c114610a0b57806383a32c5514610b6757806389138c0014610c34578063a8997d2e14610e7d57610112565b806328d5b69a116100f057806328d5b69a14610556578063297df1cd146107345780633067227e1461075e57806338fdd2681461097f57610112565b806309e69ede146101175780631169559e146102df5780631a074802146104f8575b600080fd5b6101596004803603602081101561012d57600080fd5b81019080803573ffffffffffffffffffffffffffffffffffffffff169060200190929190505050611205565b604051808060200180602001806020018573ffffffffffffffffffffffffffffffffffffffff1673ffffffffffffffffffffffffffffffffffffffff168152602001848103845288818151815260200191508051906020019080838360005b838110156101d35780820151818401526020810190506101b8565b50505050905090810190601f1680156102005780820380516001836020036101000a031916815260200191505b50848103835287818151815260200191508051906020019080838360005b8381101561023957808201518184015260208101905061021e565b50505050905090810190601f1680156102665780820380516001836020036101000a031916815260200191505b50848103825286818151815260200191508051906020019080838360005b8381101561029f578082015181840152602081019050610284565b50505050905090810190601f1680156102cc5780820380516001836020036101000a031916815260200191505b5097505050505050505060405180910390f35b6104d6600480360360808110156102f557600080fd5b810190808035906020019064010000000081111561031257600080fd5b82018360208201111561032457600080fd5b8035906020019184600183028401116401000000008311171561034657600080fd5b91908080601f016020809104026020016040519081016040528093929190818152602001838380828437600081840152601f19601f820116905080830192505050505050509192919290803590602001906401000000008111156103a957600080fd5b8201836020820111156103bb57600080fd5b803590602001918460018302840111640100000000831117156103dd57600080fd5b91908080601f016020809104026020016040519081016040528093929190818152602001838380828437600081840152601f19601f8201169050808301925050505050505091929192908035906020019064010000000081111561044057600080fd5b82018360208201111561045257600080fd5b8035906020019184600183028401116401000000008311171561047457600080fd5b91908080601f016020809104026020016040519081016040528093929190818152602001838380828437600081840152601f19601f820116905080830192505050505050509192919290803563ffffffff16906020019092919050505061141d565b604051808263ffffffff1663ffffffff16815260200191505060405180910390f35b6105346004803603604081101561050e57600080fd5b81019080803563ffffffff16906020019092919080359060200190929190505050611940565b604051808263ffffffff1663ffffffff16815260200191505060405180910390f35b6105886004803603602081101561056c57600080fd5b81019080803563ffffffff169060200190929190505050611986565b604051808060200180602001806020018763ffffffff1663ffffffff1681526020018673ffffffffffffffffffffffffffffffffffffffff1673ffffffffffffffffffffffffffffffffffffffff1681526020018563ffffffff1663ffffffff16815260200184810384528a818151815260200191508051906020019080838360005b8381101561062657808201518184015260208101905061060b565b50505050905090810190601f1680156106535780820380516001836020036101000a031916815260200191505b50848103835289818151815260200191508051906020019080838360005b8381101561068c578082015181840152602081019050610671565b50505050905090810190601f1680156106b95780820380516001836020036101000a031916815260200191505b50848103825288818151815260200191508051906020019080838360005b838110156106f25780820151818401526020810190506106d7565b50505050905090810190601f16801561071f5780820380516001836020036101000a031916815260200191505b50995050505050505050505060405180910390f35b61073c611c88565b604051808263ffffffff1663ffffffff16815260200191505060405180910390f35b6109656004803603608081101561077457600080fd5b81019080803573ffffffffffffffffffffffffffffffffffffffff169060200190929190803590602001906401000000008111156107b157600080fd5b8201836020820111156107c357600080fd5b803590602001918460018302840111640100000000831117156107e557600080fd5b91908080601f016020809104026020016040519081016040528093929190818152602001838380828437600081840152601f19601f8201169050808301925050505050505091929192908035906020019064010000000081111561084857600080fd5b82018360208201111561085a57600080fd5b8035906020019184600183028401116401000000008311171561087c57600080fd5b91908080601f016020809104026020016040519081016040528093929190818152602001838380828437600081840152601f19601f820116905080830192505050505050509192919290803590602001906401000000008111156108df57600080fd5b8201836020820111156108f157600080fd5b8035906020019184600183028401116401000000008311171561091357600080fd5b91908080601f016020809104026020016040519081016040528093929190818152602001838380828437600081840152601f19601f820116905080830192505050505050509192919290505050611c9d565b604051808215151515815260200191505060405180910390f35b6109f16004803603606081101561099557600080fd5b81019080803573ffffffffffffffffffffffffffffffffffffffff169060200190929190803573ffffffffffffffffffffffffffffffffffffffff169060200190929190803563ffffffff169060200190929190505050612050565b604051808215151515815260200191505060405180910390f35b610a4d60048036036020811015610a2157600080fd5b81019080803573ffffffffffffffffffffffffffffffffffffffff1690602001909291905050506131a4565b60405180806020018473ffffffffffffffffffffffffffffffffffffffff1673ffffffffffffffffffffffffffffffffffffffff16815260200180602001838103835286818151815260200191508051906020019080838360005b83811015610ac3578082015181840152602081019050610aa8565b50505050905090810190601f168015610af05780820380516001836020036101000a031916815260200191505b50838103825284818151815260200191508051906020019080838360005b83811015610b29578082015181840152602081019050610b0e565b50505050905090810190601f168015610b565780820380516001836020036101000a031916815260200191505b509550505050505060405180910390f35b610b9960048036036020811015610b7d57600080fd5b81019080803563ffffffff1690602001909291905050506133d6565b604051808563ffffffff1663ffffffff1681526020018473ffffffffffffffffffffffffffffffffffffffff1673ffffffffffffffffffffffffffffffffffffffff1681526020018363ffffffff1663ffffffff1681526020018273ffffffffffffffffffffffffffffffffffffffff1673ffffffffffffffffffffffffffffffffffffffff16815260200194505050505060405180910390f35b610e3b60048036036080811015610c4a57600080fd5b8101908080359060200190640100000000811115610c6757600080fd5b820183602082011115610c7957600080fd5b80359060200191846001830284011164010000000083111715610c9b57600080fd5b91908080601f016020809104026020016040519081016040528093929190818152602001838380828437600081840152601f19601f82011690508083019250505050505050919291929080359060200190640100000000811115610cfe57600080fd5b820183602082011115610d1057600080fd5b80359060200191846001830284011164010000000083111715610d3257600080fd5b91908080601f016020809104026020016040519081016040528093929190818152602001838380828437600081840152601f19601f820116905080830192505050505050509192919290803573ffffffffffffffffffffffffffffffffffffffff16906020019092919080359060200190640100000000811115610db557600080fd5b820183602082011115610dc757600080fd5b80359060200191846001830284011164010000000083111715610de957600080fd5b91908080601f016020809104026020016040519081016040528093929190818152602001838380828437600081840152601f19601f820116905080830192505050505050509192919290505050613466565b604051808273ffffffffffffffffffffffffffffffffffffffff1673ffffffffffffffffffffffffffffffffffffffff16815260200191505060405180910390f35b610eaf60048036036020811015610e9357600080fd5b81019080803563ffffffff1690602001909291905050506135f9565b6040518080602001828103825283818151815260200191508051906020019060200280838360005b83811015610ef2578082015181840152602081019050610ed7565b505050509050019250505060405180910390f35b610f3860048036036020811015610f1c57600080fd5b81019080803563ffffffff16906020019092919050505061369c565b604051808563ffffffff1663ffffffff1681526020018473ffffffffffffffffffffffffffffffffffffffff1673ffffffffffffffffffffffffffffffffffffffff1681526020018373ffffffffffffffffffffffffffffffffffffffff1673ffffffffffffffffffffffffffffffffffffffff1681526020018263ffffffff1663ffffffff16815260200194505050505060405180910390f35b61100560048036036020811015610fe957600080fd5b81019080803563ffffffff1690602001909291905050506137f2565b604051808060200180602001806020018773ffffffffffffffffffffffffffffffffffffffff1673ffffffffffffffffffffffffffffffffffffffff1681526020018663ffffffff1663ffffffff1681526020018563ffffffff1663ffffffff16815260200184810384528a818151815260200191508051906020019080838360005b838110156110a3578082015181840152602081019050611088565b50505050905090810190601f1680156110d05780820380516001836020036101000a031916815260200191505b50848103835289818151815260200191508051906020019080838360005b838110156111095780820151818401526020810190506110ee565b50505050905090810190601f1680156111365780820380516001836020036101000a031916815260200191505b50848103825288818151815260200191508051906020019080838360005b8381101561116f578082015181840152602081019050611154565b50505050905090810190601f16801561119c5780820380516001836020036101000a031916815260200191505b50995050505050505050505060405180910390f35b6111b9613a36565b604051808263ffffffff1663ffffffff16815260200191505060405180910390f35b6111e3613a4c565b604051808263ffffffff1663ffffffff16815260200191505060405180910390f35b6002602052806000526040600020600091509050806000018054600181600116156101000203166002900480601f0160208091040260200160405190810160405280929190818152602001828054600181600116156101000203166002900480156112b15780601f10611286576101008083540402835291602001916112b1565b820191906000526020600020905b81548152906001019060200180831161129457829003601f168201915b505050505090806001018054600181600116156101000203166002900480601f01602080910402602001604051908101604052809291908181526020018280546001816001161561010002031660029004801561134f5780601f106113245761010080835404028352916020019161134f565b820191906000526020600020905b81548152906001019060200180831161133257829003601f168201915b505050505090806002018054600181600116156101000203166002900480601f0160208091040260200160405190810160405280929190818152602001828054600181600116156101000203166002900480156113ed5780601f106113c2576101008083540402835291602001916113ed565b820191906000526020600020905b8154815290600101906020018083116113d057829003601f168201915b5050505050908060030160009054906101000a900473ffffffffffffffffffffffffffffffffffffffff16905084565b600060405180807f4d616e7566616374757265720000000000000000000000000000000000000000815250600c0190506040518091039020600260003373ffffffffffffffffffffffffffffffffffffffff1673ffffffffffffffffffffffffffffffffffffffff16815260200190815260200160002060020160405160200180828054600181600116156101000203166002900480156114f55780601f106114d35761010080835404028352918201916114f5565b820191906000526020600020905b8154815290600101906020018083116114e1575b505091505060405160208183030381529060405280519060200120141561193357600080600081819054906101000a900463ffffffff168092919060010191906101000a81548163ffffffff021916908363ffffffff1602179055509050600080600881819054906101000a900463ffffffff168092919060010191906101000a81548163ffffffff021916908363ffffffff160217905550905086600160008463ffffffff1663ffffffff16815260200190815260200160002060000190805190602001906115c6929190613a62565b5085600160008463ffffffff1663ffffffff16815260200190815260200160002060010190805190602001906115fd929190613a62565b5084600160008463ffffffff1663ffffffff1681526020019081526020016000206002019080519060200190611634929190613a62565b5083600160008463ffffffff1663ffffffff16815260200190815260200160002060030160146101000a81548163ffffffff021916908363ffffffff160217905550600260003373ffffffffffffffffffffffffffffffffffffffff1673ffffffffffffffffffffffffffffffffffffffff16815260200190815260200160002060030160009054906101000a900473ffffffffffffffffffffffffffffffffffffffff16600160008463ffffffff1663ffffffff16815260200190815260200160002060030160006101000a81548173ffffffffffffffffffffffffffffffffffffffff021916908373ffffffffffffffffffffffffffffffffffffffff16021790555042600160008463ffffffff1663ffffffff16815260200190815260200160002060030160186101000a81548163ffffffff021916908363ffffffff16021790555081600360008363ffffffff1663ffffffff16815260200190815260200160002060000160006101000a81548163ffffffff021916908363ffffffff16021790555033600360008363ffffffff1663ffffffff16815260200190815260200160002060010160006101000a81548173ffffffffffffffffffffffffffffffffffffffff021916908373ffffffffffffffffffffffffffffffffffffffff16021790555033600360008363ffffffff1663ffffffff16815260200190815260200160002060000160046101000a81548173ffffffffffffffffffffffffffffffffffffffff021916908373ffffffffffffffffffffffffffffffffffffffff16021790555042600360008363ffffffff1663ffffffff16815260200190815260200160002060000160186101000a81548163ffffffff021916908363ffffffff160217905550600460008363ffffffff1663ffffffff1681526020019081526020016000208190806001815401808255809150506001900390600052602060002090600891828204019190066004029091909190916101000a81548163ffffffff021916908363ffffffff1602179055508192505050611938565b600090505b949350505050565b6004602052816000526040600020818154811061195957fe5b9060005260206000209060089182820401919006600402915091509054906101000a900463ffffffff1681565b60608060606000806000600160008863ffffffff1663ffffffff168152602001908152602001600020600001600160008963ffffffff1663ffffffff168152602001908152602001600020600101600160008a63ffffffff1663ffffffff168152602001908152602001600020600201600160008b63ffffffff1663ffffffff16815260200190815260200160002060030160149054906101000a900463ffffffff16600160008c63ffffffff1663ffffffff16815260200190815260200160002060030160009054906101000a900473ffffffffffffffffffffffffffffffffffffffff16600160008d63ffffffff1663ffffffff16815260200190815260200160002060030160189054906101000a900463ffffffff16858054600181600116156101000203166002900480601f016020809104026020016040519081016040528092919081815260200182805460018160011615610100020316600290048015611b345780601f10611b0957610100808354040283529160200191611b34565b820191906000526020600020905b815481529060010190602001808311611b1757829003601f168201915b50505050509550848054600181600116156101000203166002900480601f016020809104026020016040519081016040528092919081815260200182805460018160011615610100020316600290048015611bd05780601f10611ba557610100808354040283529160200191611bd0565b820191906000526020600020905b815481529060010190602001808311611bb357829003601f168201915b50505050509450838054600181600116156101000203166002900480601f016020809104026020016040519081016040528092919081815260200182805460018160011615610100020316600290048015611c6c5780601f10611c4157610100808354040283529160200191611c6c565b820191906000526020600020905b815481529060010190602001808311611c4f57829003601f168201915b5050505050935095509550955095509550955091939550919395565b6000809054906101000a900463ffffffff1681565b6000816040516020018082805190602001908083835b60208310611cd65780518252602082019150602081019050602083039250611cb3565b6001836020036101000a03801982511681845116808217855250505050505090500191505060405160208183030381529060405280519060200120600260008773ffffffffffffffffffffffffffffffffffffffff1673ffffffffffffffffffffffffffffffffffffffff1681526020019081526020016000206002016040516020018082805460018160011615610100020316600290048015611db15780601f10611d8f576101008083540402835291820191611db1565b820191906000526020600020905b815481529060010190602001808311611d9d575b505091505060405160208183030381529060405280519060200120141561204357836040516020018082805190602001908083835b60208310611e095780518252602082019150602081019050602083039250611de6565b6001836020036101000a03801982511681845116808217855250505050505090500191505060405160208183030381529060405280519060200120600260008773ffffffffffffffffffffffffffffffffffffffff1673ffffffffffffffffffffffffffffffffffffffff1681526020019081526020016000206000016040516020018082805460018160011615610100020316600290048015611ee45780601f10611ec2576101008083540402835291820191611ee4565b820191906000526020600020905b815481529060010190602001808311611ed0575b505091505060405160208183030381529060405280519060200120141561204257826040516020018082805190602001908083835b60208310611f3c5780518252602082019150602081019050602083039250611f19565b6001836020036101000a03801982511681845116808217855250505050505090500191505060405160208183030381529060405280519060200120600260008773ffffffffffffffffffffffffffffffffffffffff1673ffffffffffffffffffffffffffffffffffffffff16815260200190815260200160002060010160405160200180828054600181600116156101000203166002900480156120175780601f10611ff5576101008083540402835291820191612017565b820191906000526020600020905b815481529060010190602001808311612003575b50509150506040516020818303038152906040528051906020012014156120415760019050612048565b5b5b600090505b949350505050565b600081600160008263ffffffff1663ffffffff16815260200190815260200160002060030160009054906101000a900473ffffffffffffffffffffffffffffffffffffffff1673ffffffffffffffffffffffffffffffffffffffff163373ffffffffffffffffffffffffffffffffffffffff16146120cd57600080fd5b6120d5613ae2565b600260008773ffffffffffffffffffffffffffffffffffffffff1673ffffffffffffffffffffffffffffffffffffffff168152602001908152602001600020604051806080016040529081600082018054600181600116156101000203166002900480601f0160208091040260200160405190810160405280929190818152602001828054600181600116156101000203166002900480156121b85780601f1061218d576101008083540402835291602001916121b8565b820191906000526020600020905b81548152906001019060200180831161219b57829003601f168201915b50505050508152602001600182018054600181600116156101000203166002900480601f01602080910402602001604051908101604052809291908181526020018280546001816001161561010002031660029004801561225a5780601f1061222f5761010080835404028352916020019161225a565b820191906000526020600020905b81548152906001019060200180831161223d57829003601f168201915b50505050508152602001600282018054600181600116156101000203166002900480601f0160208091040260200160405190810160405280929190818152602001828054600181600116156101000203166002900480156122fc5780601f106122d1576101008083540402835291602001916122fc565b820191906000526020600020905b8154815290600101906020018083116122df57829003601f168201915b505050505081526020016003820160009054906101000a900473ffffffffffffffffffffffffffffffffffffffff1673ffffffffffffffffffffffffffffffffffffffff1673ffffffffffffffffffffffffffffffffffffffff16815250509050612365613ae2565b600260008773ffffffffffffffffffffffffffffffffffffffff1673ffffffffffffffffffffffffffffffffffffffff168152602001908152602001600020604051806080016040529081600082018054600181600116156101000203166002900480601f0160208091040260200160405190810160405280929190818152602001828054600181600116156101000203166002900480156124485780601f1061241d57610100808354040283529160200191612448565b820191906000526020600020905b81548152906001019060200180831161242b57829003601f168201915b50505050508152602001600182018054600181600116156101000203166002900480601f0160208091040260200160405190810160405280929190818152602001828054600181600116156101000203166002900480156124ea5780601f106124bf576101008083540402835291602001916124ea565b820191906000526020600020905b8154815290600101906020018083116124cd57829003601f168201915b50505050508152602001600282018054600181600116156101000203166002900480601f01602080910402602001604051908101604052809291908181526020018280546001816001161561010002031660029004801561258c5780601f106125615761010080835404028352916020019161258c565b820191906000526020600020905b81548152906001019060200180831161256f57829003601f168201915b505050505081526020016003820160009054906101000a900473ffffffffffffffffffffffffffffffffffffffff1673ffffffffffffffffffffffffffffffffffffffff1673ffffffffffffffffffffffffffffffffffffffff16815250509050600080600881819054906101000a900463ffffffff168092919060010191906101000a81548163ffffffff021916908363ffffffff160217905550905060405180807f4d616e7566616374757265720000000000000000000000000000000000000000815250600c019050604051809103902083604001516040516020018082805190602001908083835b6020831061269b5780518252602082019150602081019050602083039250612678565b6001836020036101000a0380198251168184511680821785525050505050509050019150506040516020818303038152906040528051906020012014801561278c575060405180807f537570706c6965720000000000000000000000000000000000000000000000008152506008019050604051809103902082604001516040516020018082805190602001908083835b6020831061274f578051825260208201915060208101905060208303925061272c565b6001836020036101000a03801982511681845116808217855250505050505090500191505060405160208183030381529060405280519060200120145b156129f85785600360008363ffffffff1663ffffffff16815260200190815260200160002060000160006101000a81548163ffffffff021916908363ffffffff1602179055508160600151600360008363ffffffff1663ffffffff16815260200190815260200160002060010160006101000a81548173ffffffffffffffffffffffffffffffffffffffff021916908373ffffffffffffffffffffffffffffffffffffffff16021790555086600360008363ffffffff1663ffffffff16815260200190815260200160002060000160046101000a81548173ffffffffffffffffffffffffffffffffffffffff021916908373ffffffffffffffffffffffffffffffffffffffff16021790555042600360008363ffffffff1663ffffffff16815260200190815260200160002060000160186101000a81548163ffffffff021916908363ffffffff1602179055508160600151600160008863ffffffff1663ffffffff16815260200190815260200160002060030160006101000a81548173ffffffffffffffffffffffffffffffffffffffff021916908373ffffffffffffffffffffffffffffffffffffffff160217905550600460008763ffffffff1663ffffffff1681526020019081526020016000208190806001815401808255809150506001900390600052602060002090600891828204019190066004029091909190916101000a81548163ffffffff021916908363ffffffff1602179055507f4a7c2ed8675655246e11580786ba8a73e92e426d177368a8697ead49925146c286604051808263ffffffff1663ffffffff16815260200191505060405180910390a16001945050505061319c565b60405180807f537570706c6965720000000000000000000000000000000000000000000000008152506008019050604051809103902083604001516040516020018082805190602001908083835b60208310612a695780518252602082019150602081019050602083039250612a46565b6001836020036101000a03801982511681845116808217855250505050505090500191505060405160208183030381529060405280519060200120148015612b5a575060405180807f537570706c6965720000000000000000000000000000000000000000000000008152506008019050604051809103902082604001516040516020018082805190602001908083835b60208310612b1d5780518252602082019150602081019050602083039250612afa565b6001836020036101000a03801982511681845116808217855250505050505090500191505060405160208183030381529060405280519060200120145b15612dc65785600360008363ffffffff1663ffffffff16815260200190815260200160002060000160006101000a81548163ffffffff021916908363ffffffff1602179055508160600151600360008363ffffffff1663ffffffff16815260200190815260200160002060010160006101000a81548173ffffffffffffffffffffffffffffffffffffffff021916908373ffffffffffffffffffffffffffffffffffffffff16021790555086600360008363ffffffff1663ffffffff16815260200190815260200160002060000160046101000a81548173ffffffffffffffffffffffffffffffffffffffff021916908373ffffffffffffffffffffffffffffffffffffffff16021790555042600360008363ffffffff1663ffffffff16815260200190815260200160002060000160186101000a81548163ffffffff021916908363ffffffff1602179055508160600151600160008863ffffffff1663ffffffff16815260200190815260200160002060030160006101000a81548173ffffffffffffffffffffffffffffffffffffffff021916908373ffffffffffffffffffffffffffffffffffffffff160217905550600460008763ffffffff1663ffffffff1681526020019081526020016000208190806001815401808255809150506001900390600052602060002090600891828204019190066004029091909190916101000a81548163ffffffff021916908363ffffffff1602179055507f4a7c2ed8675655246e11580786ba8a73e92e426d177368a8697ead49925146c286604051808263ffffffff1663ffffffff16815260200191505060405180910390a16001945050505061319c565b60405180807f537570706c6965720000000000000000000000000000000000000000000000008152506008019050604051809103902083604001516040516020018082805190602001908083835b60208310612e375780518252602082019150602081019050602083039250612e14565b6001836020036101000a03801982511681845116808217855250505050505090500191505060405160208183030381529060405280519060200120148015612f28575060405180807f436f6e73756d65720000000000000000000000000000000000000000000000008152506008019050604051809103902082604001516040516020018082805190602001908083835b60208310612eeb5780518252602082019150602081019050602083039250612ec8565b6001836020036101000a03801982511681845116808217855250505050505090500191505060405160208183030381529060405280519060200120145b156131945785600360008363ffffffff1663ffffffff16815260200190815260200160002060000160006101000a81548163ffffffff021916908363ffffffff1602179055508160600151600360008363ffffffff1663ffffffff16815260200190815260200160002060010160006101000a81548173ffffffffffffffffffffffffffffffffffffffff021916908373ffffffffffffffffffffffffffffffffffffffff16021790555086600360008363ffffffff1663ffffffff16815260200190815260200160002060000160046101000a81548173ffffffffffffffffffffffffffffffffffffffff021916908373ffffffffffffffffffffffffffffffffffffffff16021790555042600360008363ffffffff1663ffffffff16815260200190815260200160002060000160186101000a81548163ffffffff021916908363ffffffff1602179055508160600151600160008863ffffffff1663ffffffff16815260200190815260200160002060030160006101000a81548173ffffffffffffffffffffffffffffffffffffffff021916908373ffffffffffffffffffffffffffffffffffffffff160217905550600460008763ffffffff1663ffffffff1681526020019081526020016000208190806001815401808255809150506001900390600052602060002090600891828204019190066004029091909190916101000a81548163ffffffff021916908363ffffffff1602179055507f4a7c2ed8675655246e11580786ba8a73e92e426d177368a8697ead49925146c286604051808263ffffffff1663ffffffff16815260200191505060405180910390a16001945050505061319c565b600094505050505b509392505050565b606060006060600260008573ffffffffffffffffffffffffffffffffffffffff1673ffffffffffffffffffffffffffffffffffffffff168152602001908152602001600020600001600260008673ffffffffffffffffffffffffffffffffffffffff1673ffffffffffffffffffffffffffffffffffffffff16815260200190815260200160002060030160009054906101000a900473ffffffffffffffffffffffffffffffffffffffff16600260008773ffffffffffffffffffffffffffffffffffffffff1673ffffffffffffffffffffffffffffffffffffffff168152602001908152602001600020600201828054600181600116156101000203166002900480601f0160208091040260200160405190810160405280929190818152602001828054600181600116156101000203166002900480156133265780601f106132fb57610100808354040283529160200191613326565b820191906000526020600020905b81548152906001019060200180831161330957829003601f168201915b50505050509250808054600181600116156101000203166002900480601f0160208091040260200160405190810160405280929190818152602001828054600181600116156101000203166002900480156133c25780601f10613397576101008083540402835291602001916133c2565b820191906000526020600020905b8154815290600101906020018083116133a557829003601f168201915b505050505090509250925092509193909250565b60036020528060005260406000206000915090508060000160009054906101000a900463ffffffff16908060000160049054906101000a900473ffffffffffffffffffffffffffffffffffffffff16908060000160189054906101000a900463ffffffff16908060010160009054906101000a900473ffffffffffffffffffffffffffffffffffffffff16905084565b600084600260003373ffffffffffffffffffffffffffffffffffffffff1673ffffffffffffffffffffffffffffffffffffffff16815260200190815260200160002060000190805190602001906134be929190613a62565b5083600260003373ffffffffffffffffffffffffffffffffffffffff1673ffffffffffffffffffffffffffffffffffffffff1681526020019081526020016000206001019080519060200190613515929190613a62565b5082600260003373ffffffffffffffffffffffffffffffffffffffff1673ffffffffffffffffffffffffffffffffffffffff16815260200190815260200160002060030160006101000a81548173ffffffffffffffffffffffffffffffffffffffff021916908373ffffffffffffffffffffffffffffffffffffffff16021790555081600260003373ffffffffffffffffffffffffffffffffffffffff1673ffffffffffffffffffffffffffffffffffffffff16815260200190815260200160002060020190805190602001906135ed929190613a62565b50339050949350505050565b6060600460008363ffffffff1663ffffffff16815260200190815260200160002080548060200260200160405190810160405280929190818152602001828054801561369057602002820191906000526020600020906000905b82829054906101000a900463ffffffff1663ffffffff16815260200190600401906020826003010492830192600103820291508084116136535790505b50505050509050919050565b6000806000806136aa613b20565b600360008763ffffffff1663ffffffff1681526020019081526020016000206040518060800160405290816000820160009054906101000a900463ffffffff1663ffffffff1663ffffffff1681526020016000820160049054906101000a900473ffffffffffffffffffffffffffffffffffffffff1673ffffffffffffffffffffffffffffffffffffffff1673ffffffffffffffffffffffffffffffffffffffff1681526020016000820160189054906101000a900463ffffffff1663ffffffff1663ffffffff1681526020016001820160009054906101000a900473ffffffffffffffffffffffffffffffffffffffff1673ffffffffffffffffffffffffffffffffffffffff1673ffffffffffffffffffffffffffffffffffffffff1681525050905080600001518160200151826060015183604001519450945094509450509193509193565b6001602052806000526040600020600091509050806000018054600181600116156101000203166002900480601f01602080910402602001604051908101604052809291908181526020018280546001816001161561010002031660029004801561389e5780601f106138735761010080835404028352916020019161389e565b820191906000526020600020905b81548152906001019060200180831161388157829003601f168201915b505050505090806001018054600181600116156101000203166002900480601f01602080910402602001604051908101604052809291908181526020018280546001816001161561010002031660029004801561393c5780601f106139115761010080835404028352916020019161393c565b820191906000526020600020905b81548152906001019060200180831161391f57829003601f168201915b505050505090806002018054600181600116156101000203166002900480601f0160208091040260200160405190810160405280929190818152602001828054600181600116156101000203166002900480156139da5780601f106139af576101008083540402835291602001916139da565b820191906000526020600020905b8154815290600101906020018083116139bd57829003601f168201915b5050505050908060030160009054906101000a900473ffffffffffffffffffffffffffffffffffffffff16908060030160149054906101000a900463ffffffff16908060030160189054906101000a900463ffffffff16905086565b600060049054906101000a900463ffffffff1681565b600060089054906101000a900463ffffffff1681565b828054600181600116156101000203166002900490600052602060002090601f016020900481019282601f10613aa357805160ff1916838001178555613ad1565b82800160010185558215613ad1579182015b82811115613ad0578251825591602001919060010190613ab5565b5b509050613ade9190613b80565b5090565b6040518060800160405280606081526020016060815260200160608152602001600073ffffffffffffffffffffffffffffffffffffffff1681525090565b6040518060800160405280600063ffffffff168152602001600073ffffffffffffffffffffffffffffffffffffffff168152602001600063ffffffff168152602001600073ffffffffffffffffffffffffffffffffffffffff1681525090565b613ba291905b80821115613b9e576000816000905550600101613b86565b5090565b9056fea264697066735822122076ae46635afe5c5adad3f799732719c9f0047b16e546beb8d37330cddab7be8a64736f6c63430006010033",
  "source": "pragma solidity ^0.6.1;\r\n\r\ncontract ModifiedSupplyChain {\r\n    uint32 public product_counter = 0; // Product ID\r\n    uint32 public participant_counter = 0; // Participant ID\r\n    uint32 public registration_counter = 0; // Registration ID\r\n    constructor() public {}\r\n    struct product {\r\n        string modelNumber;\r\n        string partNumber;\r\n        string serialNumber;\r\n        address productOwner;\r\n        uint32 cost;\r\n        uint32 mfgTimeStamp;\r\n    }\r\n\r\n    mapping(uint32 => product) public products;\r\n\r\n    struct participant {\r\n        string userName;\r\n        string password;\r\n        string participantType;\r\n        address participantAddress;\r\n    }\r\n    mapping(address => participant) public participants;\r\n\r\n    struct registration {\r\n        uint32 productId;\r\n        address ownerAddress;\r\n        uint32 trxTimeStamp;\r\n        address productOwner;\r\n    }\r\n    mapping(uint32 => registration) public registrations; // Registrations by Registration ID (registration_counter)\r\n    mapping(uint32 => uint32[]) public productTrack; // Registrations by Product ID (product_counter) / Movement track for a product\r\n\r\n    event Transfer(uint32 productId);\r\n\r\n    function createParticipant(\r\n        string memory _name,\r\n        string memory _pass,\r\n        address _pAdd,\r\n        string memory _pType\r\n    ) public returns (address) {\r\n        participants[msg.sender].userName = _name;\r\n        participants[msg.sender].password = _pass;\r\n        participants[msg.sender].participantAddress = _pAdd;\r\n        participants[msg.sender].participantType = _pType;\r\n\r\n        return msg.sender;\r\n    }\r\n\r\n    function getParticipantDetails(address _p_address)\r\n        public\r\n        view\r\n        returns (string memory, address, string memory)\r\n    {\r\n        return (\r\n            participants[_p_address].userName,\r\n            participants[_p_address].participantAddress,\r\n            participants[_p_address].participantType\r\n        );\r\n    }\r\n\r\n    function createProduct(\r\n        string memory _modelNumber,\r\n        string memory _partNumber,\r\n        string memory _serialNumber,\r\n        uint32 _productCost\r\n    ) public returns (uint32) {\r\n        if (\r\n            keccak256(\r\n                abi.encodePacked(participants[msg.sender].participantType)\r\n            ) ==\r\n            keccak256(\"Manufacturer\")\r\n        ) {\r\n            uint32 productId = product_counter++;\r\n            uint32 registration_id = registration_counter++;\r\n            products[productId].modelNumber = _modelNumber;\r\n            products[productId].partNumber = _partNumber;\r\n            products[productId].serialNumber = _serialNumber;\r\n            products[productId].cost = _productCost;\r\n            products[productId].productOwner = participants[msg.sender]\r\n                .participantAddress;\r\n            products[productId].mfgTimeStamp = uint32(now);\r\n\r\n            registrations[registration_id].productId = productId;\r\n            registrations[registration_id].productOwner = msg.sender;\r\n            registrations[registration_id].ownerAddress = msg.sender;\r\n            registrations[registration_id].trxTimeStamp = uint32(now);\r\n            productTrack[productId].push(registration_id);\r\n\r\n            return productId;\r\n        }\r\n\r\n        return 0;\r\n    }\r\n\r\n    modifier onlyOwner(uint32 _productId) {\r\n        require(msg.sender == products[_productId].productOwner);\r\n        _;\r\n    }\r\n\r\n    function getProductDetails(uint32 _productId)\r\n        public\r\n        view\r\n        returns (\r\n            string memory,\r\n            string memory,\r\n            string memory,\r\n            uint32,\r\n            address,\r\n            uint32\r\n        )\r\n    {\r\n        return (\r\n            products[_productId].modelNumber,\r\n            products[_productId].partNumber,\r\n            products[_productId].serialNumber,\r\n            products[_productId].cost,\r\n            products[_productId].productOwner,\r\n            products[_productId].mfgTimeStamp\r\n        );\r\n    }\r\n\r\n    function transferToOwner(\r\n        address _user1Address,\r\n        address _user2Address,\r\n        uint32 _prodId\r\n    ) public onlyOwner(_prodId) returns (bool) {\r\n        participant memory p1 = participants[_user1Address];\r\n        participant memory p2 = participants[_user2Address];\r\n        uint32 registration_id = registration_counter++;\r\n\r\n        if (\r\n            keccak256(abi.encodePacked(p1.participantType)) ==\r\n            keccak256(\"Manufacturer\") &&\r\n            keccak256(abi.encodePacked(p2.participantType)) ==\r\n            keccak256(\"Supplier\")\r\n        ) {\r\n            registrations[registration_id].productId = _prodId;\r\n            registrations[registration_id].productOwner = p2.participantAddress;\r\n            registrations[registration_id].ownerAddress = _user2Address;\r\n            registrations[registration_id].trxTimeStamp = uint32(now);\r\n            products[_prodId].productOwner = p2.participantAddress;\r\n            productTrack[_prodId].push(registration_id);\r\n            emit Transfer(_prodId);\r\n\r\n            return (true);\r\n        } else if (\r\n            keccak256(abi.encodePacked(p1.participantType)) ==\r\n            keccak256(\"Supplier\") &&\r\n            keccak256(abi.encodePacked(p2.participantType)) ==\r\n            keccak256(\"Supplier\")\r\n        ) {\r\n            registrations[registration_id].productId = _prodId;\r\n            registrations[registration_id].productOwner = p2.participantAddress;\r\n            registrations[registration_id].ownerAddress = _user2Address;\r\n            registrations[registration_id].trxTimeStamp = uint32(now);\r\n            products[_prodId].productOwner = p2.participantAddress;\r\n            productTrack[_prodId].push(registration_id);\r\n            emit Transfer(_prodId);\r\n\r\n            return (true);\r\n        } else if (\r\n            keccak256(abi.encodePacked(p1.participantType)) ==\r\n            keccak256(\"Supplier\") &&\r\n            keccak256(abi.encodePacked(p2.participantType)) ==\r\n            keccak256(\"Consumer\")\r\n        ) {\r\n            registrations[registration_id].productId = _prodId;\r\n            registrations[registration_id].productOwner = p2.participantAddress;\r\n            registrations[registration_id].ownerAddress = _user2Address;\r\n            registrations[registration_id].trxTimeStamp = uint32(now);\r\n            products[_prodId].productOwner = p2.participantAddress;\r\n            productTrack[_prodId].push(registration_id);\r\n            emit Transfer(_prodId);\r\n\r\n            return (true);\r\n        }\r\n\r\n        return (false);\r\n    }\r\n\r\n    function getProductTrack(uint32 _prodId)\r\n        external\r\n        view\r\n        returns (uint32[] memory)\r\n    {\r\n        return productTrack[_prodId];\r\n    }\r\n\r\n    function getRegistrationDetails(uint32 _regId)\r\n        public\r\n        view\r\n        returns (uint32, address, address, uint32)\r\n    {\r\n        registration memory r = registrations[_regId];\r\n\r\n        return (r.productId, r.ownerAddress, r.productOwner, r.trxTimeStamp);\r\n    }\r\n\r\n    function authenticateParticipant(\r\n        address _uAddress,\r\n        string memory _uname,\r\n        string memory _pass,\r\n        string memory _utype\r\n    ) public view returns (bool) {\r\n        if (\r\n            keccak256(\r\n                abi.encodePacked(participants[_uAddress].participantType)\r\n            ) ==\r\n            keccak256(abi.encodePacked(_utype))\r\n        ) {\r\n            if (\r\n                keccak256(abi.encodePacked(participants[_uAddress].userName)) ==\r\n                keccak256(abi.encodePacked(_uname))\r\n            ) {\r\n                if (\r\n                    keccak256(\r\n                        abi.encodePacked(participants[_uAddress].password)\r\n                    ) ==\r\n                    keccak256(abi.encodePacked(_pass))\r\n                ) {\r\n                    return (true);\r\n                }\r\n            }\r\n        }\r\n        return (false);\r\n    }\r\n\r\n}\r\n",
  "sourcePath": "C:/Users/Laptop001/vue-chain/truffle/contracts/ModifiedSupplyChain.sol",
  "compiler": {
    "name": "solc",
    "version": "0.6.1+commit.e6f7d5a4.Emscripten.clang"
  },
  "schemaVersion": "3.0.22",
  "updatedAt": "2020-03-22T19:54:13.221Z",
  "networkType": "ethereum",
  "devdoc": {
    "methods": {}
  },
  "userdoc": {
    "methods": {}
  }
}