{
  "contractName": "SupplyChainLogic",
  "abi": [
    {
      "inputs": [
        {
          "internalType": "address",
          "name": "_target",
          "type": "address"
        }
      ],
      "stateMutability": "nonpayable",
      "type": "constructor"
    },
    {
      "anonymous": false,
      "inputs": [
        {
          "indexed": false,
          "internalType": "uint32",
          "name": "productId",
          "type": "uint32"
        }
      ],
      "name": "Transfer",
      "type": "event"
    },
    {
      "inputs": [
        {
          "internalType": "uint32",
          "name": "_prodId",
          "type": "uint32"
        }
      ],
      "name": "getProductTrack",
      "outputs": [
        {
          "internalType": "uint32[]",
          "name": "",
          "type": "uint32[]"
        }
      ],
      "stateMutability": "view",
      "type": "function",
      "constant": true
    },
    {
      "inputs": [],
      "name": "participant_counter",
      "outputs": [
        {
          "internalType": "uint32",
          "name": "",
          "type": "uint32"
        }
      ],
      "stateMutability": "view",
      "type": "function",
      "constant": true
    },
    {
      "inputs": [
        {
          "internalType": "address",
          "name": "",
          "type": "address"
        }
      ],
      "name": "participants",
      "outputs": [
        {
          "internalType": "string",
          "name": "userName",
          "type": "string"
        },
        {
          "internalType": "string",
          "name": "password",
          "type": "string"
        },
        {
          "internalType": "string",
          "name": "participantType",
          "type": "string"
        },
        {
          "internalType": "address",
          "name": "participantAddress",
          "type": "address"
        }
      ],
      "stateMutability": "view",
      "type": "function",
      "constant": true
    },
    {
      "inputs": [
        {
          "internalType": "uint32",
          "name": "",
          "type": "uint32"
        },
        {
          "internalType": "uint256",
          "name": "",
          "type": "uint256"
        }
      ],
      "name": "productTrack",
      "outputs": [
        {
          "internalType": "uint32",
          "name": "",
          "type": "uint32"
        }
      ],
      "stateMutability": "view",
      "type": "function",
      "constant": true
    },
    {
      "inputs": [],
      "name": "product_counter",
      "outputs": [
        {
          "internalType": "uint32",
          "name": "",
          "type": "uint32"
        }
      ],
      "stateMutability": "view",
      "type": "function",
      "constant": true
    },
    {
      "inputs": [
        {
          "internalType": "uint32",
          "name": "",
          "type": "uint32"
        }
      ],
      "name": "products",
      "outputs": [
        {
          "internalType": "string",
          "name": "modelNumber",
          "type": "string"
        },
        {
          "internalType": "string",
          "name": "partNumber",
          "type": "string"
        },
        {
          "internalType": "string",
          "name": "serialNumber",
          "type": "string"
        },
        {
          "internalType": "address",
          "name": "productOwner",
          "type": "address"
        },
        {
          "internalType": "uint32",
          "name": "cost",
          "type": "uint32"
        },
        {
          "internalType": "uint32",
          "name": "mfgTimeStamp",
          "type": "uint32"
        }
      ],
      "stateMutability": "view",
      "type": "function",
      "constant": true
    },
    {
      "inputs": [],
      "name": "registration_counter",
      "outputs": [
        {
          "internalType": "uint32",
          "name": "",
          "type": "uint32"
        }
      ],
      "stateMutability": "view",
      "type": "function",
      "constant": true
    },
    {
      "inputs": [
        {
          "internalType": "uint32",
          "name": "",
          "type": "uint32"
        }
      ],
      "name": "registrations",
      "outputs": [
        {
          "internalType": "uint32",
          "name": "productId",
          "type": "uint32"
        },
        {
          "internalType": "address",
          "name": "ownerAddress",
          "type": "address"
        },
        {
          "internalType": "uint32",
          "name": "trxTimeStamp",
          "type": "uint32"
        },
        {
          "internalType": "address",
          "name": "productOwner",
          "type": "address"
        }
      ],
      "stateMutability": "view",
      "type": "function",
      "constant": true
    },
    {
      "inputs": [
        {
          "internalType": "string",
          "name": "_name",
          "type": "string"
        },
        {
          "internalType": "string",
          "name": "_pass",
          "type": "string"
        },
        {
          "internalType": "address",
          "name": "_pAdd",
          "type": "address"
        },
        {
          "internalType": "string",
          "name": "_pType",
          "type": "string"
        }
      ],
      "name": "invoke_create_participant",
      "outputs": [
        {
          "internalType": "bool",
          "name": "",
          "type": "bool"
        },
        {
          "internalType": "bytes",
          "name": "",
          "type": "bytes"
        }
      ],
      "stateMutability": "nonpayable",
      "type": "function"
    },
    {
      "inputs": [
        {
          "internalType": "string",
          "name": "_name",
          "type": "string"
        },
        {
          "internalType": "string",
          "name": "_pass",
          "type": "string"
        },
        {
          "internalType": "address",
          "name": "_pAdd",
          "type": "address"
        },
        {
          "internalType": "string",
          "name": "_pType",
          "type": "string"
        }
      ],
      "name": "createParticipant",
      "outputs": [
        {
          "internalType": "address",
          "name": "",
          "type": "address"
        }
      ],
      "stateMutability": "nonpayable",
      "type": "function"
    },
    {
      "inputs": [
        {
          "internalType": "address",
          "name": "_p_address",
          "type": "address"
        }
      ],
      "name": "invoke_get_participant_details",
      "outputs": [
        {
          "internalType": "bool",
          "name": "",
          "type": "bool"
        },
        {
          "internalType": "bytes",
          "name": "",
          "type": "bytes"
        }
      ],
      "stateMutability": "nonpayable",
      "type": "function"
    },
    {
      "inputs": [
        {
          "internalType": "address",
          "name": "_p_address",
          "type": "address"
        }
      ],
      "name": "getParticipantDetails",
      "outputs": [
        {
          "internalType": "string",
          "name": "",
          "type": "string"
        },
        {
          "internalType": "address",
          "name": "",
          "type": "address"
        },
        {
          "internalType": "string",
          "name": "",
          "type": "string"
        }
      ],
      "stateMutability": "view",
      "type": "function",
      "constant": true
    },
    {
      "inputs": [
        {
          "internalType": "string",
          "name": "_modelNumber",
          "type": "string"
        },
        {
          "internalType": "string",
          "name": "_partNumber",
          "type": "string"
        },
        {
          "internalType": "string",
          "name": "_serialNumber",
          "type": "string"
        },
        {
          "internalType": "uint32",
          "name": "_productCost",
          "type": "uint32"
        },
        {
          "internalType": "address",
          "name": "_productOwner",
          "type": "address"
        }
      ],
      "name": "invoke_create_product",
      "outputs": [
        {
          "internalType": "bool",
          "name": "",
          "type": "bool"
        },
        {
          "internalType": "bytes",
          "name": "",
          "type": "bytes"
        }
      ],
      "stateMutability": "nonpayable",
      "type": "function"
    },
    {
      "inputs": [
        {
          "internalType": "string",
          "name": "_modelNumber",
          "type": "string"
        },
        {
          "internalType": "string",
          "name": "_partNumber",
          "type": "string"
        },
        {
          "internalType": "string",
          "name": "_serialNumber",
          "type": "string"
        },
        {
          "internalType": "uint32",
          "name": "_productCost",
          "type": "uint32"
        }
      ],
      "name": "createProduct",
      "outputs": [
        {
          "internalType": "uint32",
          "name": "",
          "type": "uint32"
        }
      ],
      "stateMutability": "nonpayable",
      "type": "function"
    },
    {
      "inputs": [
        {
          "internalType": "uint32",
          "name": "_productId",
          "type": "uint32"
        }
      ],
      "name": "invoke_get_product_details",
      "outputs": [
        {
          "internalType": "bool",
          "name": "",
          "type": "bool"
        },
        {
          "internalType": "bytes",
          "name": "",
          "type": "bytes"
        }
      ],
      "stateMutability": "nonpayable",
      "type": "function"
    },
    {
      "inputs": [
        {
          "internalType": "uint32",
          "name": "_productId",
          "type": "uint32"
        }
      ],
      "name": "getProductDetails",
      "outputs": [
        {
          "internalType": "string",
          "name": "",
          "type": "string"
        },
        {
          "internalType": "string",
          "name": "",
          "type": "string"
        },
        {
          "internalType": "string",
          "name": "",
          "type": "string"
        },
        {
          "internalType": "uint32",
          "name": "",
          "type": "uint32"
        },
        {
          "internalType": "address",
          "name": "",
          "type": "address"
        },
        {
          "internalType": "uint32",
          "name": "",
          "type": "uint32"
        }
      ],
      "stateMutability": "view",
      "type": "function",
      "constant": true
    },
    {
      "inputs": [
        {
          "internalType": "address",
          "name": "_user1Address",
          "type": "address"
        },
        {
          "internalType": "address",
          "name": "_user2Address",
          "type": "address"
        },
        {
          "internalType": "uint32",
          "name": "_prodId",
          "type": "uint32"
        }
      ],
      "name": "invoke_transfer_to_owner",
      "outputs": [
        {
          "internalType": "bool",
          "name": "",
          "type": "bool"
        },
        {
          "internalType": "bytes",
          "name": "",
          "type": "bytes"
        }
      ],
      "stateMutability": "nonpayable",
      "type": "function"
    },
    {
      "inputs": [
        {
          "internalType": "address",
          "name": "_user1Address",
          "type": "address"
        },
        {
          "internalType": "address",
          "name": "_user2Address",
          "type": "address"
        },
        {
          "internalType": "uint32",
          "name": "_prodId",
          "type": "uint32"
        }
      ],
      "name": "transferToOwner",
      "outputs": [
        {
          "internalType": "bool",
          "name": "",
          "type": "bool"
        }
      ],
      "stateMutability": "nonpayable",
      "type": "function"
    },
    {
      "inputs": [
        {
          "internalType": "uint32",
          "name": "_productId",
          "type": "uint32"
        }
      ],
      "name": "invoke_get_product_track",
      "outputs": [
        {
          "internalType": "bool",
          "name": "",
          "type": "bool"
        },
        {
          "internalType": "bytes",
          "name": "",
          "type": "bytes"
        }
      ],
      "stateMutability": "nonpayable",
      "type": "function"
    },
    {
      "inputs": [
        {
          "internalType": "uint32",
          "name": "_regId",
          "type": "uint32"
        }
      ],
      "name": "getRegistrationDetails",
      "outputs": [
        {
          "internalType": "uint32",
          "name": "",
          "type": "uint32"
        },
        {
          "internalType": "address",
          "name": "",
          "type": "address"
        },
        {
          "internalType": "address",
          "name": "",
          "type": "address"
        },
        {
          "internalType": "uint32",
          "name": "",
          "type": "uint32"
        }
      ],
      "stateMutability": "view",
      "type": "function",
      "constant": true
    },
    {
      "inputs": [
        {
          "internalType": "address",
          "name": "_uAddress",
          "type": "address"
        },
        {
          "internalType": "string",
          "name": "_uname",
          "type": "string"
        },
        {
          "internalType": "string",
          "name": "_pass",
          "type": "string"
        },
        {
          "internalType": "string",
          "name": "_utype",
          "type": "string"
        }
      ],
      "name": "authenticateParticipant",
      "outputs": [
        {
          "internalType": "bool",
          "name": "",
          "type": "bool"
        }
      ],
      "stateMutability": "view",
      "type": "function",
      "constant": true
    }
  ],
  "bytecode": "0x608060405260008060146101000a81548163ffffffff021916908363ffffffff16021790555060008060186101000a81548163ffffffff021916908363ffffffff160217905550600080601c6101000a81548163ffffffff021916908363ffffffff16021790555034801561007357600080fd5b50604051620052fc380380620052fc8339818101604052602081101561009857600080fd5b8101908080519060200190929190505050336000806101000a81548173ffffffffffffffffffffffffffffffffffffffff021916908373ffffffffffffffffffffffffffffffffffffffff16021790555080600560006101000a81548173ffffffffffffffffffffffffffffffffffffffff021916908373ffffffffffffffffffffffffffffffffffffffff160217905550506151c1806200013b6000396000f3fe608060405234801561001057600080fd5b5060043610610154576000357c01000000000000000000000000000000000000000000000000000000009004806355ae9187116100d5578063bf712fd611610099578063bf712fd614611412578063d2620351146115f0578063e114a17b146116e8578063f276796914611712578063ff361aa3146117da578063ff7bb0df14611a7757610154565b806355ae918714610eee57806383a32c5514610fa657806389138c0014611073578063a8997d2e146112bc578063b9d93d5f1461134557610154565b8063297df1cd1161011c578063297df1cd1461082e5780633067227e1461085857806338fdd26814610a7957806344e0b8c114610b0557806348da98bf14610c6157610154565b806309e69ede146101595780631169559e146103215780631511e5861461053a5780631a074802146105f257806328d5b69a14610650575b600080fd5b61019b6004803603602081101561016f57600080fd5b81019080803573ffffffffffffffffffffffffffffffffffffffff169060200190929190505050611aa1565b604051808060200180602001806020018573ffffffffffffffffffffffffffffffffffffffff1673ffffffffffffffffffffffffffffffffffffffff168152602001848103845288818151815260200191508051906020019080838360005b838110156102155780820151818401526020810190506101fa565b50505050905090810190601f1680156102425780820380516001836020036101000a031916815260200191505b50848103835287818151815260200191508051906020019080838360005b8381101561027b578082015181840152602081019050610260565b50505050905090810190601f1680156102a85780820380516001836020036101000a031916815260200191505b50848103825286818151815260200191508051906020019080838360005b838110156102e15780820151818401526020810190506102c6565b50505050905090810190601f16801561030e5780820380516001836020036101000a031916815260200191505b5097505050505050505060405180910390f35b6105186004803603608081101561033757600080fd5b810190808035906020019064010000000081111561035457600080fd5b82018360208201111561036657600080fd5b8035906020019184600183028401116401000000008311171561038857600080fd5b91908080601f016020809104026020016040519081016040528093929190818152602001838380828437600081840152601f19601f820116905080830192505050505050509192919290803590602001906401000000008111156103eb57600080fd5b8201836020820111156103fd57600080fd5b8035906020019184600183028401116401000000008311171561041f57600080fd5b91908080601f016020809104026020016040519081016040528093929190818152602001838380828437600081840152601f19601f8201169050808301925050505050505091929192908035906020019064010000000081111561048257600080fd5b82018360208201111561049457600080fd5b803590602001918460018302840111640100000000831117156104b657600080fd5b91908080601f016020809104026020016040519081016040528093929190818152602001838380828437600081840152601f19601f820116905080830192505050505050509192919290803563ffffffff169060200190929190505050611cb9565b604051808263ffffffff1663ffffffff16815260200191505060405180910390f35b61056c6004803603602081101561055057600080fd5b81019080803563ffffffff1690602001909291905050506121dc565b604051808315151515815260200180602001828103825283818151815260200191508051906020019080838360005b838110156105b657808201518184015260208101905061059b565b50505050905090810190601f1680156105e35780820380516001836020036101000a031916815260200191505b50935050505060405180910390f35b61062e6004803603604081101561060857600080fd5b81019080803563ffffffff1690602001909291908035906020019092919050505061237e565b604051808263ffffffff1663ffffffff16815260200191505060405180910390f35b6106826004803603602081101561066657600080fd5b81019080803563ffffffff1690602001909291905050506123c4565b604051808060200180602001806020018763ffffffff1663ffffffff1681526020018673ffffffffffffffffffffffffffffffffffffffff1673ffffffffffffffffffffffffffffffffffffffff1681526020018563ffffffff1663ffffffff16815260200184810384528a818151815260200191508051906020019080838360005b83811015610720578082015181840152602081019050610705565b50505050905090810190601f16801561074d5780820380516001836020036101000a031916815260200191505b50848103835289818151815260200191508051906020019080838360005b8381101561078657808201518184015260208101905061076b565b50505050905090810190601f1680156107b35780820380516001836020036101000a031916815260200191505b50848103825288818151815260200191508051906020019080838360005b838110156107ec5780820151818401526020810190506107d1565b50505050905090810190601f1680156108195780820380516001836020036101000a031916815260200191505b50995050505050505050505060405180910390f35b6108366126c6565b604051808263ffffffff1663ffffffff16815260200191505060405180910390f35b610a5f6004803603608081101561086e57600080fd5b81019080803573ffffffffffffffffffffffffffffffffffffffff169060200190929190803590602001906401000000008111156108ab57600080fd5b8201836020820111156108bd57600080fd5b803590602001918460018302840111640100000000831117156108df57600080fd5b91908080601f016020809104026020016040519081016040528093929190818152602001838380828437600081840152601f19601f8201169050808301925050505050505091929192908035906020019064010000000081111561094257600080fd5b82018360208201111561095457600080fd5b8035906020019184600183028401116401000000008311171561097657600080fd5b91908080601f016020809104026020016040519081016040528093929190818152602001838380828437600081840152601f19601f820116905080830192505050505050509192919290803590602001906401000000008111156109d957600080fd5b8201836020820111156109eb57600080fd5b80359060200191846001830284011164010000000083111715610a0d57600080fd5b91908080601f016020809104026020016040519081016040528093929190818152602001838380828437600081840152601f19601f8201169050808301925050505050505091929192905050506126dc565b604051808215151515815260200191505060405180910390f35b610aeb60048036036060811015610a8f57600080fd5b81019080803573ffffffffffffffffffffffffffffffffffffffff169060200190929190803573ffffffffffffffffffffffffffffffffffffffff169060200190929190803563ffffffff169060200190929190505050612a8f565b604051808215151515815260200191505060405180910390f35b610b4760048036036020811015610b1b57600080fd5b81019080803573ffffffffffffffffffffffffffffffffffffffff169060200190929190505050613be3565b60405180806020018473ffffffffffffffffffffffffffffffffffffffff1673ffffffffffffffffffffffffffffffffffffffff16815260200180602001838103835286818151815260200191508051906020019080838360005b83811015610bbd578082015181840152602081019050610ba2565b50505050905090810190601f168015610bea5780820380516001836020036101000a031916815260200191505b50838103825284818151815260200191508051906020019080838360005b83811015610c23578082015181840152602081019050610c08565b50505050905090810190601f168015610c505780820380516001836020036101000a031916815260200191505b509550505050505060405180910390f35b610e6860048036036080811015610c7757600080fd5b8101908080359060200190640100000000811115610c9457600080fd5b820183602082011115610ca657600080fd5b80359060200191846001830284011164010000000083111715610cc857600080fd5b91908080601f016020809104026020016040519081016040528093929190818152602001838380828437600081840152601f19601f82011690508083019250505050505050919291929080359060200190640100000000811115610d2b57600080fd5b820183602082011115610d3d57600080fd5b80359060200191846001830284011164010000000083111715610d5f57600080fd5b91908080601f016020809104026020016040519081016040528093929190818152602001838380828437600081840152601f19601f820116905080830192505050505050509192919290803573ffffffffffffffffffffffffffffffffffffffff16906020019092919080359060200190640100000000811115610de257600080fd5b820183602082011115610df457600080fd5b80359060200191846001830284011164010000000083111715610e1657600080fd5b91908080601f016020809104026020016040519081016040528093929190818152602001838380828437600081840152601f19601f820116905080830192505050505050509192919290505050613e15565b604051808315151515815260200180602001828103825283818151815260200191508051906020019080838360005b83811015610eb2578082015181840152602081019050610e97565b50505050905090810190601f168015610edf5780820380516001836020036101000a031916815260200191505b50935050505060405180910390f35b610f2060048036036020811015610f0457600080fd5b81019080803563ffffffff169060200190929190505050614122565b604051808315151515815260200180602001828103825283818151815260200191508051906020019080838360005b83811015610f6a578082015181840152602081019050610f4f565b50505050905090810190601f168015610f975780820380516001836020036101000a031916815260200191505b50935050505060405180910390f35b610fd860048036036020811015610fbc57600080fd5b81019080803563ffffffff1690602001909291905050506142c4565b604051808563ffffffff1663ffffffff1681526020018473ffffffffffffffffffffffffffffffffffffffff1673ffffffffffffffffffffffffffffffffffffffff1681526020018363ffffffff1663ffffffff1681526020018273ffffffffffffffffffffffffffffffffffffffff1673ffffffffffffffffffffffffffffffffffffffff16815260200194505050505060405180910390f35b61127a6004803603608081101561108957600080fd5b81019080803590602001906401000000008111156110a657600080fd5b8201836020820111156110b857600080fd5b803590602001918460018302840111640100000000831117156110da57600080fd5b91908080601f016020809104026020016040519081016040528093929190818152602001838380828437600081840152601f19601f8201169050808301925050505050505091929192908035906020019064010000000081111561113d57600080fd5b82018360208201111561114f57600080fd5b8035906020019184600183028401116401000000008311171561117157600080fd5b91908080601f016020809104026020016040519081016040528093929190818152602001838380828437600081840152601f19601f820116905080830192505050505050509192919290803573ffffffffffffffffffffffffffffffffffffffff169060200190929190803590602001906401000000008111156111f457600080fd5b82018360208201111561120657600080fd5b8035906020019184600183028401116401000000008311171561122857600080fd5b91908080601f016020809104026020016040519081016040528093929190818152602001838380828437600081840152601f19601f820116905080830192505050505050509192919290505050614354565b604051808273ffffffffffffffffffffffffffffffffffffffff1673ffffffffffffffffffffffffffffffffffffffff16815260200191505060405180910390f35b6112ee600480360360208110156112d257600080fd5b81019080803563ffffffff169060200190929190505050614522565b6040518080602001828103825283818151815260200191508051906020019060200280838360005b83811015611331578082015181840152602081019050611316565b505050509050019250505060405180910390f35b6113776004803603602081101561135b57600080fd5b81019080803563ffffffff1690602001909291905050506145c5565b604051808563ffffffff1663ffffffff1681526020018473ffffffffffffffffffffffffffffffffffffffff1673ffffffffffffffffffffffffffffffffffffffff1681526020018373ffffffffffffffffffffffffffffffffffffffff1673ffffffffffffffffffffffffffffffffffffffff1681526020018263ffffffff1663ffffffff16815260200194505050505060405180910390f35b6114446004803603602081101561142857600080fd5b81019080803563ffffffff16906020019092919050505061471b565b604051808060200180602001806020018773ffffffffffffffffffffffffffffffffffffffff1673ffffffffffffffffffffffffffffffffffffffff1681526020018663ffffffff1663ffffffff1681526020018563ffffffff1663ffffffff16815260200184810384528a818151815260200191508051906020019080838360005b838110156114e25780820151818401526020810190506114c7565b50505050905090810190601f16801561150f5780820380516001836020036101000a031916815260200191505b50848103835289818151815260200191508051906020019080838360005b8381101561154857808201518184015260208101905061152d565b50505050905090810190601f1680156115755780820380516001836020036101000a031916815260200191505b50848103825288818151815260200191508051906020019080838360005b838110156115ae578082015181840152602081019050611593565b50505050905090810190601f1680156115db5780820380516001836020036101000a031916815260200191505b50995050505050505050505060405180910390f35b6116626004803603606081101561160657600080fd5b81019080803573ffffffffffffffffffffffffffffffffffffffff169060200190929190803573ffffffffffffffffffffffffffffffffffffffff169060200190929190803563ffffffff16906020019092919050505061495f565b604051808315151515815260200180602001828103825283818151815260200191508051906020019080838360005b838110156116ac578082015181840152602081019050611691565b50505050905090810190601f1680156116d95780820380516001836020036101000a031916815260200191505b50935050505060405180910390f35b6116f0614b6c565b604051808263ffffffff1663ffffffff16815260200191505060405180910390f35b6117546004803603602081101561172857600080fd5b81019080803573ffffffffffffffffffffffffffffffffffffffff169060200190929190505050614b82565b604051808315151515815260200180602001828103825283818151815260200191508051906020019080838360005b8381101561179e578082015181840152602081019050611783565b50505050905090810190601f1680156117cb5780820380516001836020036101000a031916815260200191505b50935050505060405180910390f35b6119f1600480360360a08110156117f057600080fd5b810190808035906020019064010000000081111561180d57600080fd5b82018360208201111561181f57600080fd5b8035906020019184600183028401116401000000008311171561184157600080fd5b91908080601f016020809104026020016040519081016040528093929190818152602001838380828437600081840152601f19601f820116905080830192505050505050509192919290803590602001906401000000008111156118a457600080fd5b8201836020820111156118b657600080fd5b803590602001918460018302840111640100000000831117156118d857600080fd5b91908080601f016020809104026020016040519081016040528093929190818152602001838380828437600081840152601f19601f8201169050808301925050505050505091929192908035906020019064010000000081111561193b57600080fd5b82018360208201111561194d57600080fd5b8035906020019184600183028401116401000000008311171561196f57600080fd5b91908080601f016020809104026020016040519081016040528093929190818152602001838380828437600081840152601f19601f820116905080830192505050505050509192919290803563ffffffff169060200190929190803573ffffffffffffffffffffffffffffffffffffffff169060200190929190505050614d44565b604051808315151515815260200180602001828103825283818151815260200191508051906020019080838360005b83811015611a3b578082015181840152602081019050611a20565b50505050905090810190601f168015611a685780820380516001836020036101000a031916815260200191505b50935050505060405180910390f35b611a7f615032565b604051808263ffffffff1663ffffffff16815260200191505060405180910390f35b6002602052806000526040600020600091509050806000018054600181600116156101000203166002900480601f016020809104026020016040519081016040528092919081815260200182805460018160011615610100020316600290048015611b4d5780601f10611b2257610100808354040283529160200191611b4d565b820191906000526020600020905b815481529060010190602001808311611b3057829003601f168201915b505050505090806001018054600181600116156101000203166002900480601f016020809104026020016040519081016040528092919081815260200182805460018160011615610100020316600290048015611beb5780601f10611bc057610100808354040283529160200191611beb565b820191906000526020600020905b815481529060010190602001808311611bce57829003601f168201915b505050505090806002018054600181600116156101000203166002900480601f016020809104026020016040519081016040528092919081815260200182805460018160011615610100020316600290048015611c895780601f10611c5e57610100808354040283529160200191611c89565b820191906000526020600020905b815481529060010190602001808311611c6c57829003601f168201915b5050505050908060030160009054906101000a900473ffffffffffffffffffffffffffffffffffffffff16905084565b600060405180807f4d616e7566616374757265720000000000000000000000000000000000000000815250600c0190506040518091039020600260003273ffffffffffffffffffffffffffffffffffffffff1673ffffffffffffffffffffffffffffffffffffffff1681526020019081526020016000206002016040516020018082805460018160011615610100020316600290048015611d915780601f10611d6f576101008083540402835291820191611d91565b820191906000526020600020905b815481529060010190602001808311611d7d575b50509150506040516020818303038152906040528051906020012014156121cf57600080601481819054906101000a900463ffffffff168092919060010191906101000a81548163ffffffff021916908363ffffffff1602179055509050600080601c81819054906101000a900463ffffffff168092919060010191906101000a81548163ffffffff021916908363ffffffff160217905550905086600160008463ffffffff1663ffffffff1681526020019081526020016000206000019080519060200190611e62929190615048565b5085600160008463ffffffff1663ffffffff1681526020019081526020016000206001019080519060200190611e99929190615048565b5084600160008463ffffffff1663ffffffff1681526020019081526020016000206002019080519060200190611ed0929190615048565b5083600160008463ffffffff1663ffffffff16815260200190815260200160002060030160146101000a81548163ffffffff021916908363ffffffff160217905550600260003273ffffffffffffffffffffffffffffffffffffffff1673ffffffffffffffffffffffffffffffffffffffff16815260200190815260200160002060030160009054906101000a900473ffffffffffffffffffffffffffffffffffffffff16600160008463ffffffff1663ffffffff16815260200190815260200160002060030160006101000a81548173ffffffffffffffffffffffffffffffffffffffff021916908373ffffffffffffffffffffffffffffffffffffffff16021790555042600160008463ffffffff1663ffffffff16815260200190815260200160002060030160186101000a81548163ffffffff021916908363ffffffff16021790555081600360008363ffffffff1663ffffffff16815260200190815260200160002060000160006101000a81548163ffffffff021916908363ffffffff16021790555032600360008363ffffffff1663ffffffff16815260200190815260200160002060010160006101000a81548173ffffffffffffffffffffffffffffffffffffffff021916908373ffffffffffffffffffffffffffffffffffffffff16021790555032600360008363ffffffff1663ffffffff16815260200190815260200160002060000160046101000a81548173ffffffffffffffffffffffffffffffffffffffff021916908373ffffffffffffffffffffffffffffffffffffffff16021790555042600360008363ffffffff1663ffffffff16815260200190815260200160002060000160186101000a81548163ffffffff021916908363ffffffff160217905550600460008363ffffffff1663ffffffff1681526020019081526020016000208190806001815401808255809150506001900390600052602060002090600891828204019190066004029091909190916101000a81548163ffffffff021916908363ffffffff16021790555081925050506121d4565b600090505b949350505050565b600060608083604051602401808263ffffffff1663ffffffff1681526020019150506040516020818303038152906040527fa8997d2e000000000000000000000000000000000000000000000000000000007bffffffffffffffffffffffffffffffffffffffffffffffffffffffff19166020820180517bffffffffffffffffffffffffffffffffffffffffffffffffffffffff8381831617835250505050905060006060600560009054906101000a900473ffffffffffffffffffffffffffffffffffffffff1673ffffffffffffffffffffffffffffffffffffffff16836040518082805190602001908083835b602083106122ee57805182526020820191506020810190506020830392506122cb565b6001836020036101000a0380198251168184511680821785525050505050509050019150506000604051808303816000865af19150503d8060008114612350576040519150601f19603f3d011682016040523d82523d6000602084013e612355565b606091505b50915091508161236e5760008194509450505050612379565b600181945094505050505b915091565b6004602052816000526040600020818154811061239757fe5b9060005260206000209060089182820401919006600402915091509054906101000a900463ffffffff1681565b60608060606000806000600160008863ffffffff1663ffffffff168152602001908152602001600020600001600160008963ffffffff1663ffffffff168152602001908152602001600020600101600160008a63ffffffff1663ffffffff168152602001908152602001600020600201600160008b63ffffffff1663ffffffff16815260200190815260200160002060030160149054906101000a900463ffffffff16600160008c63ffffffff1663ffffffff16815260200190815260200160002060030160009054906101000a900473ffffffffffffffffffffffffffffffffffffffff16600160008d63ffffffff1663ffffffff16815260200190815260200160002060030160189054906101000a900463ffffffff16858054600181600116156101000203166002900480601f0160208091040260200160405190810160405280929190818152602001828054600181600116156101000203166002900480156125725780601f1061254757610100808354040283529160200191612572565b820191906000526020600020905b81548152906001019060200180831161255557829003601f168201915b50505050509550848054600181600116156101000203166002900480601f01602080910402602001604051908101604052809291908181526020018280546001816001161561010002031660029004801561260e5780601f106125e35761010080835404028352916020019161260e565b820191906000526020600020905b8154815290600101906020018083116125f157829003601f168201915b50505050509450838054600181600116156101000203166002900480601f0160208091040260200160405190810160405280929190818152602001828054600181600116156101000203166002900480156126aa5780601f1061267f576101008083540402835291602001916126aa565b820191906000526020600020905b81548152906001019060200180831161268d57829003601f168201915b5050505050935095509550955095509550955091939550919395565b600060149054906101000a900463ffffffff1681565b6000816040516020018082805190602001908083835b6020831061271557805182526020820191506020810190506020830392506126f2565b6001836020036101000a03801982511681845116808217855250505050505090500191505060405160208183030381529060405280519060200120600260008773ffffffffffffffffffffffffffffffffffffffff1673ffffffffffffffffffffffffffffffffffffffff16815260200190815260200160002060020160405160200180828054600181600116156101000203166002900480156127f05780601f106127ce5761010080835404028352918201916127f0565b820191906000526020600020905b8154815290600101906020018083116127dc575b5050915050604051602081830303815290604052805190602001201415612a8257836040516020018082805190602001908083835b602083106128485780518252602082019150602081019050602083039250612825565b6001836020036101000a03801982511681845116808217855250505050505090500191505060405160208183030381529060405280519060200120600260008773ffffffffffffffffffffffffffffffffffffffff1673ffffffffffffffffffffffffffffffffffffffff16815260200190815260200160002060000160405160200180828054600181600116156101000203166002900480156129235780601f10612901576101008083540402835291820191612923565b820191906000526020600020905b81548152906001019060200180831161290f575b5050915050604051602081830303815290604052805190602001201415612a8157826040516020018082805190602001908083835b6020831061297b5780518252602082019150602081019050602083039250612958565b6001836020036101000a03801982511681845116808217855250505050505090500191505060405160208183030381529060405280519060200120600260008773ffffffffffffffffffffffffffffffffffffffff1673ffffffffffffffffffffffffffffffffffffffff1681526020019081526020016000206001016040516020018082805460018160011615610100020316600290048015612a565780601f10612a34576101008083540402835291820191612a56565b820191906000526020600020905b815481529060010190602001808311612a42575b5050915050604051602081830303815290604052805190602001201415612a805760019050612a87565b5b5b600090505b949350505050565b600081600160008263ffffffff1663ffffffff16815260200190815260200160002060030160009054906101000a900473ffffffffffffffffffffffffffffffffffffffff1673ffffffffffffffffffffffffffffffffffffffff163273ffffffffffffffffffffffffffffffffffffffff1614612b0c57600080fd5b612b146150c8565b600260008773ffffffffffffffffffffffffffffffffffffffff1673ffffffffffffffffffffffffffffffffffffffff168152602001908152602001600020604051806080016040529081600082018054600181600116156101000203166002900480601f016020809104026020016040519081016040528092919081815260200182805460018160011615610100020316600290048015612bf75780601f10612bcc57610100808354040283529160200191612bf7565b820191906000526020600020905b815481529060010190602001808311612bda57829003601f168201915b50505050508152602001600182018054600181600116156101000203166002900480601f016020809104026020016040519081016040528092919081815260200182805460018160011615610100020316600290048015612c995780601f10612c6e57610100808354040283529160200191612c99565b820191906000526020600020905b815481529060010190602001808311612c7c57829003601f168201915b50505050508152602001600282018054600181600116156101000203166002900480601f016020809104026020016040519081016040528092919081815260200182805460018160011615610100020316600290048015612d3b5780601f10612d1057610100808354040283529160200191612d3b565b820191906000526020600020905b815481529060010190602001808311612d1e57829003601f168201915b505050505081526020016003820160009054906101000a900473ffffffffffffffffffffffffffffffffffffffff1673ffffffffffffffffffffffffffffffffffffffff1673ffffffffffffffffffffffffffffffffffffffff16815250509050612da46150c8565b600260008773ffffffffffffffffffffffffffffffffffffffff1673ffffffffffffffffffffffffffffffffffffffff168152602001908152602001600020604051806080016040529081600082018054600181600116156101000203166002900480601f016020809104026020016040519081016040528092919081815260200182805460018160011615610100020316600290048015612e875780601f10612e5c57610100808354040283529160200191612e87565b820191906000526020600020905b815481529060010190602001808311612e6a57829003601f168201915b50505050508152602001600182018054600181600116156101000203166002900480601f016020809104026020016040519081016040528092919081815260200182805460018160011615610100020316600290048015612f295780601f10612efe57610100808354040283529160200191612f29565b820191906000526020600020905b815481529060010190602001808311612f0c57829003601f168201915b50505050508152602001600282018054600181600116156101000203166002900480601f016020809104026020016040519081016040528092919081815260200182805460018160011615610100020316600290048015612fcb5780601f10612fa057610100808354040283529160200191612fcb565b820191906000526020600020905b815481529060010190602001808311612fae57829003601f168201915b505050505081526020016003820160009054906101000a900473ffffffffffffffffffffffffffffffffffffffff1673ffffffffffffffffffffffffffffffffffffffff1673ffffffffffffffffffffffffffffffffffffffff16815250509050600080601c81819054906101000a900463ffffffff168092919060010191906101000a81548163ffffffff021916908363ffffffff160217905550905060405180807f4d616e7566616374757265720000000000000000000000000000000000000000815250600c019050604051809103902083604001516040516020018082805190602001908083835b602083106130da57805182526020820191506020810190506020830392506130b7565b6001836020036101000a038019825116818451168082178552505050505050905001915050604051602081830303815290604052805190602001201480156131cb575060405180807f537570706c6965720000000000000000000000000000000000000000000000008152506008019050604051809103902082604001516040516020018082805190602001908083835b6020831061318e578051825260208201915060208101905060208303925061316b565b6001836020036101000a03801982511681845116808217855250505050505090500191505060405160208183030381529060405280519060200120145b156134375785600360008363ffffffff1663ffffffff16815260200190815260200160002060000160006101000a81548163ffffffff021916908363ffffffff1602179055508160600151600360008363ffffffff1663ffffffff16815260200190815260200160002060010160006101000a81548173ffffffffffffffffffffffffffffffffffffffff021916908373ffffffffffffffffffffffffffffffffffffffff16021790555086600360008363ffffffff1663ffffffff16815260200190815260200160002060000160046101000a81548173ffffffffffffffffffffffffffffffffffffffff021916908373ffffffffffffffffffffffffffffffffffffffff16021790555042600360008363ffffffff1663ffffffff16815260200190815260200160002060000160186101000a81548163ffffffff021916908363ffffffff1602179055508160600151600160008863ffffffff1663ffffffff16815260200190815260200160002060030160006101000a81548173ffffffffffffffffffffffffffffffffffffffff021916908373ffffffffffffffffffffffffffffffffffffffff160217905550600460008763ffffffff1663ffffffff1681526020019081526020016000208190806001815401808255809150506001900390600052602060002090600891828204019190066004029091909190916101000a81548163ffffffff021916908363ffffffff1602179055507f4a7c2ed8675655246e11580786ba8a73e92e426d177368a8697ead49925146c286604051808263ffffffff1663ffffffff16815260200191505060405180910390a160019450505050613bdb565b60405180807f537570706c6965720000000000000000000000000000000000000000000000008152506008019050604051809103902083604001516040516020018082805190602001908083835b602083106134a85780518252602082019150602081019050602083039250613485565b6001836020036101000a03801982511681845116808217855250505050505090500191505060405160208183030381529060405280519060200120148015613599575060405180807f537570706c6965720000000000000000000000000000000000000000000000008152506008019050604051809103902082604001516040516020018082805190602001908083835b6020831061355c5780518252602082019150602081019050602083039250613539565b6001836020036101000a03801982511681845116808217855250505050505090500191505060405160208183030381529060405280519060200120145b156138055785600360008363ffffffff1663ffffffff16815260200190815260200160002060000160006101000a81548163ffffffff021916908363ffffffff1602179055508160600151600360008363ffffffff1663ffffffff16815260200190815260200160002060010160006101000a81548173ffffffffffffffffffffffffffffffffffffffff021916908373ffffffffffffffffffffffffffffffffffffffff16021790555086600360008363ffffffff1663ffffffff16815260200190815260200160002060000160046101000a81548173ffffffffffffffffffffffffffffffffffffffff021916908373ffffffffffffffffffffffffffffffffffffffff16021790555042600360008363ffffffff1663ffffffff16815260200190815260200160002060000160186101000a81548163ffffffff021916908363ffffffff1602179055508160600151600160008863ffffffff1663ffffffff16815260200190815260200160002060030160006101000a81548173ffffffffffffffffffffffffffffffffffffffff021916908373ffffffffffffffffffffffffffffffffffffffff160217905550600460008763ffffffff1663ffffffff1681526020019081526020016000208190806001815401808255809150506001900390600052602060002090600891828204019190066004029091909190916101000a81548163ffffffff021916908363ffffffff1602179055507f4a7c2ed8675655246e11580786ba8a73e92e426d177368a8697ead49925146c286604051808263ffffffff1663ffffffff16815260200191505060405180910390a160019450505050613bdb565b60405180807f537570706c6965720000000000000000000000000000000000000000000000008152506008019050604051809103902083604001516040516020018082805190602001908083835b602083106138765780518252602082019150602081019050602083039250613853565b6001836020036101000a03801982511681845116808217855250505050505090500191505060405160208183030381529060405280519060200120148015613967575060405180807f436f6e73756d65720000000000000000000000000000000000000000000000008152506008019050604051809103902082604001516040516020018082805190602001908083835b6020831061392a5780518252602082019150602081019050602083039250613907565b6001836020036101000a03801982511681845116808217855250505050505090500191505060405160208183030381529060405280519060200120145b15613bd35785600360008363ffffffff1663ffffffff16815260200190815260200160002060000160006101000a81548163ffffffff021916908363ffffffff1602179055508160600151600360008363ffffffff1663ffffffff16815260200190815260200160002060010160006101000a81548173ffffffffffffffffffffffffffffffffffffffff021916908373ffffffffffffffffffffffffffffffffffffffff16021790555086600360008363ffffffff1663ffffffff16815260200190815260200160002060000160046101000a81548173ffffffffffffffffffffffffffffffffffffffff021916908373ffffffffffffffffffffffffffffffffffffffff16021790555042600360008363ffffffff1663ffffffff16815260200190815260200160002060000160186101000a81548163ffffffff021916908363ffffffff1602179055508160600151600160008863ffffffff1663ffffffff16815260200190815260200160002060030160006101000a81548173ffffffffffffffffffffffffffffffffffffffff021916908373ffffffffffffffffffffffffffffffffffffffff160217905550600460008763ffffffff1663ffffffff1681526020019081526020016000208190806001815401808255809150506001900390600052602060002090600891828204019190066004029091909190916101000a81548163ffffffff021916908363ffffffff1602179055507f4a7c2ed8675655246e11580786ba8a73e92e426d177368a8697ead49925146c286604051808263ffffffff1663ffffffff16815260200191505060405180910390a160019450505050613bdb565b600094505050505b509392505050565b606060006060600260008573ffffffffffffffffffffffffffffffffffffffff1673ffffffffffffffffffffffffffffffffffffffff168152602001908152602001600020600001600260008673ffffffffffffffffffffffffffffffffffffffff1673ffffffffffffffffffffffffffffffffffffffff16815260200190815260200160002060030160009054906101000a900473ffffffffffffffffffffffffffffffffffffffff16600260008773ffffffffffffffffffffffffffffffffffffffff1673ffffffffffffffffffffffffffffffffffffffff168152602001908152602001600020600201828054600181600116156101000203166002900480601f016020809104026020016040519081016040528092919081815260200182805460018160011615610100020316600290048015613d655780601f10613d3a57610100808354040283529160200191613d65565b820191906000526020600020905b815481529060010190602001808311613d4857829003601f168201915b50505050509250808054600181600116156101000203166002900480601f016020809104026020016040519081016040528092919081815260200182805460018160011615610100020316600290048015613e015780601f10613dd657610100808354040283529160200191613e01565b820191906000526020600020905b815481529060010190602001808311613de457829003601f168201915b505050505090509250925092509193909250565b6000606080868686866040516024018080602001806020018573ffffffffffffffffffffffffffffffffffffffff1673ffffffffffffffffffffffffffffffffffffffff16815260200180602001848103845288818151815260200191508051906020019080838360005b83811015613e9b578082015181840152602081019050613e80565b50505050905090810190601f168015613ec85780820380516001836020036101000a031916815260200191505b50848103835287818151815260200191508051906020019080838360005b83811015613f01578082015181840152602081019050613ee6565b50505050905090810190601f168015613f2e5780820380516001836020036101000a031916815260200191505b50848103825285818151815260200191508051906020019080838360005b83811015613f67578082015181840152602081019050613f4c565b50505050905090810190601f168015613f945780820380516001836020036101000a031916815260200191505b509750505050505050506040516020818303038152906040527f89138c00000000000000000000000000000000000000000000000000000000007bffffffffffffffffffffffffffffffffffffffffffffffffffffffff19166020820180517bffffffffffffffffffffffffffffffffffffffffffffffffffffffff8381831617835250505050905060006060600560009054906101000a900473ffffffffffffffffffffffffffffffffffffffff1673ffffffffffffffffffffffffffffffffffffffff16836040518082805190602001908083835b6020831061408e578051825260208201915060208101905060208303925061406b565b6001836020036101000a0380198251168184511680821785525050505050509050019150506000604051808303816000865af19150503d80600081146140f0576040519150601f19603f3d011682016040523d82523d6000602084013e6140f5565b606091505b50915091508161410e5760008194509450505050614119565b600181945094505050505b94509492505050565b600060608083604051602401808263ffffffff1663ffffffff1681526020019150506040516020818303038152906040527f28d5b69a000000000000000000000000000000000000000000000000000000007bffffffffffffffffffffffffffffffffffffffffffffffffffffffff19166020820180517bffffffffffffffffffffffffffffffffffffffffffffffffffffffff8381831617835250505050905060006060600560009054906101000a900473ffffffffffffffffffffffffffffffffffffffff1673ffffffffffffffffffffffffffffffffffffffff16836040518082805190602001908083835b602083106142345780518252602082019150602081019050602083039250614211565b6001836020036101000a0380198251168184511680821785525050505050509050019150506000604051808303816000865af19150503d8060008114614296576040519150601f19603f3d011682016040523d82523d6000602084013e61429b565b606091505b5091509150816142b457600081945094505050506142bf565b600181945094505050505b915091565b60036020528060005260406000206000915090508060000160009054906101000a900463ffffffff16908060000160049054906101000a900473ffffffffffffffffffffffffffffffffffffffff16908060000160189054906101000a900463ffffffff16908060010160009054906101000a900473ffffffffffffffffffffffffffffffffffffffff16905084565b600084600260003273ffffffffffffffffffffffffffffffffffffffff1673ffffffffffffffffffffffffffffffffffffffff16815260200190815260200160002060000190805190602001906143ac929190615048565b5083600260003273ffffffffffffffffffffffffffffffffffffffff1673ffffffffffffffffffffffffffffffffffffffff1681526020019081526020016000206001019080519060200190614403929190615048565b5082600260003273ffffffffffffffffffffffffffffffffffffffff1673ffffffffffffffffffffffffffffffffffffffff16815260200190815260200160002060030160006101000a81548173ffffffffffffffffffffffffffffffffffffffff021916908373ffffffffffffffffffffffffffffffffffffffff16021790555081600260003273ffffffffffffffffffffffffffffffffffffffff1673ffffffffffffffffffffffffffffffffffffffff16815260200190815260200160002060020190805190602001906144db929190615048565b506000601881819054906101000a900463ffffffff168092919060010191906101000a81548163ffffffff021916908363ffffffff16021790555050829050949350505050565b6060600460008363ffffffff1663ffffffff1681526020019081526020016000208054806020026020016040519081016040528092919081815260200182805480156145b957602002820191906000526020600020906000905b82829054906101000a900463ffffffff1663ffffffff168152602001906004019060208260030104928301926001038202915080841161457c5790505b50505050509050919050565b6000806000806145d3615106565b600360008763ffffffff1663ffffffff1681526020019081526020016000206040518060800160405290816000820160009054906101000a900463ffffffff1663ffffffff1663ffffffff1681526020016000820160049054906101000a900473ffffffffffffffffffffffffffffffffffffffff1673ffffffffffffffffffffffffffffffffffffffff1673ffffffffffffffffffffffffffffffffffffffff1681526020016000820160189054906101000a900463ffffffff1663ffffffff1663ffffffff1681526020016001820160009054906101000a900473ffffffffffffffffffffffffffffffffffffffff1673ffffffffffffffffffffffffffffffffffffffff1673ffffffffffffffffffffffffffffffffffffffff1681525050905080600001518160200151826060015183604001519450945094509450509193509193565b6001602052806000526040600020600091509050806000018054600181600116156101000203166002900480601f0160208091040260200160405190810160405280929190818152602001828054600181600116156101000203166002900480156147c75780601f1061479c576101008083540402835291602001916147c7565b820191906000526020600020905b8154815290600101906020018083116147aa57829003601f168201915b505050505090806001018054600181600116156101000203166002900480601f0160208091040260200160405190810160405280929190818152602001828054600181600116156101000203166002900480156148655780601f1061483a57610100808354040283529160200191614865565b820191906000526020600020905b81548152906001019060200180831161484857829003601f168201915b505050505090806002018054600181600116156101000203166002900480601f0160208091040260200160405190810160405280929190818152602001828054600181600116156101000203166002900480156149035780601f106148d857610100808354040283529160200191614903565b820191906000526020600020905b8154815290600101906020018083116148e657829003601f168201915b5050505050908060030160009054906101000a900473ffffffffffffffffffffffffffffffffffffffff16908060030160149054906101000a900463ffffffff16908060030160189054906101000a900463ffffffff16905086565b6000606080858585604051602401808473ffffffffffffffffffffffffffffffffffffffff1673ffffffffffffffffffffffffffffffffffffffff1681526020018373ffffffffffffffffffffffffffffffffffffffff1673ffffffffffffffffffffffffffffffffffffffff1681526020018263ffffffff1663ffffffff16815260200193505050506040516020818303038152906040527f38fdd268000000000000000000000000000000000000000000000000000000007bffffffffffffffffffffffffffffffffffffffffffffffffffffffff19166020820180517bffffffffffffffffffffffffffffffffffffffffffffffffffffffff8381831617835250505050905060006060600560009054906101000a900473ffffffffffffffffffffffffffffffffffffffff1673ffffffffffffffffffffffffffffffffffffffff16836040518082805190602001908083835b60208310614ad95780518252602082019150602081019050602083039250614ab6565b6001836020036101000a0380198251168184511680821785525050505050509050019150506000604051808303816000865af19150503d8060008114614b3b576040519150601f19603f3d011682016040523d82523d6000602084013e614b40565b606091505b509150915081614b595760008194509450505050614b64565b600181945094505050505b935093915050565b600060189054906101000a900463ffffffff1681565b600060608083604051602401808273ffffffffffffffffffffffffffffffffffffffff1673ffffffffffffffffffffffffffffffffffffffff1681526020019150506040516020818303038152906040527f44e0b8c1000000000000000000000000000000000000000000000000000000007bffffffffffffffffffffffffffffffffffffffffffffffffffffffff19166020820180517bffffffffffffffffffffffffffffffffffffffffffffffffffffffff8381831617835250505050905060006060600560009054906101000a900473ffffffffffffffffffffffffffffffffffffffff1673ffffffffffffffffffffffffffffffffffffffff16836040518082805190602001908083835b60208310614cb45780518252602082019150602081019050602083039250614c91565b6001836020036101000a0380198251168184511680821785525050505050509050019150506000604051808303816000865af19150503d8060008114614d16576040519150601f19603f3d011682016040523d82523d6000602084013e614d1b565b606091505b509150915081614d345760008194509450505050614d3f565b600181945094505050505b915091565b600060608087878787604051602401808060200180602001806020018563ffffffff1663ffffffff168152602001848103845288818151815260200191508051906020019080838360005b83811015614daa578082015181840152602081019050614d8f565b50505050905090810190601f168015614dd75780820380516001836020036101000a031916815260200191505b50848103835287818151815260200191508051906020019080838360005b83811015614e10578082015181840152602081019050614df5565b50505050905090810190601f168015614e3d5780820380516001836020036101000a031916815260200191505b50848103825286818151815260200191508051906020019080838360005b83811015614e76578082015181840152602081019050614e5b565b50505050905090810190601f168015614ea35780820380516001836020036101000a031916815260200191505b509750505050505050506040516020818303038152906040527f1169559e000000000000000000000000000000000000000000000000000000007bffffffffffffffffffffffffffffffffffffffffffffffffffffffff19166020820180517bffffffffffffffffffffffffffffffffffffffffffffffffffffffff8381831617835250505050905060006060600560009054906101000a900473ffffffffffffffffffffffffffffffffffffffff1673ffffffffffffffffffffffffffffffffffffffff16836040518082805190602001908083835b60208310614f9d5780518252602082019150602081019050602083039250614f7a565b6001836020036101000a0380198251168184511680821785525050505050509050019150506000604051808303816000865af19150503d8060008114614fff576040519150601f19603f3d011682016040523d82523d6000602084013e615004565b606091505b50915091508161501d5760008194509450505050615028565b600181945094505050505b9550959350505050565b6000601c9054906101000a900463ffffffff1681565b828054600181600116156101000203166002900490600052602060002090601f016020900481019282601f1061508957805160ff19168380011785556150b7565b828001600101855582156150b7579182015b828111156150b657825182559160200191906001019061509b565b5b5090506150c49190615166565b5090565b6040518060800160405280606081526020016060815260200160608152602001600073ffffffffffffffffffffffffffffffffffffffff1681525090565b6040518060800160405280600063ffffffff168152602001600073ffffffffffffffffffffffffffffffffffffffff168152602001600063ffffffff168152602001600073ffffffffffffffffffffffffffffffffffffffff1681525090565b61518891905b8082111561518457600081600090555060010161516c565b5090565b9056fea26469706673582212205d202495c004a4dfa7ee778a18d0928285e50b313cb8a44e177e3ed1c41eebbe64736f6c63430006010033",
  "source": "pragma solidity ^0.6.1;\r\nimport \"./SupplyChainStorage.sol\";\r\n\r\ncontract SupplyChainLogic is SupplyChainStorage {\r\n    address target;\r\n\r\n    constructor(address _target) public {\r\n        target = _target;\r\n    }\r\n\r\n    function invoke_create_participant(\r\n        string memory _name,\r\n        string memory _pass,\r\n        address _pAdd,\r\n        string memory _pType\r\n    ) public returns (bool, bytes memory) {\r\n        bytes memory payload = abi.encodeWithSignature(\r\n            \"createParticipant(string,string,address,string)\",\r\n            _name,\r\n            _pass,\r\n            _pAdd,\r\n            _pType\r\n        );\r\n\r\n        (bool ok, bytes memory res) = target.call(payload);\r\n        if (!ok) {\r\n            return (false, res);\r\n        } else {\r\n            return (true, res);\r\n        }\r\n    }\r\n\r\n    function createParticipant(\r\n        string memory _name,\r\n        string memory _pass,\r\n        address _pAdd,\r\n        string memory _pType\r\n    ) public returns (address) {\r\n        participants[tx.origin].userName = _name;\r\n        participants[tx.origin].password = _pass;\r\n        participants[tx.origin].participantAddress = _pAdd;\r\n        participants[tx.origin].participantType = _pType;\r\n        participant_counter++;\r\n        return _pAdd;\r\n    }\r\n\r\n    function invoke_get_participant_details(address _p_address)\r\n        public\r\n        returns (bool, bytes memory)\r\n    {\r\n        bytes memory payload = abi.encodeWithSignature(\r\n            \"getParticipantDetails(address)\",\r\n            _p_address\r\n        );\r\n\r\n        (bool ok, bytes memory res) = target.call(payload);\r\n        if (!ok) {\r\n            return (false, res);\r\n        } else {\r\n            return (true, res);\r\n        }\r\n    }\r\n\r\n    function getParticipantDetails(address _p_address)\r\n        public\r\n        view\r\n        returns (string memory, address, string memory)\r\n    {\r\n        return (\r\n            participants[_p_address].userName,\r\n            participants[_p_address].participantAddress,\r\n            participants[_p_address].participantType\r\n        );\r\n    }\r\n\r\n    function invoke_create_product(\r\n        string memory _modelNumber,\r\n        string memory _partNumber,\r\n        string memory _serialNumber,\r\n        uint32 _productCost,\r\n        address _productOwner\r\n    ) public returns (bool, bytes memory) {\r\n        bytes memory payload = abi.encodeWithSignature(\r\n            \"createProduct(string,string,string,uint32)\",\r\n            _modelNumber,\r\n            _partNumber,\r\n            _serialNumber,\r\n            _productCost\r\n        );\r\n\r\n        (bool ok, bytes memory res) = target.call(payload);\r\n        if (!ok) {\r\n            return (false, res);\r\n        } else {\r\n            return (true, res);\r\n        }\r\n    }\r\n\r\n    function createProduct(\r\n        string memory _modelNumber,\r\n        string memory _partNumber,\r\n        string memory _serialNumber,\r\n        uint32 _productCost\r\n    ) public returns (uint32) {\r\n        if (\r\n            keccak256(\r\n                abi.encodePacked(participants[tx.origin].participantType)\r\n            ) ==\r\n            keccak256(\"Manufacturer\")\r\n        ) {\r\n            uint32 productId = product_counter++;\r\n            uint32 registration_id = registration_counter++;\r\n            products[productId].modelNumber = _modelNumber;\r\n            products[productId].partNumber = _partNumber;\r\n            products[productId].serialNumber = _serialNumber;\r\n            products[productId].cost = _productCost;\r\n            products[productId].productOwner = participants[tx.origin]\r\n                .participantAddress;\r\n            products[productId].mfgTimeStamp = uint32(now);\r\n\r\n            registrations[registration_id].productId = productId;\r\n            registrations[registration_id].productOwner = tx.origin;\r\n            registrations[registration_id].ownerAddress = tx.origin;\r\n            registrations[registration_id].trxTimeStamp = uint32(now);\r\n            productTrack[productId].push(registration_id);\r\n\r\n            return productId;\r\n        }\r\n\r\n        return 0;\r\n    }\r\n\r\n    modifier onlyProductOwner(uint32 _productId) {\r\n        require(tx.origin == products[_productId].productOwner);\r\n        _;\r\n    }\r\n    function invoke_get_product_details(uint32 _productId)\r\n        public\r\n        returns (bool, bytes memory)\r\n    {\r\n        bytes memory payload = abi.encodeWithSignature(\r\n            \"getProductDetails(uint32)\",\r\n            _productId\r\n        );\r\n\r\n        (bool ok, bytes memory res) = target.call(payload);\r\n        if (!ok) {\r\n            return (false, res);\r\n        } else {\r\n            return (true, res);\r\n        }\r\n    }\r\n\r\n    function getProductDetails(uint32 _productId)\r\n        public\r\n        view\r\n        returns (\r\n            string memory,\r\n            string memory,\r\n            string memory,\r\n            uint32,\r\n            address,\r\n            uint32\r\n        )\r\n    {\r\n        return (\r\n            products[_productId].modelNumber,\r\n            products[_productId].partNumber,\r\n            products[_productId].serialNumber,\r\n            products[_productId].cost,\r\n            products[_productId].productOwner,\r\n            products[_productId].mfgTimeStamp\r\n        );\r\n    }\r\n\r\n    function invoke_transfer_to_owner(\r\n        address _user1Address,\r\n        address _user2Address,\r\n        uint32 _prodId\r\n    ) public returns (bool, bytes memory) {\r\n        bytes memory payload = abi.encodeWithSignature(\r\n            \"transferToOwner(address,address,uint32)\",\r\n            _user1Address,\r\n            _user2Address,\r\n            _prodId\r\n        );\r\n\r\n        (bool ok, bytes memory res) = target.call(payload);\r\n        if (!ok) {\r\n            return (false, res);\r\n        } else {\r\n            return (true, res);\r\n        }\r\n    }\r\n\r\n    function transferToOwner(\r\n        address _user1Address,\r\n        address _user2Address,\r\n        uint32 _prodId\r\n    ) public onlyProductOwner(_prodId) returns (bool) {\r\n        participant memory p1 = participants[_user1Address];\r\n        participant memory p2 = participants[_user2Address];\r\n        uint32 registration_id = registration_counter++;\r\n\r\n        if (\r\n            keccak256(abi.encodePacked(p1.participantType)) ==\r\n            keccak256(\"Manufacturer\") &&\r\n            keccak256(abi.encodePacked(p2.participantType)) ==\r\n            keccak256(\"Supplier\")\r\n        ) {\r\n            registrations[registration_id].productId = _prodId;\r\n            registrations[registration_id].productOwner = p2.participantAddress;\r\n            registrations[registration_id].ownerAddress = _user2Address;\r\n            registrations[registration_id].trxTimeStamp = uint32(now);\r\n            products[_prodId].productOwner = p2.participantAddress;\r\n            productTrack[_prodId].push(registration_id);\r\n            emit Transfer(_prodId);\r\n\r\n            return (true);\r\n        } else if (\r\n            keccak256(abi.encodePacked(p1.participantType)) ==\r\n            keccak256(\"Supplier\") &&\r\n            keccak256(abi.encodePacked(p2.participantType)) ==\r\n            keccak256(\"Supplier\")\r\n        ) {\r\n            registrations[registration_id].productId = _prodId;\r\n            registrations[registration_id].productOwner = p2.participantAddress;\r\n            registrations[registration_id].ownerAddress = _user2Address;\r\n            registrations[registration_id].trxTimeStamp = uint32(now);\r\n            products[_prodId].productOwner = p2.participantAddress;\r\n            productTrack[_prodId].push(registration_id);\r\n            emit Transfer(_prodId);\r\n\r\n            return (true);\r\n        } else if (\r\n            keccak256(abi.encodePacked(p1.participantType)) ==\r\n            keccak256(\"Supplier\") &&\r\n            keccak256(abi.encodePacked(p2.participantType)) ==\r\n            keccak256(\"Consumer\")\r\n        ) {\r\n            registrations[registration_id].productId = _prodId;\r\n            registrations[registration_id].productOwner = p2.participantAddress;\r\n            registrations[registration_id].ownerAddress = _user2Address;\r\n            registrations[registration_id].trxTimeStamp = uint32(now);\r\n            products[_prodId].productOwner = p2.participantAddress;\r\n            productTrack[_prodId].push(registration_id);\r\n            emit Transfer(_prodId);\r\n\r\n            return (true);\r\n        }\r\n\r\n        return (false);\r\n    }\r\n\r\n    function invoke_get_product_track(uint32 _productId)\r\n        public\r\n        returns (bool, bytes memory)\r\n    {\r\n        bytes memory payload = abi.encodeWithSignature(\r\n            \"getProductTrack(uint32)\",\r\n            _productId\r\n        );\r\n\r\n        (bool ok, bytes memory res) = target.call(payload);\r\n        if (!ok) {\r\n            return (false, res);\r\n        } else {\r\n            return (true, res);\r\n        }\r\n    }\r\n\r\n    function getRegistrationDetails(uint32 _regId)\r\n        public\r\n        view\r\n        returns (uint32, address, address, uint32)\r\n    {\r\n        registration memory r = registrations[_regId];\r\n\r\n        return (r.productId, r.ownerAddress, r.productOwner, r.trxTimeStamp);\r\n    }\r\n\r\n    function authenticateParticipant(\r\n        address _uAddress,\r\n        string memory _uname,\r\n        string memory _pass,\r\n        string memory _utype\r\n    ) public view returns (bool) {\r\n        if (\r\n            keccak256(\r\n                abi.encodePacked(participants[_uAddress].participantType)\r\n            ) ==\r\n            keccak256(abi.encodePacked(_utype))\r\n        ) {\r\n            if (\r\n                keccak256(abi.encodePacked(participants[_uAddress].userName)) ==\r\n                keccak256(abi.encodePacked(_uname))\r\n            ) {\r\n                if (\r\n                    keccak256(\r\n                        abi.encodePacked(participants[_uAddress].password)\r\n                    ) ==\r\n                    keccak256(abi.encodePacked(_pass))\r\n                ) {\r\n                    return (true);\r\n                }\r\n            }\r\n        }\r\n        return (false);\r\n    }\r\n}\r\n",
  "sourcePath": "C:/Users/Laptop001/vue-chain/truffle/contracts/SupplyChainLogic.sol",
  "compiler": {
    "name": "solc",
    "version": "0.6.1+commit.e6f7d5a4.Emscripten.clang"
  },
  "schemaVersion": "3.0.22",
  "updatedAt": "2020-03-23T02:08:10.347Z",
  "networkType": "ethereum",
  "devdoc": {
    "methods": {}
  },
  "userdoc": {
    "methods": {}
  }
}