{
  "contractName": "SupplyChainLogic_3",
  "abi": [
    {
      "anonymous": false,
      "inputs": [
        {
          "indexed": false,
          "internalType": "uint32",
          "name": "productId",
          "type": "uint32"
        }
      ],
      "name": "Transfer",
      "type": "event"
    },
    {
      "inputs": [
        {
          "internalType": "uint32",
          "name": "_prodId",
          "type": "uint32"
        }
      ],
      "name": "getProductTrack",
      "outputs": [
        {
          "internalType": "uint32[]",
          "name": "",
          "type": "uint32[]"
        }
      ],
      "stateMutability": "view",
      "type": "function",
      "constant": true
    },
    {
      "inputs": [],
      "name": "part_counter",
      "outputs": [
        {
          "internalType": "uint32",
          "name": "",
          "type": "uint32"
        }
      ],
      "stateMutability": "view",
      "type": "function",
      "constant": true
    },
    {
      "inputs": [],
      "name": "participant_counter",
      "outputs": [
        {
          "internalType": "uint32",
          "name": "",
          "type": "uint32"
        }
      ],
      "stateMutability": "view",
      "type": "function",
      "constant": true
    },
    {
      "inputs": [
        {
          "internalType": "address",
          "name": "",
          "type": "address"
        }
      ],
      "name": "participants",
      "outputs": [
        {
          "internalType": "string",
          "name": "userName",
          "type": "string"
        },
        {
          "internalType": "string",
          "name": "password",
          "type": "string"
        },
        {
          "internalType": "string",
          "name": "participantType",
          "type": "string"
        },
        {
          "internalType": "address",
          "name": "participantAddress",
          "type": "address"
        }
      ],
      "stateMutability": "view",
      "type": "function",
      "constant": true
    },
    {
      "inputs": [
        {
          "internalType": "uint32",
          "name": "",
          "type": "uint32"
        }
      ],
      "name": "parts",
      "outputs": [
        {
          "internalType": "string",
          "name": "partNumber",
          "type": "string"
        },
        {
          "internalType": "string",
          "name": "serialNumber",
          "type": "string"
        },
        {
          "internalType": "uint32",
          "name": "cost",
          "type": "uint32"
        },
        {
          "internalType": "uint32",
          "name": "mfgTimeStamp",
          "type": "uint32"
        },
        {
          "internalType": "int32",
          "name": "productId",
          "type": "int32"
        }
      ],
      "stateMutability": "view",
      "type": "function",
      "constant": true
    },
    {
      "inputs": [
        {
          "internalType": "uint32",
          "name": "",
          "type": "uint32"
        },
        {
          "internalType": "uint256",
          "name": "",
          "type": "uint256"
        }
      ],
      "name": "productTrack",
      "outputs": [
        {
          "internalType": "uint32",
          "name": "",
          "type": "uint32"
        }
      ],
      "stateMutability": "view",
      "type": "function",
      "constant": true
    },
    {
      "inputs": [],
      "name": "product_counter",
      "outputs": [
        {
          "internalType": "uint32",
          "name": "",
          "type": "uint32"
        }
      ],
      "stateMutability": "view",
      "type": "function",
      "constant": true
    },
    {
      "inputs": [
        {
          "internalType": "uint32",
          "name": "",
          "type": "uint32"
        }
      ],
      "name": "products",
      "outputs": [
        {
          "internalType": "string",
          "name": "modelNumber",
          "type": "string"
        },
        {
          "internalType": "string",
          "name": "partNumber",
          "type": "string"
        },
        {
          "internalType": "string",
          "name": "serialNumber",
          "type": "string"
        },
        {
          "internalType": "address",
          "name": "productOwner",
          "type": "address"
        },
        {
          "internalType": "uint32",
          "name": "cost",
          "type": "uint32"
        },
        {
          "internalType": "uint32",
          "name": "mfgTimeStamp",
          "type": "uint32"
        }
      ],
      "stateMutability": "view",
      "type": "function",
      "constant": true
    },
    {
      "inputs": [],
      "name": "registration_counter",
      "outputs": [
        {
          "internalType": "uint32",
          "name": "",
          "type": "uint32"
        }
      ],
      "stateMutability": "view",
      "type": "function",
      "constant": true
    },
    {
      "inputs": [
        {
          "internalType": "uint32",
          "name": "",
          "type": "uint32"
        }
      ],
      "name": "registrations",
      "outputs": [
        {
          "internalType": "uint32",
          "name": "productId",
          "type": "uint32"
        },
        {
          "internalType": "address",
          "name": "ownerAddress",
          "type": "address"
        },
        {
          "internalType": "uint32",
          "name": "trxTimeStamp",
          "type": "uint32"
        },
        {
          "internalType": "address",
          "name": "productOwner",
          "type": "address"
        }
      ],
      "stateMutability": "view",
      "type": "function",
      "constant": true
    },
    {
      "inputs": [
        {
          "internalType": "string",
          "name": "_name",
          "type": "string"
        },
        {
          "internalType": "string",
          "name": "_pass",
          "type": "string"
        },
        {
          "internalType": "address",
          "name": "_pAdd",
          "type": "address"
        },
        {
          "internalType": "string",
          "name": "_pType",
          "type": "string"
        }
      ],
      "name": "createParticipant",
      "outputs": [
        {
          "internalType": "address",
          "name": "",
          "type": "address"
        }
      ],
      "stateMutability": "nonpayable",
      "type": "function"
    },
    {
      "inputs": [
        {
          "internalType": "address",
          "name": "_p_address",
          "type": "address"
        }
      ],
      "name": "getParticipantDetails",
      "outputs": [
        {
          "internalType": "string",
          "name": "",
          "type": "string"
        },
        {
          "internalType": "address",
          "name": "",
          "type": "address"
        },
        {
          "internalType": "string",
          "name": "",
          "type": "string"
        },
        {
          "internalType": "uint256[]",
          "name": "",
          "type": "uint256[]"
        }
      ],
      "stateMutability": "view",
      "type": "function",
      "constant": true
    },
    {
      "inputs": [
        {
          "internalType": "string",
          "name": "_partNumber",
          "type": "string"
        },
        {
          "internalType": "string",
          "name": "_serialNumber",
          "type": "string"
        },
        {
          "internalType": "uint32",
          "name": "_productCost",
          "type": "uint32"
        }
      ],
      "name": "createPart",
      "outputs": [
        {
          "internalType": "uint32",
          "name": "",
          "type": "uint32"
        }
      ],
      "stateMutability": "nonpayable",
      "type": "function"
    },
    {
      "inputs": [
        {
          "internalType": "uint32",
          "name": "_partId",
          "type": "uint32"
        }
      ],
      "name": "getPartDetails",
      "outputs": [
        {
          "internalType": "string",
          "name": "",
          "type": "string"
        },
        {
          "internalType": "string",
          "name": "",
          "type": "string"
        },
        {
          "internalType": "uint32",
          "name": "",
          "type": "uint32"
        },
        {
          "internalType": "uint32",
          "name": "",
          "type": "uint32"
        },
        {
          "internalType": "int32",
          "name": "",
          "type": "int32"
        }
      ],
      "stateMutability": "view",
      "type": "function",
      "constant": true
    },
    {
      "inputs": [
        {
          "internalType": "string",
          "name": "_modelNumber",
          "type": "string"
        },
        {
          "internalType": "string",
          "name": "_partNumber",
          "type": "string"
        },
        {
          "internalType": "string",
          "name": "_serialNumber",
          "type": "string"
        },
        {
          "internalType": "uint32",
          "name": "_productCost",
          "type": "uint32"
        },
        {
          "internalType": "uint32[]",
          "name": "_parts",
          "type": "uint32[]"
        }
      ],
      "name": "createProduct",
      "outputs": [
        {
          "internalType": "uint32",
          "name": "",
          "type": "uint32"
        }
      ],
      "stateMutability": "nonpayable",
      "type": "function"
    },
    {
      "inputs": [
        {
          "internalType": "uint32",
          "name": "_productId",
          "type": "uint32"
        }
      ],
      "name": "getProductDetails",
      "outputs": [
        {
          "internalType": "string",
          "name": "",
          "type": "string"
        },
        {
          "internalType": "string",
          "name": "",
          "type": "string"
        },
        {
          "internalType": "string",
          "name": "",
          "type": "string"
        },
        {
          "internalType": "uint32",
          "name": "",
          "type": "uint32"
        },
        {
          "internalType": "address",
          "name": "",
          "type": "address"
        },
        {
          "internalType": "uint32",
          "name": "",
          "type": "uint32"
        },
        {
          "internalType": "uint256[]",
          "name": "",
          "type": "uint256[]"
        }
      ],
      "stateMutability": "view",
      "type": "function",
      "constant": true
    },
    {
      "inputs": [
        {
          "internalType": "address",
          "name": "_user1Address",
          "type": "address"
        },
        {
          "internalType": "address",
          "name": "_user2Address",
          "type": "address"
        },
        {
          "internalType": "uint32",
          "name": "_prodId",
          "type": "uint32"
        }
      ],
      "name": "transferToOwner",
      "outputs": [
        {
          "internalType": "bool",
          "name": "",
          "type": "bool"
        }
      ],
      "stateMutability": "nonpayable",
      "type": "function"
    },
    {
      "inputs": [
        {
          "internalType": "uint32",
          "name": "_regId",
          "type": "uint32"
        }
      ],
      "name": "getRegistrationDetails",
      "outputs": [
        {
          "internalType": "uint32",
          "name": "",
          "type": "uint32"
        },
        {
          "internalType": "address",
          "name": "",
          "type": "address"
        },
        {
          "internalType": "address",
          "name": "",
          "type": "address"
        },
        {
          "internalType": "uint32",
          "name": "",
          "type": "uint32"
        }
      ],
      "stateMutability": "view",
      "type": "function",
      "constant": true
    },
    {
      "inputs": [
        {
          "internalType": "address",
          "name": "_uAddress",
          "type": "address"
        },
        {
          "internalType": "string",
          "name": "_uname",
          "type": "string"
        },
        {
          "internalType": "string",
          "name": "_pass",
          "type": "string"
        },
        {
          "internalType": "string",
          "name": "_utype",
          "type": "string"
        }
      ],
      "name": "authenticateParticipant",
      "outputs": [
        {
          "internalType": "bool",
          "name": "",
          "type": "bool"
        }
      ],
      "stateMutability": "view",
      "type": "function",
      "constant": true
    }
  ],
  "bytecode": "0x608060405260008060146101000a81548163ffffffff021916908363ffffffff16021790555060008060186101000a81548163ffffffff021916908363ffffffff160217905550600080601c6101000a81548163ffffffff021916908363ffffffff1602179055506000600160006101000a81548163ffffffff021916908363ffffffff160217905550336000806101000a81548173ffffffffffffffffffffffffffffffffffffffff021916908373ffffffffffffffffffffffffffffffffffffffff160217905550614b6c806100d86000396000f3fe608060405234801561001057600080fd5b506004361061013e576000357c01000000000000000000000000000000000000000000000000000000009004806383a32c55116100ca578063bf712fd61161008e578063bf712fd6146113bb578063cc0f95ad14611599578063e114a17b1461171b578063e5ed9f9214611745578063ff7bb0df1461176f5761013e565b806383a32c5514610e0357806389138c0014610ed0578063a8997d2e14611119578063b4c333ed146111a2578063b9d93d5f146112ee5761013e565b8063297df1cd11610111578063297df1cd1461083c5780633067227e1461086657806338fdd26814610a8757806344e0b8c114610b135780637cb346d014610cb75761013e565b8063062c93eb1461014357806309e69ede146103f05780631a074802146105b857806328d5b69a14610616575b600080fd5b6103ce600480360360a081101561015957600080fd5b810190808035906020019064010000000081111561017657600080fd5b82018360208201111561018857600080fd5b803590602001918460018302840111640100000000831117156101aa57600080fd5b91908080601f016020809104026020016040519081016040528093929190818152602001838380828437600081840152601f19601f8201169050808301925050505050505091929192908035906020019064010000000081111561020d57600080fd5b82018360208201111561021f57600080fd5b8035906020019184600183028401116401000000008311171561024157600080fd5b91908080601f016020809104026020016040519081016040528093929190818152602001838380828437600081840152601f19601f820116905080830192505050505050509192919290803590602001906401000000008111156102a457600080fd5b8201836020820111156102b657600080fd5b803590602001918460018302840111640100000000831117156102d857600080fd5b91908080601f016020809104026020016040519081016040528093929190818152602001838380828437600081840152601f19601f820116905080830192505050505050509192919290803563ffffffff1690602001909291908035906020019064010000000081111561034b57600080fd5b82018360208201111561035d57600080fd5b8035906020019184602083028401116401000000008311171561037f57600080fd5b919080806020026020016040519081016040528093929190818152602001838360200280828437600081840152601f19601f820116905080830192505050505050509192919290505050611799565b604051808263ffffffff1663ffffffff16815260200191505060405180910390f35b6104326004803603602081101561040657600080fd5b81019080803573ffffffffffffffffffffffffffffffffffffffff169060200190929190505050611d7b565b604051808060200180602001806020018573ffffffffffffffffffffffffffffffffffffffff1673ffffffffffffffffffffffffffffffffffffffff168152602001848103845288818151815260200191508051906020019080838360005b838110156104ac578082015181840152602081019050610491565b50505050905090810190601f1680156104d95780820380516001836020036101000a031916815260200191505b50848103835287818151815260200191508051906020019080838360005b838110156105125780820151818401526020810190506104f7565b50505050905090810190601f16801561053f5780820380516001836020036101000a031916815260200191505b50848103825286818151815260200191508051906020019080838360005b8381101561057857808201518184015260208101905061055d565b50505050905090810190601f1680156105a55780820380516001836020036101000a031916815260200191505b5097505050505050505060405180910390f35b6105f4600480360360408110156105ce57600080fd5b81019080803563ffffffff16906020019092919080359060200190929190505050611f93565b604051808263ffffffff1663ffffffff16815260200191505060405180910390f35b6106486004803603602081101561062c57600080fd5b81019080803563ffffffff169060200190929190505050611fd9565b604051808060200180602001806020018863ffffffff1663ffffffff1681526020018773ffffffffffffffffffffffffffffffffffffffff1673ffffffffffffffffffffffffffffffffffffffff1681526020018663ffffffff1663ffffffff1681526020018060200185810385528c818151815260200191508051906020019080838360005b838110156106ea5780820151818401526020810190506106cf565b50505050905090810190601f1680156107175780820380516001836020036101000a031916815260200191505b5085810384528b818151815260200191508051906020019080838360005b83811015610750578082015181840152602081019050610735565b50505050905090810190601f16801561077d5780820380516001836020036101000a031916815260200191505b5085810383528a818151815260200191508051906020019080838360005b838110156107b657808201518184015260208101905061079b565b50505050905090810190601f1680156107e35780820380516001836020036101000a031916815260200191505b50858103825286818151815260200191508051906020019060200280838360005b8381101561081f578082015181840152602081019050610804565b505050509050019b50505050505050505050505060405180910390f35b610844612355565b604051808263ffffffff1663ffffffff16815260200191505060405180910390f35b610a6d6004803603608081101561087c57600080fd5b81019080803573ffffffffffffffffffffffffffffffffffffffff169060200190929190803590602001906401000000008111156108b957600080fd5b8201836020820111156108cb57600080fd5b803590602001918460018302840111640100000000831117156108ed57600080fd5b91908080601f016020809104026020016040519081016040528093929190818152602001838380828437600081840152601f19601f8201169050808301925050505050505091929192908035906020019064010000000081111561095057600080fd5b82018360208201111561096257600080fd5b8035906020019184600183028401116401000000008311171561098457600080fd5b91908080601f016020809104026020016040519081016040528093929190818152602001838380828437600081840152601f19601f820116905080830192505050505050509192919290803590602001906401000000008111156109e757600080fd5b8201836020820111156109f957600080fd5b80359060200191846001830284011164010000000083111715610a1b57600080fd5b91908080601f016020809104026020016040519081016040528093929190818152602001838380828437600081840152601f19601f82011690508083019250505050505050919291929050505061236b565b604051808215151515815260200191505060405180910390f35b610af960048036036060811015610a9d57600080fd5b81019080803573ffffffffffffffffffffffffffffffffffffffff169060200190929190803573ffffffffffffffffffffffffffffffffffffffff169060200190929190803563ffffffff16906020019092919050505061271e565b604051808215151515815260200191505060405180910390f35b610b5560048036036020811015610b2957600080fd5b81019080803573ffffffffffffffffffffffffffffffffffffffff169060200190929190505050613923565b60405180806020018573ffffffffffffffffffffffffffffffffffffffff1673ffffffffffffffffffffffffffffffffffffffff1681526020018060200180602001848103845288818151815260200191508051906020019080838360005b83811015610bcf578082015181840152602081019050610bb4565b50505050905090810190601f168015610bfc5780820380516001836020036101000a031916815260200191505b50848103835286818151815260200191508051906020019080838360005b83811015610c35578082015181840152602081019050610c1a565b50505050905090810190601f168015610c625780820380516001836020036101000a031916815260200191505b50848103825285818151815260200191508051906020019060200280838360005b83811015610c9e578082015181840152602081019050610c83565b5050505090500197505050505050505060405180910390f35b610ce960048036036020811015610ccd57600080fd5b81019080803563ffffffff169060200190929190505050613bec565b6040518080602001806020018663ffffffff1663ffffffff1681526020018563ffffffff1663ffffffff1681526020018460030b60030b8152602001838103835288818151815260200191508051906020019080838360005b83811015610d5d578082015181840152602081019050610d42565b50505050905090810190601f168015610d8a5780820380516001836020036101000a031916815260200191505b50838103825287818151815260200191508051906020019080838360005b83811015610dc3578082015181840152602081019050610da8565b50505050905090810190601f168015610df05780820380516001836020036101000a031916815260200191505b5097505050505050505060405180910390f35b610e3560048036036020811015610e1957600080fd5b81019080803563ffffffff169060200190929190505050613e19565b604051808563ffffffff1663ffffffff1681526020018473ffffffffffffffffffffffffffffffffffffffff1673ffffffffffffffffffffffffffffffffffffffff1681526020018363ffffffff1663ffffffff1681526020018273ffffffffffffffffffffffffffffffffffffffff1673ffffffffffffffffffffffffffffffffffffffff16815260200194505050505060405180910390f35b6110d760048036036080811015610ee657600080fd5b8101908080359060200190640100000000811115610f0357600080fd5b820183602082011115610f1557600080fd5b80359060200191846001830284011164010000000083111715610f3757600080fd5b91908080601f016020809104026020016040519081016040528093929190818152602001838380828437600081840152601f19601f82011690508083019250505050505050919291929080359060200190640100000000811115610f9a57600080fd5b820183602082011115610fac57600080fd5b80359060200191846001830284011164010000000083111715610fce57600080fd5b91908080601f016020809104026020016040519081016040528093929190818152602001838380828437600081840152601f19601f820116905080830192505050505050509192919290803573ffffffffffffffffffffffffffffffffffffffff1690602001909291908035906020019064010000000081111561105157600080fd5b82018360208201111561106357600080fd5b8035906020019184600183028401116401000000008311171561108557600080fd5b91908080601f016020809104026020016040519081016040528093929190818152602001838380828437600081840152601f19601f820116905080830192505050505050509192919290505050613ea9565b604051808273ffffffffffffffffffffffffffffffffffffffff1673ffffffffffffffffffffffffffffffffffffffff16815260200191505060405180910390f35b61114b6004803603602081101561112f57600080fd5b81019080803563ffffffff169060200190929190505050614077565b6040518080602001828103825283818151815260200191508051906020019060200280838360005b8381101561118e578082015181840152602081019050611173565b505050509050019250505060405180910390f35b6111d4600480360360208110156111b857600080fd5b81019080803563ffffffff16906020019092919050505061411a565b6040518080602001806020018663ffffffff1663ffffffff1681526020018563ffffffff1663ffffffff1681526020018460030b60030b8152602001838103835288818151815260200191508051906020019080838360005b8381101561124857808201518184015260208101905061122d565b50505050905090810190601f1680156112755780820380516001836020036101000a031916815260200191505b50838103825287818151815260200191508051906020019080838360005b838110156112ae578082015181840152602081019050611293565b50505050905090810190601f1680156112db5780820380516001836020036101000a031916815260200191505b5097505050505050505060405180910390f35b6113206004803603602081101561130457600080fd5b81019080803563ffffffff1690602001909291905050506142ad565b604051808563ffffffff1663ffffffff1681526020018473ffffffffffffffffffffffffffffffffffffffff1673ffffffffffffffffffffffffffffffffffffffff1681526020018373ffffffffffffffffffffffffffffffffffffffff1673ffffffffffffffffffffffffffffffffffffffff1681526020018263ffffffff1663ffffffff16815260200194505050505060405180910390f35b6113ed600480360360208110156113d157600080fd5b81019080803563ffffffff169060200190929190505050614403565b604051808060200180602001806020018773ffffffffffffffffffffffffffffffffffffffff1673ffffffffffffffffffffffffffffffffffffffff1681526020018663ffffffff1663ffffffff1681526020018563ffffffff1663ffffffff16815260200184810384528a818151815260200191508051906020019080838360005b8381101561148b578082015181840152602081019050611470565b50505050905090810190601f1680156114b85780820380516001836020036101000a031916815260200191505b50848103835289818151815260200191508051906020019080838360005b838110156114f15780820151818401526020810190506114d6565b50505050905090810190601f16801561151e5780820380516001836020036101000a031916815260200191505b50848103825288818151815260200191508051906020019080838360005b8381101561155757808201518184015260208101905061153c565b50505050905090810190601f1680156115845780820380516001836020036101000a031916815260200191505b50995050505050505050505060405180910390f35b6116f9600480360360608110156115af57600080fd5b81019080803590602001906401000000008111156115cc57600080fd5b8201836020820111156115de57600080fd5b8035906020019184600183028401116401000000008311171561160057600080fd5b91908080601f016020809104026020016040519081016040528093929190818152602001838380828437600081840152601f19601f8201169050808301925050505050505091929192908035906020019064010000000081111561166357600080fd5b82018360208201111561167557600080fd5b8035906020019184600183028401116401000000008311171561169757600080fd5b91908080601f016020809104026020016040519081016040528093929190818152602001838380828437600081840152601f19601f820116905080830192505050505050509192919290803563ffffffff169060200190929190505050614647565b604051808263ffffffff1663ffffffff16815260200191505060405180910390f35b611723614955565b604051808263ffffffff1663ffffffff16815260200191505060405180910390f35b61174d61496b565b604051808263ffffffff1663ffffffff16815260200191505060405180910390f35b611777614981565b604051808263ffffffff1663ffffffff16815260200191505060405180910390f35b600060405180807f4d616e7566616374757265720000000000000000000000000000000000000000815250600c0190506040518091039020600460003373ffffffffffffffffffffffffffffffffffffffff1673ffffffffffffffffffffffffffffffffffffffff16815260200190815260200160002060020160405160200180828054600181600116156101000203166002900480156118715780601f1061184f576101008083540402835291820191611871565b820191906000526020600020905b81548152906001019060200180831161185d575b5050915050604051602081830303815290604052805190602001201415611d6d57600080601881819054906101000a900463ffffffff168092919060010191906101000a81548163ffffffff021916908363ffffffff160217905550905060006001600081819054906101000a900463ffffffff168092919060010191906101000a81548163ffffffff021916908363ffffffff160217905550905087600360008463ffffffff1663ffffffff1681526020019081526020016000206000019080519060200190611943929190614997565b5086600360008463ffffffff1663ffffffff168152602001908152602001600020600101908051906020019061197a929190614997565b5085600360008463ffffffff1663ffffffff16815260200190815260200160002060020190805190602001906119b1929190614997565b5084600360008463ffffffff1663ffffffff16815260200190815260200160002060030160146101000a81548163ffffffff021916908363ffffffff160217905550600460003373ffffffffffffffffffffffffffffffffffffffff1673ffffffffffffffffffffffffffffffffffffffff16815260200190815260200160002060030160009054906101000a900473ffffffffffffffffffffffffffffffffffffffff16600360008463ffffffff1663ffffffff16815260200190815260200160002060030160006101000a81548173ffffffffffffffffffffffffffffffffffffffff021916908373ffffffffffffffffffffffffffffffffffffffff16021790555042600360008463ffffffff1663ffffffff16815260200190815260200160002060030160186101000a81548163ffffffff021916908363ffffffff16021790555083600360008463ffffffff1663ffffffff1681526020019081526020016000206004019080519060200190611b2d929190614a17565b5060008090505b84518163ffffffff161015611bb3576000858263ffffffff1681518110611b5757fe5b6020026020010151905083600260008363ffffffff1663ffffffff16815260200190815260200160002060020160086101000a81548163ffffffff021916908360030b63ffffffff160217905550508080600101915050611b34565b5081600560008363ffffffff1663ffffffff16815260200190815260200160002060000160006101000a81548163ffffffff021916908363ffffffff16021790555033600560008363ffffffff1663ffffffff16815260200190815260200160002060010160006101000a81548173ffffffffffffffffffffffffffffffffffffffff021916908373ffffffffffffffffffffffffffffffffffffffff16021790555033600560008363ffffffff1663ffffffff16815260200190815260200160002060000160046101000a81548173ffffffffffffffffffffffffffffffffffffffff021916908373ffffffffffffffffffffffffffffffffffffffff16021790555042600560008363ffffffff1663ffffffff16815260200190815260200160002060000160186101000a81548163ffffffff021916908363ffffffff160217905550600660008363ffffffff1663ffffffff1681526020019081526020016000208190806001815401808255809150506001900390600052602060002090600891828204019190066004029091909190916101000a81548163ffffffff021916908363ffffffff1602179055508192505050611d72565b600090505b95945050505050565b6004602052806000526040600020600091509050806000018054600181600116156101000203166002900480601f016020809104026020016040519081016040528092919081815260200182805460018160011615610100020316600290048015611e275780601f10611dfc57610100808354040283529160200191611e27565b820191906000526020600020905b815481529060010190602001808311611e0a57829003601f168201915b505050505090806001018054600181600116156101000203166002900480601f016020809104026020016040519081016040528092919081815260200182805460018160011615610100020316600290048015611ec55780601f10611e9a57610100808354040283529160200191611ec5565b820191906000526020600020905b815481529060010190602001808311611ea857829003601f168201915b505050505090806002018054600181600116156101000203166002900480601f016020809104026020016040519081016040528092919081815260200182805460018160011615610100020316600290048015611f635780601f10611f3857610100808354040283529160200191611f63565b820191906000526020600020905b815481529060010190602001808311611f4657829003601f168201915b5050505050908060030160009054906101000a900473ffffffffffffffffffffffffffffffffffffffff16905084565b60066020528160005260406000208181548110611fac57fe5b9060005260206000209060089182820401919006600402915091509054906101000a900463ffffffff1681565b606080606060008060006060600360008963ffffffff1663ffffffff168152602001908152602001600020600001600360008a63ffffffff1663ffffffff168152602001908152602001600020600101600360008b63ffffffff1663ffffffff168152602001908152602001600020600201600360008c63ffffffff1663ffffffff16815260200190815260200160002060030160149054906101000a900463ffffffff16600360008d63ffffffff1663ffffffff16815260200190815260200160002060030160009054906101000a900473ffffffffffffffffffffffffffffffffffffffff16600360008e63ffffffff1663ffffffff16815260200190815260200160002060030160189054906101000a900463ffffffff16600360008f63ffffffff1663ffffffff168152602001908152602001600020600401868054600181600116156101000203166002900480601f0160208091040260200160405190810160405280929190818152602001828054600181600116156101000203166002900480156121ab5780601f10612180576101008083540402835291602001916121ab565b820191906000526020600020905b81548152906001019060200180831161218e57829003601f168201915b50505050509650858054600181600116156101000203166002900480601f0160208091040260200160405190810160405280929190818152602001828054600181600116156101000203166002900480156122475780601f1061221c57610100808354040283529160200191612247565b820191906000526020600020905b81548152906001019060200180831161222a57829003601f168201915b50505050509550848054600181600116156101000203166002900480601f0160208091040260200160405190810160405280929190818152602001828054600181600116156101000203166002900480156122e35780601f106122b8576101008083540402835291602001916122e3565b820191906000526020600020905b8154815290600101906020018083116122c657829003601f168201915b505050505094508080548060200260200160405190810160405280929190818152602001828054801561233557602002820191906000526020600020905b815481526020019060010190808311612321575b505050505090509650965096509650965096509650919395979092949650565b600060189054906101000a900463ffffffff1681565b6000816040516020018082805190602001908083835b602083106123a45780518252602082019150602081019050602083039250612381565b6001836020036101000a03801982511681845116808217855250505050505090500191505060405160208183030381529060405280519060200120600460008773ffffffffffffffffffffffffffffffffffffffff1673ffffffffffffffffffffffffffffffffffffffff168152602001908152602001600020600201604051602001808280546001816001161561010002031660029004801561247f5780601f1061245d57610100808354040283529182019161247f565b820191906000526020600020905b81548152906001019060200180831161246b575b505091505060405160208183030381529060405280519060200120141561271157836040516020018082805190602001908083835b602083106124d757805182526020820191506020810190506020830392506124b4565b6001836020036101000a03801982511681845116808217855250505050505090500191505060405160208183030381529060405280519060200120600460008773ffffffffffffffffffffffffffffffffffffffff1673ffffffffffffffffffffffffffffffffffffffff16815260200190815260200160002060000160405160200180828054600181600116156101000203166002900480156125b25780601f106125905761010080835404028352918201916125b2565b820191906000526020600020905b81548152906001019060200180831161259e575b505091505060405160208183030381529060405280519060200120141561271057826040516020018082805190602001908083835b6020831061260a57805182526020820191506020810190506020830392506125e7565b6001836020036101000a03801982511681845116808217855250505050505090500191505060405160208183030381529060405280519060200120600460008773ffffffffffffffffffffffffffffffffffffffff1673ffffffffffffffffffffffffffffffffffffffff16815260200190815260200160002060010160405160200180828054600181600116156101000203166002900480156126e55780601f106126c35761010080835404028352918201916126e5565b820191906000526020600020905b8154815290600101906020018083116126d1575b505091505060405160208183030381529060405280519060200120141561270f5760019050612716565b5b5b600090505b949350505050565b600081600360008263ffffffff1663ffffffff16815260200190815260200160002060030160009054906101000a900473ffffffffffffffffffffffffffffffffffffffff1673ffffffffffffffffffffffffffffffffffffffff163373ffffffffffffffffffffffffffffffffffffffff161461279b57600080fd5b6127a3614a6c565b600460008773ffffffffffffffffffffffffffffffffffffffff1673ffffffffffffffffffffffffffffffffffffffff1681526020019081526020016000206040518060a0016040529081600082018054600181600116156101000203166002900480601f0160208091040260200160405190810160405280929190818152602001828054600181600116156101000203166002900480156128865780601f1061285b57610100808354040283529160200191612886565b820191906000526020600020905b81548152906001019060200180831161286957829003601f168201915b50505050508152602001600182018054600181600116156101000203166002900480601f0160208091040260200160405190810160405280929190818152602001828054600181600116156101000203166002900480156129285780601f106128fd57610100808354040283529160200191612928565b820191906000526020600020905b81548152906001019060200180831161290b57829003601f168201915b50505050508152602001600282018054600181600116156101000203166002900480601f0160208091040260200160405190810160405280929190818152602001828054600181600116156101000203166002900480156129ca5780601f1061299f576101008083540402835291602001916129ca565b820191906000526020600020905b8154815290600101906020018083116129ad57829003601f168201915b505050505081526020016003820160009054906101000a900473ffffffffffffffffffffffffffffffffffffffff1673ffffffffffffffffffffffffffffffffffffffff1673ffffffffffffffffffffffffffffffffffffffff16815260200160048201805480602002602001604051908101604052809291908181526020018280548015612a7857602002820191906000526020600020905b815481526020019060010190808311612a64575b5050505050815250509050612a8b614a6c565b600460008773ffffffffffffffffffffffffffffffffffffffff1673ffffffffffffffffffffffffffffffffffffffff1681526020019081526020016000206040518060a0016040529081600082018054600181600116156101000203166002900480601f016020809104026020016040519081016040528092919081815260200182805460018160011615610100020316600290048015612b6e5780601f10612b4357610100808354040283529160200191612b6e565b820191906000526020600020905b815481529060010190602001808311612b5157829003601f168201915b50505050508152602001600182018054600181600116156101000203166002900480601f016020809104026020016040519081016040528092919081815260200182805460018160011615610100020316600290048015612c105780601f10612be557610100808354040283529160200191612c10565b820191906000526020600020905b815481529060010190602001808311612bf357829003601f168201915b50505050508152602001600282018054600181600116156101000203166002900480601f016020809104026020016040519081016040528092919081815260200182805460018160011615610100020316600290048015612cb25780601f10612c8757610100808354040283529160200191612cb2565b820191906000526020600020905b815481529060010190602001808311612c9557829003601f168201915b505050505081526020016003820160009054906101000a900473ffffffffffffffffffffffffffffffffffffffff1673ffffffffffffffffffffffffffffffffffffffff1673ffffffffffffffffffffffffffffffffffffffff16815260200160048201805480602002602001604051908101604052809291908181526020018280548015612d6057602002820191906000526020600020905b815481526020019060010190808311612d4c575b505050505081525050905060006001600081819054906101000a900463ffffffff168092919060010191906101000a81548163ffffffff021916908363ffffffff160217905550905060405180807f4d616e7566616374757265720000000000000000000000000000000000000000815250600c019050604051809103902083604001516040516020018082805190602001908083835b60208310612e1a5780518252602082019150602081019050602083039250612df7565b6001836020036101000a03801982511681845116808217855250505050505090500191505060405160208183030381529060405280519060200120148015612f0b575060405180807f537570706c6965720000000000000000000000000000000000000000000000008152506008019050604051809103902082604001516040516020018082805190602001908083835b60208310612ece5780518252602082019150602081019050602083039250612eab565b6001836020036101000a03801982511681845116808217855250505050505090500191505060405160208183030381529060405280519060200120145b156131775785600560008363ffffffff1663ffffffff16815260200190815260200160002060000160006101000a81548163ffffffff021916908363ffffffff1602179055508160600151600560008363ffffffff1663ffffffff16815260200190815260200160002060010160006101000a81548173ffffffffffffffffffffffffffffffffffffffff021916908373ffffffffffffffffffffffffffffffffffffffff16021790555086600560008363ffffffff1663ffffffff16815260200190815260200160002060000160046101000a81548173ffffffffffffffffffffffffffffffffffffffff021916908373ffffffffffffffffffffffffffffffffffffffff16021790555042600560008363ffffffff1663ffffffff16815260200190815260200160002060000160186101000a81548163ffffffff021916908363ffffffff1602179055508160600151600360008863ffffffff1663ffffffff16815260200190815260200160002060030160006101000a81548173ffffffffffffffffffffffffffffffffffffffff021916908373ffffffffffffffffffffffffffffffffffffffff160217905550600660008763ffffffff1663ffffffff1681526020019081526020016000208190806001815401808255809150506001900390600052602060002090600891828204019190066004029091909190916101000a81548163ffffffff021916908363ffffffff1602179055507f4a7c2ed8675655246e11580786ba8a73e92e426d177368a8697ead49925146c286604051808263ffffffff1663ffffffff16815260200191505060405180910390a16001945050505061391b565b60405180807f537570706c6965720000000000000000000000000000000000000000000000008152506008019050604051809103902083604001516040516020018082805190602001908083835b602083106131e857805182526020820191506020810190506020830392506131c5565b6001836020036101000a038019825116818451168082178552505050505050905001915050604051602081830303815290604052805190602001201480156132d9575060405180807f537570706c6965720000000000000000000000000000000000000000000000008152506008019050604051809103902082604001516040516020018082805190602001908083835b6020831061329c5780518252602082019150602081019050602083039250613279565b6001836020036101000a03801982511681845116808217855250505050505090500191505060405160208183030381529060405280519060200120145b156135455785600560008363ffffffff1663ffffffff16815260200190815260200160002060000160006101000a81548163ffffffff021916908363ffffffff1602179055508160600151600560008363ffffffff1663ffffffff16815260200190815260200160002060010160006101000a81548173ffffffffffffffffffffffffffffffffffffffff021916908373ffffffffffffffffffffffffffffffffffffffff16021790555086600560008363ffffffff1663ffffffff16815260200190815260200160002060000160046101000a81548173ffffffffffffffffffffffffffffffffffffffff021916908373ffffffffffffffffffffffffffffffffffffffff16021790555042600560008363ffffffff1663ffffffff16815260200190815260200160002060000160186101000a81548163ffffffff021916908363ffffffff1602179055508160600151600360008863ffffffff1663ffffffff16815260200190815260200160002060030160006101000a81548173ffffffffffffffffffffffffffffffffffffffff021916908373ffffffffffffffffffffffffffffffffffffffff160217905550600660008763ffffffff1663ffffffff1681526020019081526020016000208190806001815401808255809150506001900390600052602060002090600891828204019190066004029091909190916101000a81548163ffffffff021916908363ffffffff1602179055507f4a7c2ed8675655246e11580786ba8a73e92e426d177368a8697ead49925146c286604051808263ffffffff1663ffffffff16815260200191505060405180910390a16001945050505061391b565b60405180807f537570706c6965720000000000000000000000000000000000000000000000008152506008019050604051809103902083604001516040516020018082805190602001908083835b602083106135b65780518252602082019150602081019050602083039250613593565b6001836020036101000a038019825116818451168082178552505050505050905001915050604051602081830303815290604052805190602001201480156136a7575060405180807f436f6e73756d65720000000000000000000000000000000000000000000000008152506008019050604051809103902082604001516040516020018082805190602001908083835b6020831061366a5780518252602082019150602081019050602083039250613647565b6001836020036101000a03801982511681845116808217855250505050505090500191505060405160208183030381529060405280519060200120145b156139135785600560008363ffffffff1663ffffffff16815260200190815260200160002060000160006101000a81548163ffffffff021916908363ffffffff1602179055508160600151600560008363ffffffff1663ffffffff16815260200190815260200160002060010160006101000a81548173ffffffffffffffffffffffffffffffffffffffff021916908373ffffffffffffffffffffffffffffffffffffffff16021790555086600560008363ffffffff1663ffffffff16815260200190815260200160002060000160046101000a81548173ffffffffffffffffffffffffffffffffffffffff021916908373ffffffffffffffffffffffffffffffffffffffff16021790555042600560008363ffffffff1663ffffffff16815260200190815260200160002060000160186101000a81548163ffffffff021916908363ffffffff1602179055508160600151600360008863ffffffff1663ffffffff16815260200190815260200160002060030160006101000a81548173ffffffffffffffffffffffffffffffffffffffff021916908373ffffffffffffffffffffffffffffffffffffffff160217905550600660008763ffffffff1663ffffffff1681526020019081526020016000208190806001815401808255809150506001900390600052602060002090600891828204019190066004029091909190916101000a81548163ffffffff021916908363ffffffff1602179055507f4a7c2ed8675655246e11580786ba8a73e92e426d177368a8697ead49925146c286604051808263ffffffff1663ffffffff16815260200191505060405180910390a16001945050505061391b565b600094505050505b509392505050565b60606000606080600460008673ffffffffffffffffffffffffffffffffffffffff1673ffffffffffffffffffffffffffffffffffffffff168152602001908152602001600020600001600460008773ffffffffffffffffffffffffffffffffffffffff1673ffffffffffffffffffffffffffffffffffffffff16815260200190815260200160002060030160009054906101000a900473ffffffffffffffffffffffffffffffffffffffff16600460008873ffffffffffffffffffffffffffffffffffffffff1673ffffffffffffffffffffffffffffffffffffffff168152602001908152602001600020600201600460008973ffffffffffffffffffffffffffffffffffffffff1673ffffffffffffffffffffffffffffffffffffffff168152602001908152602001600020600401838054600181600116156101000203166002900480601f016020809104026020016040519081016040528092919081815260200182805460018160011615610100020316600290048015613ae85780601f10613abd57610100808354040283529160200191613ae8565b820191906000526020600020905b815481529060010190602001808311613acb57829003601f168201915b50505050509350818054600181600116156101000203166002900480601f016020809104026020016040519081016040528092919081815260200182805460018160011615610100020316600290048015613b845780601f10613b5957610100808354040283529160200191613b84565b820191906000526020600020905b815481529060010190602001808311613b6757829003601f168201915b5050505050915080805480602002602001604051908101604052809291908181526020018280548015613bd657602002820191906000526020600020905b815481526020019060010190808311613bc2575b5050505050905093509350935093509193509193565b6060806000806000600260008763ffffffff1663ffffffff168152602001908152602001600020600001600260008863ffffffff1663ffffffff168152602001908152602001600020600101600260008963ffffffff1663ffffffff16815260200190815260200160002060020160009054906101000a900463ffffffff16600260008a63ffffffff1663ffffffff16815260200190815260200160002060020160049054906101000a900463ffffffff16600260008b63ffffffff1663ffffffff16815260200190815260200160002060020160089054906101000a900460030b848054600181600116156101000203166002900480601f016020809104026020016040519081016040528092919081815260200182805460018160011615610100020316600290048015613d635780601f10613d3857610100808354040283529160200191613d63565b820191906000526020600020905b815481529060010190602001808311613d4657829003601f168201915b50505050509450838054600181600116156101000203166002900480601f016020809104026020016040519081016040528092919081815260200182805460018160011615610100020316600290048015613dff5780601f10613dd457610100808354040283529160200191613dff565b820191906000526020600020905b815481529060010190602001808311613de257829003601f168201915b505050505093509450945094509450945091939590929450565b60056020528060005260406000206000915090508060000160009054906101000a900463ffffffff16908060000160049054906101000a900473ffffffffffffffffffffffffffffffffffffffff16908060000160189054906101000a900463ffffffff16908060010160009054906101000a900473ffffffffffffffffffffffffffffffffffffffff16905084565b600084600460003373ffffffffffffffffffffffffffffffffffffffff1673ffffffffffffffffffffffffffffffffffffffff1681526020019081526020016000206000019080519060200190613f01929190614997565b5083600460003373ffffffffffffffffffffffffffffffffffffffff1673ffffffffffffffffffffffffffffffffffffffff1681526020019081526020016000206001019080519060200190613f58929190614997565b5082600460003373ffffffffffffffffffffffffffffffffffffffff1673ffffffffffffffffffffffffffffffffffffffff16815260200190815260200160002060030160006101000a81548173ffffffffffffffffffffffffffffffffffffffff021916908373ffffffffffffffffffffffffffffffffffffffff16021790555081600460003373ffffffffffffffffffffffffffffffffffffffff1673ffffffffffffffffffffffffffffffffffffffff1681526020019081526020016000206002019080519060200190614030929190614997565b506000601c81819054906101000a900463ffffffff168092919060010191906101000a81548163ffffffff021916908363ffffffff16021790555050829050949350505050565b6060600660008363ffffffff1663ffffffff16815260200190815260200160002080548060200260200160405190810160405280929190818152602001828054801561410e57602002820191906000526020600020906000905b82829054906101000a900463ffffffff1663ffffffff16815260200190600401906020826003010492830192600103820291508084116140d15790505b50505050509050919050565b6002602052806000526040600020600091509050806000018054600181600116156101000203166002900480601f0160208091040260200160405190810160405280929190818152602001828054600181600116156101000203166002900480156141c65780601f1061419b576101008083540402835291602001916141c6565b820191906000526020600020905b8154815290600101906020018083116141a957829003601f168201915b505050505090806001018054600181600116156101000203166002900480601f0160208091040260200160405190810160405280929190818152602001828054600181600116156101000203166002900480156142645780601f1061423957610100808354040283529160200191614264565b820191906000526020600020905b81548152906001019060200180831161424757829003601f168201915b5050505050908060020160009054906101000a900463ffffffff16908060020160049054906101000a900463ffffffff16908060020160089054906101000a900460030b905085565b6000806000806142bb614ab1565b600560008763ffffffff1663ffffffff1681526020019081526020016000206040518060800160405290816000820160009054906101000a900463ffffffff1663ffffffff1663ffffffff1681526020016000820160049054906101000a900473ffffffffffffffffffffffffffffffffffffffff1673ffffffffffffffffffffffffffffffffffffffff1673ffffffffffffffffffffffffffffffffffffffff1681526020016000820160189054906101000a900463ffffffff1663ffffffff1663ffffffff1681526020016001820160009054906101000a900473ffffffffffffffffffffffffffffffffffffffff1673ffffffffffffffffffffffffffffffffffffffff1673ffffffffffffffffffffffffffffffffffffffff1681525050905080600001518160200151826060015183604001519450945094509450509193509193565b6003602052806000526040600020600091509050806000018054600181600116156101000203166002900480601f0160208091040260200160405190810160405280929190818152602001828054600181600116156101000203166002900480156144af5780601f10614484576101008083540402835291602001916144af565b820191906000526020600020905b81548152906001019060200180831161449257829003601f168201915b505050505090806001018054600181600116156101000203166002900480601f01602080910402602001604051908101604052809291908181526020018280546001816001161561010002031660029004801561454d5780601f106145225761010080835404028352916020019161454d565b820191906000526020600020905b81548152906001019060200180831161453057829003601f168201915b505050505090806002018054600181600116156101000203166002900480601f0160208091040260200160405190810160405280929190818152602001828054600181600116156101000203166002900480156145eb5780601f106145c0576101008083540402835291602001916145eb565b820191906000526020600020905b8154815290600101906020018083116145ce57829003601f168201915b5050505050908060030160009054906101000a900473ffffffffffffffffffffffffffffffffffffffff16908060030160149054906101000a900463ffffffff16908060030160189054906101000a900463ffffffff16905086565b600060405180807f4d616e7566616374757265720000000000000000000000000000000000000000815250600c0190506040518091039020600460003373ffffffffffffffffffffffffffffffffffffffff1673ffffffffffffffffffffffffffffffffffffffff168152602001908152602001600020600201604051602001808280546001816001161561010002031660029004801561471f5780601f106146fd57610100808354040283529182019161471f565b820191906000526020600020905b81548152906001019060200180831161470b575b505091505060405160208183030381529060405280519060200120141561494957600080601481819054906101000a900463ffffffff168092919060010191906101000a81548163ffffffff021916908363ffffffff160217905550905084600260008363ffffffff1663ffffffff16815260200190815260200160002060000190805190602001906147b3929190614997565b5083600260008363ffffffff1663ffffffff16815260200190815260200160002060010190805190602001906147ea929190614997565b5082600260008363ffffffff1663ffffffff16815260200190815260200160002060020160006101000a81548163ffffffff021916908363ffffffff16021790555042600260008363ffffffff1663ffffffff16815260200190815260200160002060020160046101000a81548163ffffffff021916908363ffffffff1602179055507fffffffffffffffffffffffffffffffffffffffffffffffffffffffffffffffff600260008363ffffffff1663ffffffff16815260200190815260200160002060020160086101000a81548163ffffffff021916908360030b63ffffffff160217905550600460003373ffffffffffffffffffffffffffffffffffffffff1673ffffffffffffffffffffffffffffffffffffffff16815260200190815260200160002060040181908060018154018082558091505060019003906000526020600020016000909163ffffffff169091909150558091505061494e565b600090505b9392505050565b6000601c9054906101000a900463ffffffff1681565b600060149054906101000a900463ffffffff1681565b600160009054906101000a900463ffffffff1681565b828054600181600116156101000203166002900490600052602060002090601f016020900481019282601f106149d857805160ff1916838001178555614a06565b82800160010185558215614a06579182015b82811115614a055782518255916020019190600101906149ea565b5b509050614a139190614b11565b5090565b828054828255906000526020600020908101928215614a5b579160200282015b82811115614a5a578251829063ffffffff16905591602001919060010190614a37565b5b509050614a689190614b11565b5090565b6040518060a00160405280606081526020016060815260200160608152602001600073ffffffffffffffffffffffffffffffffffffffff168152602001606081525090565b6040518060800160405280600063ffffffff168152602001600073ffffffffffffffffffffffffffffffffffffffff168152602001600063ffffffff168152602001600073ffffffffffffffffffffffffffffffffffffffff1681525090565b614b3391905b80821115614b2f576000816000905550600101614b17565b5090565b9056fea264697066735822122061464ab2698ef986be400661d8e8e013956970a9b2e5e48899aa841f5ef601d464736f6c63430006010033",
  "source": "pragma solidity ^0.6.1;\r\nimport \"./SupplyChainStorage.sol\";\r\n\r\ncontract SupplyChainLogic_3 is SupplyChainStorage {\r\n    function createParticipant(\r\n        string memory _name,\r\n        string memory _pass,\r\n        address _pAdd,\r\n        string memory _pType\r\n    ) public virtual returns (address) {\r\n        participants[msg.sender].userName = _name;\r\n        participants[msg.sender].password = _pass;\r\n        participants[msg.sender].participantAddress = _pAdd;\r\n        participants[msg.sender].participantType = _pType;\r\n        participant_counter++;\r\n        return _pAdd;\r\n    }\r\n\r\n    function getParticipantDetails(address _p_address)\r\n        public\r\n        view\r\n        returns (string memory, address, string memory, uint256[] memory)\r\n    {\r\n        return (\r\n            participants[_p_address].userName,\r\n            participants[_p_address].participantAddress,\r\n            participants[_p_address].participantType,\r\n            participants[_p_address].parts\r\n        );\r\n    }\r\n\r\n    function createPart(\r\n        string memory _partNumber,\r\n        string memory _serialNumber,\r\n        uint32 _productCost\r\n    ) public returns (uint32) {\r\n        if (\r\n            keccak256(\r\n                abi.encodePacked(participants[msg.sender].participantType)\r\n            ) ==\r\n            keccak256(\"Manufacturer\")\r\n        ) {\r\n            uint32 partId = part_counter++;\r\n\r\n            parts[partId].partNumber = _partNumber;\r\n            parts[partId].serialNumber = _serialNumber;\r\n            parts[partId].cost = _productCost;\r\n            parts[partId].mfgTimeStamp = uint32(now);\r\n            parts[partId].productId = -1;\r\n            participants[msg.sender].parts.push(partId);\r\n\r\n            return partId;\r\n        }\r\n\r\n        return 0;\r\n    }\r\n\r\n    function getPartDetails(uint32 _partId)\r\n        public\r\n        view\r\n        returns (string memory, string memory, uint32, uint32, int32)\r\n    {\r\n        return (\r\n            parts[_partId].partNumber,\r\n            parts[_partId].serialNumber,\r\n            parts[_partId].cost,\r\n            parts[_partId].mfgTimeStamp,\r\n            parts[_partId].productId\r\n        );\r\n    }\r\n\r\n    function createProduct(\r\n        string memory _modelNumber,\r\n        string memory _partNumber,\r\n        string memory _serialNumber,\r\n        uint32 _productCost,\r\n        uint32[] memory _parts\r\n    ) public returns (uint32) {\r\n        if (\r\n            keccak256(\r\n                abi.encodePacked(participants[msg.sender].participantType)\r\n            ) ==\r\n            keccak256(\"Manufacturer\")\r\n        ) {\r\n            uint32 productId = product_counter++;\r\n            uint32 registration_id = registration_counter++;\r\n\r\n            products[productId].modelNumber = _modelNumber;\r\n            products[productId].partNumber = _partNumber;\r\n            products[productId].serialNumber = _serialNumber;\r\n            products[productId].cost = _productCost;\r\n            products[productId].productOwner = participants[msg.sender]\r\n                .participantAddress;\r\n            products[productId].mfgTimeStamp = uint32(now);\r\n            products[productId].parts = _parts;\r\n\r\n            for (uint32 i = 0; i < _parts.length; i++) {\r\n                uint32 _id = _parts[i];\r\n                parts[_id].productId = int32(productId);\r\n            }\r\n\r\n            registrations[registration_id].productId = productId;\r\n            registrations[registration_id].productOwner = msg.sender;\r\n            registrations[registration_id].ownerAddress = msg.sender;\r\n            registrations[registration_id].trxTimeStamp = uint32(now);\r\n            productTrack[productId].push(registration_id);\r\n\r\n            return productId;\r\n        }\r\n\r\n        return 0;\r\n    }\r\n\r\n    modifier onlyProductOwner(uint32 _productId) {\r\n        require(msg.sender == products[_productId].productOwner);\r\n        _;\r\n    }\r\n\r\n    function getProductDetails(uint32 _productId)\r\n        public\r\n        view\r\n        returns (\r\n            string memory,\r\n            string memory,\r\n            string memory,\r\n            uint32,\r\n            address,\r\n            uint32,\r\n            uint256[] memory\r\n        )\r\n    {\r\n        return (\r\n            products[_productId].modelNumber,\r\n            products[_productId].partNumber,\r\n            products[_productId].serialNumber,\r\n            products[_productId].cost,\r\n            products[_productId].productOwner,\r\n            products[_productId].mfgTimeStamp,\r\n            products[_productId].parts\r\n        );\r\n    }\r\n\r\n    function transferToOwner(\r\n        address _user1Address,\r\n        address _user2Address,\r\n        uint32 _prodId\r\n    ) public onlyProductOwner(_prodId) returns (bool) {\r\n        participant memory p1 = participants[_user1Address];\r\n        participant memory p2 = participants[_user2Address];\r\n        uint32 registration_id = registration_counter++;\r\n\r\n        if (\r\n            keccak256(abi.encodePacked(p1.participantType)) ==\r\n            keccak256(\"Manufacturer\") &&\r\n            keccak256(abi.encodePacked(p2.participantType)) ==\r\n            keccak256(\"Supplier\")\r\n        ) {\r\n            registrations[registration_id].productId = _prodId;\r\n            registrations[registration_id].productOwner = p2.participantAddress;\r\n            registrations[registration_id].ownerAddress = _user2Address;\r\n            registrations[registration_id].trxTimeStamp = uint32(now);\r\n            products[_prodId].productOwner = p2.participantAddress;\r\n            productTrack[_prodId].push(registration_id);\r\n            emit Transfer(_prodId);\r\n\r\n            return (true);\r\n        } else if (\r\n            keccak256(abi.encodePacked(p1.participantType)) ==\r\n            keccak256(\"Supplier\") &&\r\n            keccak256(abi.encodePacked(p2.participantType)) ==\r\n            keccak256(\"Supplier\")\r\n        ) {\r\n            registrations[registration_id].productId = _prodId;\r\n            registrations[registration_id].productOwner = p2.participantAddress;\r\n            registrations[registration_id].ownerAddress = _user2Address;\r\n            registrations[registration_id].trxTimeStamp = uint32(now);\r\n            products[_prodId].productOwner = p2.participantAddress;\r\n            productTrack[_prodId].push(registration_id);\r\n            emit Transfer(_prodId);\r\n\r\n            return (true);\r\n        } else if (\r\n            keccak256(abi.encodePacked(p1.participantType)) ==\r\n            keccak256(\"Supplier\") &&\r\n            keccak256(abi.encodePacked(p2.participantType)) ==\r\n            keccak256(\"Consumer\")\r\n        ) {\r\n            registrations[registration_id].productId = _prodId;\r\n            registrations[registration_id].productOwner = p2.participantAddress;\r\n            registrations[registration_id].ownerAddress = _user2Address;\r\n            registrations[registration_id].trxTimeStamp = uint32(now);\r\n            products[_prodId].productOwner = p2.participantAddress;\r\n            productTrack[_prodId].push(registration_id);\r\n            emit Transfer(_prodId);\r\n\r\n            return (true);\r\n        }\r\n\r\n        return (false);\r\n    }\r\n\r\n    function getRegistrationDetails(uint32 _regId)\r\n        public\r\n        view\r\n        returns (uint32, address, address, uint32)\r\n    {\r\n        registration memory r = registrations[_regId];\r\n\r\n        return (r.productId, r.ownerAddress, r.productOwner, r.trxTimeStamp);\r\n    }\r\n\r\n    function authenticateParticipant(\r\n        address _uAddress,\r\n        string memory _uname,\r\n        string memory _pass,\r\n        string memory _utype\r\n    ) public view returns (bool) {\r\n        if (\r\n            keccak256(\r\n                abi.encodePacked(participants[_uAddress].participantType)\r\n            ) ==\r\n            keccak256(abi.encodePacked(_utype))\r\n        ) {\r\n            if (\r\n                keccak256(abi.encodePacked(participants[_uAddress].userName)) ==\r\n                keccak256(abi.encodePacked(_uname))\r\n            ) {\r\n                if (\r\n                    keccak256(\r\n                        abi.encodePacked(participants[_uAddress].password)\r\n                    ) ==\r\n                    keccak256(abi.encodePacked(_pass))\r\n                ) {\r\n                    return (true);\r\n                }\r\n            }\r\n        }\r\n        return (false);\r\n    }\r\n}\r\n",
  "sourcePath": "C:/Users/Laptop001/vue-chain/truffle/contracts/SupplyChainLogic_3.sol",
  "compiler": {
    "name": "solc",
    "version": "0.6.1+commit.e6f7d5a4.Emscripten.clang"
  },
  "schemaVersion": "3.0.22",
  "updatedAt": "2020-03-26T20:04:50.111Z",
  "networkType": "ethereum",
  "devdoc": {
    "methods": {}
  },
  "userdoc": {
    "methods": {}
  }
}