{
  "contractName": "SupplyChain",
  "abi": [
    {
      "inputs": [],
      "stateMutability": "nonpayable",
      "type": "constructor"
    },
    {
      "anonymous": false,
      "inputs": [
        {
          "indexed": false,
          "internalType": "uint32",
          "name": "productId",
          "type": "uint32"
        }
      ],
      "name": "Transfer",
      "type": "event"
    },
    {
      "inputs": [],
      "name": "participant_counter",
      "outputs": [
        {
          "internalType": "uint32",
          "name": "",
          "type": "uint32"
        }
      ],
      "stateMutability": "view",
      "type": "function",
      "constant": true
    },
    {
      "inputs": [
        {
          "internalType": "uint32",
          "name": "",
          "type": "uint32"
        }
      ],
      "name": "participants",
      "outputs": [
        {
          "internalType": "string",
          "name": "userName",
          "type": "string"
        },
        {
          "internalType": "string",
          "name": "password",
          "type": "string"
        },
        {
          "internalType": "string",
          "name": "participantType",
          "type": "string"
        },
        {
          "internalType": "address",
          "name": "participantAddress",
          "type": "address"
        }
      ],
      "stateMutability": "view",
      "type": "function",
      "constant": true
    },
    {
      "inputs": [
        {
          "internalType": "uint32",
          "name": "",
          "type": "uint32"
        },
        {
          "internalType": "uint256",
          "name": "",
          "type": "uint256"
        }
      ],
      "name": "productTrack",
      "outputs": [
        {
          "internalType": "uint32",
          "name": "",
          "type": "uint32"
        }
      ],
      "stateMutability": "view",
      "type": "function",
      "constant": true
    },
    {
      "inputs": [],
      "name": "product_counter",
      "outputs": [
        {
          "internalType": "uint32",
          "name": "",
          "type": "uint32"
        }
      ],
      "stateMutability": "view",
      "type": "function",
      "constant": true
    },
    {
      "inputs": [
        {
          "internalType": "uint32",
          "name": "",
          "type": "uint32"
        }
      ],
      "name": "products",
      "outputs": [
        {
          "internalType": "string",
          "name": "modelNumber",
          "type": "string"
        },
        {
          "internalType": "string",
          "name": "partNumber",
          "type": "string"
        },
        {
          "internalType": "string",
          "name": "serialNumber",
          "type": "string"
        },
        {
          "internalType": "address",
          "name": "productOwner",
          "type": "address"
        },
        {
          "internalType": "uint32",
          "name": "cost",
          "type": "uint32"
        },
        {
          "internalType": "uint32",
          "name": "mfgTimeStamp",
          "type": "uint32"
        }
      ],
      "stateMutability": "view",
      "type": "function",
      "constant": true
    },
    {
      "inputs": [],
      "name": "registration_counter",
      "outputs": [
        {
          "internalType": "uint32",
          "name": "",
          "type": "uint32"
        }
      ],
      "stateMutability": "view",
      "type": "function",
      "constant": true
    },
    {
      "inputs": [
        {
          "internalType": "uint32",
          "name": "",
          "type": "uint32"
        }
      ],
      "name": "registrations",
      "outputs": [
        {
          "internalType": "uint32",
          "name": "productId",
          "type": "uint32"
        },
        {
          "internalType": "uint32",
          "name": "ownerId",
          "type": "uint32"
        },
        {
          "internalType": "uint32",
          "name": "trxTimeStamp",
          "type": "uint32"
        },
        {
          "internalType": "address",
          "name": "productOwner",
          "type": "address"
        }
      ],
      "stateMutability": "view",
      "type": "function",
      "constant": true
    },
    {
      "inputs": [
        {
          "internalType": "string",
          "name": "_name",
          "type": "string"
        },
        {
          "internalType": "string",
          "name": "_pass",
          "type": "string"
        },
        {
          "internalType": "address",
          "name": "_pAdd",
          "type": "address"
        },
        {
          "internalType": "string",
          "name": "_pType",
          "type": "string"
        }
      ],
      "name": "createParticipant",
      "outputs": [
        {
          "internalType": "uint32",
          "name": "",
          "type": "uint32"
        }
      ],
      "stateMutability": "nonpayable",
      "type": "function"
    },
    {
      "inputs": [
        {
          "internalType": "uint32",
          "name": "_p_id",
          "type": "uint32"
        }
      ],
      "name": "getParticipantDetails",
      "outputs": [
        {
          "internalType": "string",
          "name": "",
          "type": "string"
        },
        {
          "internalType": "address",
          "name": "",
          "type": "address"
        },
        {
          "internalType": "string",
          "name": "",
          "type": "string"
        }
      ],
      "stateMutability": "view",
      "type": "function",
      "constant": true
    },
    {
      "inputs": [
        {
          "internalType": "uint32",
          "name": "_ownerId",
          "type": "uint32"
        },
        {
          "internalType": "string",
          "name": "_modelNumber",
          "type": "string"
        },
        {
          "internalType": "string",
          "name": "_partNumber",
          "type": "string"
        },
        {
          "internalType": "string",
          "name": "_serialNumber",
          "type": "string"
        },
        {
          "internalType": "uint32",
          "name": "_productCost",
          "type": "uint32"
        }
      ],
      "name": "createProduct",
      "outputs": [
        {
          "internalType": "uint32",
          "name": "",
          "type": "uint32"
        }
      ],
      "stateMutability": "nonpayable",
      "type": "function"
    },
    {
      "inputs": [
        {
          "internalType": "uint32",
          "name": "_productId",
          "type": "uint32"
        }
      ],
      "name": "getProductDetails",
      "outputs": [
        {
          "internalType": "string",
          "name": "",
          "type": "string"
        },
        {
          "internalType": "string",
          "name": "",
          "type": "string"
        },
        {
          "internalType": "string",
          "name": "",
          "type": "string"
        },
        {
          "internalType": "uint32",
          "name": "",
          "type": "uint32"
        },
        {
          "internalType": "address",
          "name": "",
          "type": "address"
        },
        {
          "internalType": "uint32",
          "name": "",
          "type": "uint32"
        }
      ],
      "stateMutability": "view",
      "type": "function",
      "constant": true
    },
    {
      "inputs": [
        {
          "internalType": "uint32",
          "name": "_user1Id",
          "type": "uint32"
        },
        {
          "internalType": "uint32",
          "name": "_user2Id",
          "type": "uint32"
        },
        {
          "internalType": "uint32",
          "name": "_prodId",
          "type": "uint32"
        }
      ],
      "name": "transferToOwner",
      "outputs": [
        {
          "internalType": "bool",
          "name": "",
          "type": "bool"
        }
      ],
      "stateMutability": "nonpayable",
      "type": "function"
    },
    {
      "inputs": [
        {
          "internalType": "uint32",
          "name": "_prodId",
          "type": "uint32"
        }
      ],
      "name": "getProductTrack",
      "outputs": [
        {
          "internalType": "uint32[]",
          "name": "",
          "type": "uint32[]"
        }
      ],
      "stateMutability": "view",
      "type": "function",
      "constant": true
    },
    {
      "inputs": [
        {
          "internalType": "uint32",
          "name": "_regId",
          "type": "uint32"
        }
      ],
      "name": "getRegistrationDetails",
      "outputs": [
        {
          "internalType": "uint32",
          "name": "",
          "type": "uint32"
        },
        {
          "internalType": "uint32",
          "name": "",
          "type": "uint32"
        },
        {
          "internalType": "address",
          "name": "",
          "type": "address"
        },
        {
          "internalType": "uint32",
          "name": "",
          "type": "uint32"
        }
      ],
      "stateMutability": "view",
      "type": "function",
      "constant": true
    },
    {
      "inputs": [
        {
          "internalType": "uint32",
          "name": "_uid",
          "type": "uint32"
        },
        {
          "internalType": "string",
          "name": "_uname",
          "type": "string"
        },
        {
          "internalType": "string",
          "name": "_pass",
          "type": "string"
        },
        {
          "internalType": "string",
          "name": "_utype",
          "type": "string"
        }
      ],
      "name": "authenticateParticipant",
      "outputs": [
        {
          "internalType": "bool",
          "name": "",
          "type": "bool"
        }
      ],
      "stateMutability": "view",
      "type": "function",
      "constant": true
    }
  ],
  "bytecode": "0x608060405260008060006101000a81548163ffffffff021916908363ffffffff16021790555060008060046101000a81548163ffffffff021916908363ffffffff16021790555060008060086101000a81548163ffffffff021916908363ffffffff16021790555034801561007357600080fd5b5061371d806100836000396000f3fe608060405234801561001057600080fd5b5060043610610112576000357c01000000000000000000000000000000000000000000000000000000009004806383a32c55116100b4578063bf712fd611610083578063bf712fd614610d0a578063e114a17b14610ee8578063f79e547b14610f12578063ff7bb0df1461113b57610112565b806383a32c55146108fe57806389138c00146109ab578063a8997d2e14610bd4578063b9d93d5f14610c5d57610112565b80635617f01e116100f05780635617f01e1461037d5780636083b3ff146104c9578063721b5743146105355780637d0a9ac91461074657610112565b80631a0748021461011757806328d5b69a14610175578063297df1cd14610353575b600080fd5b6101536004803603604081101561012d57600080fd5b81019080803563ffffffff16906020019092919080359060200190929190505050611165565b604051808263ffffffff1663ffffffff16815260200191505060405180910390f35b6101a76004803603602081101561018b57600080fd5b81019080803563ffffffff1690602001909291905050506111ab565b604051808060200180602001806020018763ffffffff1663ffffffff1681526020018673ffffffffffffffffffffffffffffffffffffffff1673ffffffffffffffffffffffffffffffffffffffff1681526020018563ffffffff1663ffffffff16815260200184810384528a818151815260200191508051906020019080838360005b8381101561024557808201518184015260208101905061022a565b50505050905090810190601f1680156102725780820380516001836020036101000a031916815260200191505b50848103835289818151815260200191508051906020019080838360005b838110156102ab578082015181840152602081019050610290565b50505050905090810190601f1680156102d85780820380516001836020036101000a031916815260200191505b50848103825288818151815260200191508051906020019080838360005b838110156103115780820151818401526020810190506102f6565b50505050905090810190601f16801561033e5780820380516001836020036101000a031916815260200191505b50995050505050505050505060405180910390f35b61035b6114ad565b604051808263ffffffff1663ffffffff16815260200191505060405180910390f35b6103af6004803603602081101561039357600080fd5b81019080803563ffffffff1690602001909291905050506114c2565b60405180806020018473ffffffffffffffffffffffffffffffffffffffff1673ffffffffffffffffffffffffffffffffffffffff16815260200180602001838103835286818151815260200191508051906020019080838360005b8381101561042557808201518184015260208101905061040a565b50505050905090810190601f1680156104525780820380516001836020036101000a031916815260200191505b50838103825284818151815260200191508051906020019080838360005b8381101561048b578082015181840152602081019050610470565b50505050905090810190601f1680156104b85780820380516001836020036101000a031916815260200191505b509550505050505060405180910390f35b61051b600480360360608110156104df57600080fd5b81019080803563ffffffff169060200190929190803563ffffffff169060200190929190803563ffffffff169060200190929190505050611694565b604051808215151515815260200191505060405180910390f35b61072c6004803603608081101561054b57600080fd5b81019080803563ffffffff1690602001909291908035906020019064010000000081111561057857600080fd5b82018360208201111561058a57600080fd5b803590602001918460018302840111640100000000831117156105ac57600080fd5b91908080601f016020809104026020016040519081016040528093929190818152602001838380828437600081840152601f19601f8201169050808301925050505050505091929192908035906020019064010000000081111561060f57600080fd5b82018360208201111561062157600080fd5b8035906020019184600183028401116401000000008311171561064357600080fd5b91908080601f016020809104026020016040519081016040528093929190818152602001838380828437600081840152601f19601f820116905080830192505050505050509192919290803590602001906401000000008111156106a657600080fd5b8201836020820111156106b857600080fd5b803590602001918460018302840111640100000000831117156106da57600080fd5b91908080601f016020809104026020016040519081016040528093929190818152602001838380828437600081840152601f19601f820116905080830192505050505050509192919290505050612748565b604051808215151515815260200191505060405180910390f35b6107786004803603602081101561075c57600080fd5b81019080803563ffffffff169060200190929190505050612a9b565b604051808060200180602001806020018573ffffffffffffffffffffffffffffffffffffffff1673ffffffffffffffffffffffffffffffffffffffff168152602001848103845288818151815260200191508051906020019080838360005b838110156107f25780820151818401526020810190506107d7565b50505050905090810190601f16801561081f5780820380516001836020036101000a031916815260200191505b50848103835287818151815260200191508051906020019080838360005b8381101561085857808201518184015260208101905061083d565b50505050905090810190601f1680156108855780820380516001836020036101000a031916815260200191505b50848103825286818151815260200191508051906020019080838360005b838110156108be5780820151818401526020810190506108a3565b50505050905090810190601f1680156108eb5780820380516001836020036101000a031916815260200191505b5097505050505050505060405180910390f35b6109306004803603602081101561091457600080fd5b81019080803563ffffffff169060200190929190505050612cb3565b604051808563ffffffff1663ffffffff1681526020018463ffffffff1663ffffffff1681526020018363ffffffff1663ffffffff1681526020018273ffffffffffffffffffffffffffffffffffffffff1673ffffffffffffffffffffffffffffffffffffffff16815260200194505050505060405180910390f35b610bb2600480360360808110156109c157600080fd5b81019080803590602001906401000000008111156109de57600080fd5b8201836020820111156109f057600080fd5b80359060200191846001830284011164010000000083111715610a1257600080fd5b91908080601f016020809104026020016040519081016040528093929190818152602001838380828437600081840152601f19601f82011690508083019250505050505050919291929080359060200190640100000000811115610a7557600080fd5b820183602082011115610a8757600080fd5b80359060200191846001830284011164010000000083111715610aa957600080fd5b91908080601f016020809104026020016040519081016040528093929190818152602001838380828437600081840152601f19601f820116905080830192505050505050509192919290803573ffffffffffffffffffffffffffffffffffffffff16906020019092919080359060200190640100000000811115610b2c57600080fd5b820183602082011115610b3e57600080fd5b80359060200191846001830284011164010000000083111715610b6057600080fd5b91908080601f016020809104026020016040519081016040528093929190818152602001838380828437600081840152601f19601f820116905080830192505050505050509192919290505050612d33565b604051808263ffffffff1663ffffffff16815260200191505060405180910390f35b610c0660048036036020811015610bea57600080fd5b81019080803563ffffffff169060200190929190505050612e84565b6040518080602001828103825283818151815260200191508051906020019060200280838360005b83811015610c49578082015181840152602081019050610c2e565b505050509050019250505060405180910390f35b610c8f60048036036020811015610c7357600080fd5b81019080803563ffffffff169060200190929190505050612f27565b604051808563ffffffff1663ffffffff1681526020018463ffffffff1663ffffffff1681526020018373ffffffffffffffffffffffffffffffffffffffff1673ffffffffffffffffffffffffffffffffffffffff1681526020018263ffffffff1663ffffffff16815260200194505050505060405180910390f35b610d3c60048036036020811015610d2057600080fd5b81019080803563ffffffff16906020019092919050505061304d565b604051808060200180602001806020018773ffffffffffffffffffffffffffffffffffffffff1673ffffffffffffffffffffffffffffffffffffffff1681526020018663ffffffff1663ffffffff1681526020018563ffffffff1663ffffffff16815260200184810384528a818151815260200191508051906020019080838360005b83811015610dda578082015181840152602081019050610dbf565b50505050905090810190601f168015610e075780820380516001836020036101000a031916815260200191505b50848103835289818151815260200191508051906020019080838360005b83811015610e40578082015181840152602081019050610e25565b50505050905090810190601f168015610e6d5780820380516001836020036101000a031916815260200191505b50848103825288818151815260200191508051906020019080838360005b83811015610ea6578082015181840152602081019050610e8b565b50505050905090810190601f168015610ed35780820380516001836020036101000a031916815260200191505b50995050505050505050505060405180910390f35b610ef0613291565b604051808263ffffffff1663ffffffff16815260200191505060405180910390f35b611119600480360360a0811015610f2857600080fd5b81019080803563ffffffff16906020019092919080359060200190640100000000811115610f5557600080fd5b820183602082011115610f6757600080fd5b80359060200191846001830284011164010000000083111715610f8957600080fd5b91908080601f016020809104026020016040519081016040528093929190818152602001838380828437600081840152601f19601f82011690508083019250505050505050919291929080359060200190640100000000811115610fec57600080fd5b820183602082011115610ffe57600080fd5b8035906020019184600183028401116401000000008311171561102057600080fd5b91908080601f016020809104026020016040519081016040528093929190818152602001838380828437600081840152601f19601f8201169050808301925050505050505091929192908035906020019064010000000081111561108357600080fd5b82018360208201111561109557600080fd5b803590602001918460018302840111640100000000831117156110b757600080fd5b91908080601f016020809104026020016040519081016040528093929190818152602001838380828437600081840152601f19601f820116905080830192505050505050509192919290803563ffffffff1690602001909291905050506132a7565b604051808263ffffffff1663ffffffff16815260200191505060405180910390f35b61114361359e565b604051808263ffffffff1663ffffffff16815260200191505060405180910390f35b6004602052816000526040600020818154811061117e57fe5b9060005260206000209060089182820401919006600402915091509054906101000a900463ffffffff1681565b60608060606000806000600160008863ffffffff1663ffffffff168152602001908152602001600020600001600160008963ffffffff1663ffffffff168152602001908152602001600020600101600160008a63ffffffff1663ffffffff168152602001908152602001600020600201600160008b63ffffffff1663ffffffff16815260200190815260200160002060030160149054906101000a900463ffffffff16600160008c63ffffffff1663ffffffff16815260200190815260200160002060030160009054906101000a900473ffffffffffffffffffffffffffffffffffffffff16600160008d63ffffffff1663ffffffff16815260200190815260200160002060030160189054906101000a900463ffffffff16858054600181600116156101000203166002900480601f0160208091040260200160405190810160405280929190818152602001828054600181600116156101000203166002900480156113595780601f1061132e57610100808354040283529160200191611359565b820191906000526020600020905b81548152906001019060200180831161133c57829003601f168201915b50505050509550848054600181600116156101000203166002900480601f0160208091040260200160405190810160405280929190818152602001828054600181600116156101000203166002900480156113f55780601f106113ca576101008083540402835291602001916113f5565b820191906000526020600020905b8154815290600101906020018083116113d857829003601f168201915b50505050509450838054600181600116156101000203166002900480601f0160208091040260200160405190810160405280929190818152602001828054600181600116156101000203166002900480156114915780601f1061146657610100808354040283529160200191611491565b820191906000526020600020905b81548152906001019060200180831161147457829003601f168201915b5050505050935095509550955095509550955091939550919395565b6000809054906101000a900463ffffffff1681565b606060006060600260008563ffffffff1663ffffffff168152602001908152602001600020600001600260008663ffffffff1663ffffffff16815260200190815260200160002060030160009054906101000a900473ffffffffffffffffffffffffffffffffffffffff16600260008763ffffffff1663ffffffff168152602001908152602001600020600201828054600181600116156101000203166002900480601f0160208091040260200160405190810160405280929190818152602001828054600181600116156101000203166002900480156115e45780601f106115b9576101008083540402835291602001916115e4565b820191906000526020600020905b8154815290600101906020018083116115c757829003601f168201915b50505050509250808054600181600116156101000203166002900480601f0160208091040260200160405190810160405280929190818152602001828054600181600116156101000203166002900480156116805780601f1061165557610100808354040283529160200191611680565b820191906000526020600020905b81548152906001019060200180831161166357829003601f168201915b505050505090509250925092509193909250565b600081600160008263ffffffff1663ffffffff16815260200190815260200160002060030160009054906101000a900473ffffffffffffffffffffffffffffffffffffffff1673ffffffffffffffffffffffffffffffffffffffff163373ffffffffffffffffffffffffffffffffffffffff161461171157600080fd5b6117196135b4565b600260008763ffffffff1663ffffffff168152602001908152602001600020604051806080016040529081600082018054600181600116156101000203166002900480601f0160208091040260200160405190810160405280929190818152602001828054600181600116156101000203166002900480156117dc5780601f106117b1576101008083540402835291602001916117dc565b820191906000526020600020905b8154815290600101906020018083116117bf57829003601f168201915b50505050508152602001600182018054600181600116156101000203166002900480601f01602080910402602001604051908101604052809291908181526020018280546001816001161561010002031660029004801561187e5780601f106118535761010080835404028352916020019161187e565b820191906000526020600020905b81548152906001019060200180831161186157829003601f168201915b50505050508152602001600282018054600181600116156101000203166002900480601f0160208091040260200160405190810160405280929190818152602001828054600181600116156101000203166002900480156119205780601f106118f557610100808354040283529160200191611920565b820191906000526020600020905b81548152906001019060200180831161190357829003601f168201915b505050505081526020016003820160009054906101000a900473ffffffffffffffffffffffffffffffffffffffff1673ffffffffffffffffffffffffffffffffffffffff1673ffffffffffffffffffffffffffffffffffffffff168152505090506119896135b4565b600260008763ffffffff1663ffffffff168152602001908152602001600020604051806080016040529081600082018054600181600116156101000203166002900480601f016020809104026020016040519081016040528092919081815260200182805460018160011615610100020316600290048015611a4c5780601f10611a2157610100808354040283529160200191611a4c565b820191906000526020600020905b815481529060010190602001808311611a2f57829003601f168201915b50505050508152602001600182018054600181600116156101000203166002900480601f016020809104026020016040519081016040528092919081815260200182805460018160011615610100020316600290048015611aee5780601f10611ac357610100808354040283529160200191611aee565b820191906000526020600020905b815481529060010190602001808311611ad157829003601f168201915b50505050508152602001600282018054600181600116156101000203166002900480601f016020809104026020016040519081016040528092919081815260200182805460018160011615610100020316600290048015611b905780601f10611b6557610100808354040283529160200191611b90565b820191906000526020600020905b815481529060010190602001808311611b7357829003601f168201915b505050505081526020016003820160009054906101000a900473ffffffffffffffffffffffffffffffffffffffff1673ffffffffffffffffffffffffffffffffffffffff1673ffffffffffffffffffffffffffffffffffffffff16815250509050600080600881819054906101000a900463ffffffff168092919060010191906101000a81548163ffffffff021916908363ffffffff160217905550905060405180807f4d616e7566616374757265720000000000000000000000000000000000000000815250600c019050604051809103902083604001516040516020018082805190602001908083835b60208310611c9f5780518252602082019150602081019050602083039250611c7c565b6001836020036101000a03801982511681845116808217855250505050505090500191505060405160208183030381529060405280519060200120148015611d90575060405180807f537570706c6965720000000000000000000000000000000000000000000000008152506008019050604051809103902082604001516040516020018082805190602001908083835b60208310611d535780518252602082019150602081019050602083039250611d30565b6001836020036101000a03801982511681845116808217855250505050505090500191505060405160208183030381529060405280519060200120145b15611fdc5785600360008363ffffffff1663ffffffff16815260200190815260200160002060000160006101000a81548163ffffffff021916908363ffffffff1602179055508160600151600360008363ffffffff1663ffffffff168152602001908152602001600020600001600c6101000a81548173ffffffffffffffffffffffffffffffffffffffff021916908373ffffffffffffffffffffffffffffffffffffffff16021790555086600360008363ffffffff1663ffffffff16815260200190815260200160002060000160046101000a81548163ffffffff021916908363ffffffff16021790555042600360008363ffffffff1663ffffffff16815260200190815260200160002060000160086101000a81548163ffffffff021916908363ffffffff1602179055508160600151600160008863ffffffff1663ffffffff16815260200190815260200160002060030160006101000a81548173ffffffffffffffffffffffffffffffffffffffff021916908373ffffffffffffffffffffffffffffffffffffffff160217905550600460008763ffffffff1663ffffffff1681526020019081526020016000208190806001815401808255809150506001900390600052602060002090600891828204019190066004029091909190916101000a81548163ffffffff021916908363ffffffff1602179055507f4a7c2ed8675655246e11580786ba8a73e92e426d177368a8697ead49925146c286604051808263ffffffff1663ffffffff16815260200191505060405180910390a160019450505050612740565b60405180807f537570706c6965720000000000000000000000000000000000000000000000008152506008019050604051809103902083604001516040516020018082805190602001908083835b6020831061204d578051825260208201915060208101905060208303925061202a565b6001836020036101000a0380198251168184511680821785525050505050509050019150506040516020818303038152906040528051906020012014801561213e575060405180807f537570706c6965720000000000000000000000000000000000000000000000008152506008019050604051809103902082604001516040516020018082805190602001908083835b6020831061210157805182526020820191506020810190506020830392506120de565b6001836020036101000a03801982511681845116808217855250505050505090500191505060405160208183030381529060405280519060200120145b1561238a5785600360008363ffffffff1663ffffffff16815260200190815260200160002060000160006101000a81548163ffffffff021916908363ffffffff1602179055508160600151600360008363ffffffff1663ffffffff168152602001908152602001600020600001600c6101000a81548173ffffffffffffffffffffffffffffffffffffffff021916908373ffffffffffffffffffffffffffffffffffffffff16021790555086600360008363ffffffff1663ffffffff16815260200190815260200160002060000160046101000a81548163ffffffff021916908363ffffffff16021790555042600360008363ffffffff1663ffffffff16815260200190815260200160002060000160086101000a81548163ffffffff021916908363ffffffff1602179055508160600151600160008863ffffffff1663ffffffff16815260200190815260200160002060030160006101000a81548173ffffffffffffffffffffffffffffffffffffffff021916908373ffffffffffffffffffffffffffffffffffffffff160217905550600460008763ffffffff1663ffffffff1681526020019081526020016000208190806001815401808255809150506001900390600052602060002090600891828204019190066004029091909190916101000a81548163ffffffff021916908363ffffffff1602179055507f4a7c2ed8675655246e11580786ba8a73e92e426d177368a8697ead49925146c286604051808263ffffffff1663ffffffff16815260200191505060405180910390a160019450505050612740565b60405180807f537570706c6965720000000000000000000000000000000000000000000000008152506008019050604051809103902083604001516040516020018082805190602001908083835b602083106123fb57805182526020820191506020810190506020830392506123d8565b6001836020036101000a038019825116818451168082178552505050505050905001915050604051602081830303815290604052805190602001201480156124ec575060405180807f436f6e73756d65720000000000000000000000000000000000000000000000008152506008019050604051809103902082604001516040516020018082805190602001908083835b602083106124af578051825260208201915060208101905060208303925061248c565b6001836020036101000a03801982511681845116808217855250505050505090500191505060405160208183030381529060405280519060200120145b156127385785600360008363ffffffff1663ffffffff16815260200190815260200160002060000160006101000a81548163ffffffff021916908363ffffffff1602179055508160600151600360008363ffffffff1663ffffffff168152602001908152602001600020600001600c6101000a81548173ffffffffffffffffffffffffffffffffffffffff021916908373ffffffffffffffffffffffffffffffffffffffff16021790555086600360008363ffffffff1663ffffffff16815260200190815260200160002060000160046101000a81548163ffffffff021916908363ffffffff16021790555042600360008363ffffffff1663ffffffff16815260200190815260200160002060000160086101000a81548163ffffffff021916908363ffffffff1602179055508160600151600160008863ffffffff1663ffffffff16815260200190815260200160002060030160006101000a81548173ffffffffffffffffffffffffffffffffffffffff021916908373ffffffffffffffffffffffffffffffffffffffff160217905550600460008763ffffffff1663ffffffff1681526020019081526020016000208190806001815401808255809150506001900390600052602060002090600891828204019190066004029091909190916101000a81548163ffffffff021916908363ffffffff1602179055507f4a7c2ed8675655246e11580786ba8a73e92e426d177368a8697ead49925146c286604051808263ffffffff1663ffffffff16815260200191505060405180910390a160019450505050612740565b600094505050505b509392505050565b6000816040516020018082805190602001908083835b60208310612781578051825260208201915060208101905060208303925061275e565b6001836020036101000a03801982511681845116808217855250505050505090500191505060405160208183030381529060405280519060200120600260008763ffffffff1663ffffffff168152602001908152602001600020600201604051602001808280546001816001161561010002031660029004801561283c5780601f1061281a57610100808354040283529182019161283c565b820191906000526020600020905b815481529060010190602001808311612828575b5050915050604051602081830303815290604052805190602001201415612a8e57836040516020018082805190602001908083835b602083106128945780518252602082019150602081019050602083039250612871565b6001836020036101000a03801982511681845116808217855250505050505090500191505060405160208183030381529060405280519060200120600260008763ffffffff1663ffffffff168152602001908152602001600020600001604051602001808280546001816001161561010002031660029004801561294f5780601f1061292d57610100808354040283529182019161294f565b820191906000526020600020905b81548152906001019060200180831161293b575b5050915050604051602081830303815290604052805190602001201415612a8d57826040516020018082805190602001908083835b602083106129a75780518252602082019150602081019050602083039250612984565b6001836020036101000a03801982511681845116808217855250505050505090500191505060405160208183030381529060405280519060200120600260008763ffffffff1663ffffffff1681526020019081526020016000206001016040516020018082805460018160011615610100020316600290048015612a625780601f10612a40576101008083540402835291820191612a62565b820191906000526020600020905b815481529060010190602001808311612a4e575b5050915050604051602081830303815290604052805190602001201415612a8c5760019050612a93565b5b5b600090505b949350505050565b6002602052806000526040600020600091509050806000018054600181600116156101000203166002900480601f016020809104026020016040519081016040528092919081815260200182805460018160011615610100020316600290048015612b475780601f10612b1c57610100808354040283529160200191612b47565b820191906000526020600020905b815481529060010190602001808311612b2a57829003601f168201915b505050505090806001018054600181600116156101000203166002900480601f016020809104026020016040519081016040528092919081815260200182805460018160011615610100020316600290048015612be55780601f10612bba57610100808354040283529160200191612be5565b820191906000526020600020905b815481529060010190602001808311612bc857829003601f168201915b505050505090806002018054600181600116156101000203166002900480601f016020809104026020016040519081016040528092919081815260200182805460018160011615610100020316600290048015612c835780601f10612c5857610100808354040283529160200191612c83565b820191906000526020600020905b815481529060010190602001808311612c6657829003601f168201915b5050505050908060030160009054906101000a900473ffffffffffffffffffffffffffffffffffffffff16905084565b60036020528060005260406000206000915090508060000160009054906101000a900463ffffffff16908060000160049054906101000a900463ffffffff16908060000160089054906101000a900463ffffffff169080600001600c9054906101000a900473ffffffffffffffffffffffffffffffffffffffff16905084565b6000806000600481819054906101000a900463ffffffff168092919060010191906101000a81548163ffffffff021916908363ffffffff160217905550905085600260008363ffffffff1663ffffffff1681526020019081526020016000206000019080519060200190612da89291906135f2565b5084600260008363ffffffff1663ffffffff1681526020019081526020016000206001019080519060200190612ddf9291906135f2565b5083600260008363ffffffff1663ffffffff16815260200190815260200160002060030160006101000a81548173ffffffffffffffffffffffffffffffffffffffff021916908373ffffffffffffffffffffffffffffffffffffffff16021790555082600260008363ffffffff1663ffffffff1681526020019081526020016000206002019080519060200190612e779291906135f2565b5080915050949350505050565b6060600460008363ffffffff1663ffffffff168152602001908152602001600020805480602002602001604051908101604052809291908181526020018280548015612f1b57602002820191906000526020600020906000905b82829054906101000a900463ffffffff1663ffffffff1681526020019060040190602082600301049283019260010382029150808411612ede5790505b50505050509050919050565b600080600080612f35613672565b600360008763ffffffff1663ffffffff1681526020019081526020016000206040518060800160405290816000820160009054906101000a900463ffffffff1663ffffffff1663ffffffff1681526020016000820160049054906101000a900463ffffffff1663ffffffff1663ffffffff1681526020016000820160089054906101000a900463ffffffff1663ffffffff1663ffffffff16815260200160008201600c9054906101000a900473ffffffffffffffffffffffffffffffffffffffff1673ffffffffffffffffffffffffffffffffffffffff1673ffffffffffffffffffffffffffffffffffffffff1681525050905080600001518160200151826060015183604001519450945094509450509193509193565b6001602052806000526040600020600091509050806000018054600181600116156101000203166002900480601f0160208091040260200160405190810160405280929190818152602001828054600181600116156101000203166002900480156130f95780601f106130ce576101008083540402835291602001916130f9565b820191906000526020600020905b8154815290600101906020018083116130dc57829003601f168201915b505050505090806001018054600181600116156101000203166002900480601f0160208091040260200160405190810160405280929190818152602001828054600181600116156101000203166002900480156131975780601f1061316c57610100808354040283529160200191613197565b820191906000526020600020905b81548152906001019060200180831161317a57829003601f168201915b505050505090806002018054600181600116156101000203166002900480601f0160208091040260200160405190810160405280929190818152602001828054600181600116156101000203166002900480156132355780601f1061320a57610100808354040283529160200191613235565b820191906000526020600020905b81548152906001019060200180831161321857829003601f168201915b5050505050908060030160009054906101000a900473ffffffffffffffffffffffffffffffffffffffff16908060030160149054906101000a900463ffffffff16908060030160189054906101000a900463ffffffff16905086565b600060049054906101000a900463ffffffff1681565b600060405180807f4d616e7566616374757265720000000000000000000000000000000000000000815250600c0190506040518091039020600260008863ffffffff1663ffffffff168152602001908152602001600020600201604051602001808280546001816001161561010002031660029004801561335f5780601f1061333d57610100808354040283529182019161335f565b820191906000526020600020905b81548152906001019060200180831161334b575b505091505060405160208183030381529060405280519060200120141561359057600080600081819054906101000a900463ffffffff168092919060010191906101000a81548163ffffffff021916908363ffffffff160217905550905085600160008363ffffffff1663ffffffff16815260200190815260200160002060000190805190602001906133f39291906135f2565b5084600160008363ffffffff1663ffffffff168152602001908152602001600020600101908051906020019061342a9291906135f2565b5083600160008363ffffffff1663ffffffff16815260200190815260200160002060020190805190602001906134619291906135f2565b5082600160008363ffffffff1663ffffffff16815260200190815260200160002060030160146101000a81548163ffffffff021916908363ffffffff160217905550600260008863ffffffff1663ffffffff16815260200190815260200160002060030160009054906101000a900473ffffffffffffffffffffffffffffffffffffffff16600160008363ffffffff1663ffffffff16815260200190815260200160002060030160006101000a81548173ffffffffffffffffffffffffffffffffffffffff021916908373ffffffffffffffffffffffffffffffffffffffff16021790555042600160008363ffffffff1663ffffffff16815260200190815260200160002060030160186101000a81548163ffffffff021916908363ffffffff16021790555080915050613595565b600090505b95945050505050565b600060089054906101000a900463ffffffff1681565b6040518060800160405280606081526020016060815260200160608152602001600073ffffffffffffffffffffffffffffffffffffffff1681525090565b828054600181600116156101000203166002900490600052602060002090601f016020900481019282601f1061363357805160ff1916838001178555613661565b82800160010185558215613661579182015b82811115613660578251825591602001919060010190613645565b5b50905061366e91906136c2565b5090565b6040518060800160405280600063ffffffff168152602001600063ffffffff168152602001600063ffffffff168152602001600073ffffffffffffffffffffffffffffffffffffffff1681525090565b6136e491905b808211156136e05760008160009055506001016136c8565b5090565b9056fea2646970667358221220ce52f091821b16301ce6076c85494f395f3b3f36a0de8f0a1636ddf6e465682564736f6c63430006010033",
  "source": "pragma solidity ^0.6.1;\r\n\r\ncontract SupplyChain {\r\n    uint32 public product_counter = 0; // Product ID\r\n    uint32 public participant_counter = 0; // Participant ID\r\n    uint32 public registration_counter = 0; // Registration ID\r\n    constructor() public {}\r\n    struct product {\r\n        string modelNumber;\r\n        string partNumber;\r\n        string serialNumber;\r\n        address productOwner;\r\n        uint32 cost;\r\n        uint32 mfgTimeStamp;\r\n    }\r\n\r\n    mapping(uint32 => product) public products;\r\n\r\n    struct participant {\r\n        string userName;\r\n        string password;\r\n        string participantType;\r\n        address participantAddress;\r\n    }\r\n    mapping(uint32 => participant) public participants;\r\n\r\n    struct registration {\r\n        uint32 productId;\r\n        uint32 ownerId;\r\n        uint32 trxTimeStamp;\r\n        address productOwner;\r\n    }\r\n    mapping(uint32 => registration) public registrations; // Registrations by Registration ID (registration_counter)\r\n    mapping(uint32 => uint32[]) public productTrack; // Registrations by Product ID (product_counter) / Movement track for a product\r\n\r\n    event Transfer(uint32 productId);\r\n\r\n    function createParticipant(\r\n        string memory _name,\r\n        string memory _pass,\r\n        address _pAdd,\r\n        string memory _pType\r\n    ) public returns (uint32) {\r\n        uint32 userId = participant_counter++;\r\n        participants[userId].userName = _name;\r\n        participants[userId].password = _pass;\r\n        participants[userId].participantAddress = _pAdd;\r\n        participants[userId].participantType = _pType;\r\n\r\n        return userId;\r\n    }\r\n\r\n    function getParticipantDetails(uint32 _p_id)\r\n        public\r\n        view\r\n        returns (string memory, address, string memory)\r\n    {\r\n        return (\r\n            participants[_p_id].userName,\r\n            participants[_p_id].participantAddress,\r\n            participants[_p_id].participantType\r\n        );\r\n    }\r\n\r\n    function createProduct(\r\n        uint32 _ownerId,\r\n        string memory _modelNumber,\r\n        string memory _partNumber,\r\n        string memory _serialNumber,\r\n        uint32 _productCost\r\n    ) public returns (uint32) {\r\n        if (\r\n            keccak256(\r\n                abi.encodePacked(participants[_ownerId].participantType)\r\n            ) ==\r\n            keccak256(\"Manufacturer\")\r\n        ) {\r\n            uint32 productId = product_counter++;\r\n\r\n            products[productId].modelNumber = _modelNumber;\r\n            products[productId].partNumber = _partNumber;\r\n            products[productId].serialNumber = _serialNumber;\r\n            products[productId].cost = _productCost;\r\n            products[productId].productOwner = participants[_ownerId]\r\n                .participantAddress;\r\n            products[productId].mfgTimeStamp = uint32(now);\r\n\r\n            return productId;\r\n        }\r\n\r\n        return 0;\r\n    }\r\n\r\n    modifier onlyOwner(uint32 _productId) {\r\n        require(msg.sender == products[_productId].productOwner);\r\n        _;\r\n    }\r\n\r\n    function getProductDetails(uint32 _productId)\r\n        public\r\n        view\r\n        returns (\r\n            string memory,\r\n            string memory,\r\n            string memory,\r\n            uint32,\r\n            address,\r\n            uint32\r\n        )\r\n    {\r\n        return (\r\n            products[_productId].modelNumber,\r\n            products[_productId].partNumber,\r\n            products[_productId].serialNumber,\r\n            products[_productId].cost,\r\n            products[_productId].productOwner,\r\n            products[_productId].mfgTimeStamp\r\n        );\r\n    }\r\n\r\n    function transferToOwner(uint32 _user1Id, uint32 _user2Id, uint32 _prodId)\r\n        public\r\n        onlyOwner(_prodId)\r\n        returns (bool)\r\n    {\r\n        participant memory p1 = participants[_user1Id];\r\n        participant memory p2 = participants[_user2Id];\r\n        uint32 registration_id = registration_counter++;\r\n\r\n        if (\r\n            keccak256(abi.encodePacked(p1.participantType)) ==\r\n            keccak256(\"Manufacturer\") &&\r\n            keccak256(abi.encodePacked(p2.participantType)) ==\r\n            keccak256(\"Supplier\")\r\n        ) {\r\n            registrations[registration_id].productId = _prodId;\r\n            registrations[registration_id].productOwner = p2.participantAddress;\r\n            registrations[registration_id].ownerId = _user2Id;\r\n            registrations[registration_id].trxTimeStamp = uint32(now);\r\n            products[_prodId].productOwner = p2.participantAddress;\r\n            productTrack[_prodId].push(registration_id);\r\n            emit Transfer(_prodId);\r\n\r\n            return (true);\r\n        } else if (\r\n            keccak256(abi.encodePacked(p1.participantType)) ==\r\n            keccak256(\"Supplier\") &&\r\n            keccak256(abi.encodePacked(p2.participantType)) ==\r\n            keccak256(\"Supplier\")\r\n        ) {\r\n            registrations[registration_id].productId = _prodId;\r\n            registrations[registration_id].productOwner = p2.participantAddress;\r\n            registrations[registration_id].ownerId = _user2Id;\r\n            registrations[registration_id].trxTimeStamp = uint32(now);\r\n            products[_prodId].productOwner = p2.participantAddress;\r\n            productTrack[_prodId].push(registration_id);\r\n            emit Transfer(_prodId);\r\n\r\n            return (true);\r\n        } else if (\r\n            keccak256(abi.encodePacked(p1.participantType)) ==\r\n            keccak256(\"Supplier\") &&\r\n            keccak256(abi.encodePacked(p2.participantType)) ==\r\n            keccak256(\"Consumer\")\r\n        ) {\r\n            registrations[registration_id].productId = _prodId;\r\n            registrations[registration_id].productOwner = p2.participantAddress;\r\n            registrations[registration_id].ownerId = _user2Id;\r\n            registrations[registration_id].trxTimeStamp = uint32(now);\r\n            products[_prodId].productOwner = p2.participantAddress;\r\n            productTrack[_prodId].push(registration_id);\r\n            emit Transfer(_prodId);\r\n\r\n            return (true);\r\n        }\r\n\r\n        return (false);\r\n    }\r\n\r\n    function getProductTrack(uint32 _prodId)\r\n        external\r\n        view\r\n        returns (uint32[] memory)\r\n    {\r\n        return productTrack[_prodId];\r\n    }\r\n\r\n    function getRegistrationDetails(uint32 _regId)\r\n        public\r\n        view\r\n        returns (uint32, uint32, address, uint32)\r\n    {\r\n        registration memory r = registrations[_regId];\r\n\r\n        return (r.productId, r.ownerId, r.productOwner, r.trxTimeStamp);\r\n    }\r\n\r\n    function authenticateParticipant(\r\n        uint32 _uid,\r\n        string memory _uname,\r\n        string memory _pass,\r\n        string memory _utype\r\n    ) public view returns (bool) {\r\n        if (\r\n            keccak256(abi.encodePacked(participants[_uid].participantType)) ==\r\n            keccak256(abi.encodePacked(_utype))\r\n        ) {\r\n            if (\r\n                keccak256(abi.encodePacked(participants[_uid].userName)) ==\r\n                keccak256(abi.encodePacked(_uname))\r\n            ) {\r\n                if (\r\n                    keccak256(abi.encodePacked(participants[_uid].password)) ==\r\n                    keccak256(abi.encodePacked(_pass))\r\n                ) {\r\n                    return (true);\r\n                }\r\n            }\r\n        }\r\n        return (false);\r\n    }\r\n\r\n}\r\n",
  "sourcePath": "C:/Users/Laptop001/vue-chain/truffle/contracts/SupplyChain.sol",
  "compiler": {
    "name": "solc",
    "version": "0.6.1+commit.e6f7d5a4.Emscripten.clang"
  },
  "schemaVersion": "3.0.22",
  "updatedAt": "2020-03-17T20:58:31.958Z",
  "networkType": "ethereum",
  "devdoc": {
    "methods": {}
  },
  "userdoc": {
    "methods": {}
  }
}